{"abi":[{"inputs":[{"internalType":"uint256","name":"minimum","type":"uint256"}],"name":"createCampaignContract","outputs":[],"stateMutability":"nonpayable","type":"function"},{"inputs":[],"name":"getDeployedCampaigns","outputs":[{"internalType":"address[]","name":"","type":"address[]"}],"stateMutability":"view","type":"function"},{"inputs":[{"internalType":"uint256","name":"","type":"uint256"}],"name":"listOfDeployedCampaignContracts","outputs":[{"internalType":"address","name":"","type":"address"}],"stateMutability":"view","type":"function"}],"devdoc":{"kind":"dev","methods":{},"version":1},"evm":{"assembly":"    /* \"Campaign.sol\":628:1339  contract CampaignFactory {... */\n  mstore(0x40, 0x80)\n  callvalue\n  dup1\n  iszero\n  tag_1\n  jumpi\n  0x00\n  dup1\n  revert\ntag_1:\n  pop\n  dataSize(sub_0)\n  dup1\n  dataOffset(sub_0)\n  0x00\n  codecopy\n  0x00\n  return\nstop\n\nsub_0: assembly {\n        /* \"Campaign.sol\":628:1339  contract CampaignFactory {... */\n      mstore(0x40, 0x80)\n      callvalue\n      dup1\n      iszero\n      tag_1\n      jumpi\n      0x00\n      dup1\n      revert\n    tag_1:\n      pop\n      jumpi(tag_2, lt(calldatasize, 0x04))\n      shr(0xe0, calldataload(0x00))\n      dup1\n      0x4acb9d4f\n      eq\n      tag_3\n      jumpi\n      dup1\n      0x5d1c8599\n      eq\n      tag_4\n      jumpi\n      dup1\n      0x6fd75130\n      eq\n      tag_5\n      jumpi\n    tag_2:\n      0x00\n      dup1\n      revert\n        /* \"Campaign.sol\":1211:1337  function getDeployedCampaigns() public view returns (address[] memory) {... */\n    tag_3:\n      tag_6\n      tag_7\n      jump\t// in\n    tag_6:\n      mload(0x40)\n      tag_8\n      swap2\n      swap1\n      tag_9\n      jump\t// in\n    tag_8:\n      mload(0x40)\n      dup1\n      swap2\n      sub\n      swap1\n      return\n        /* \"Campaign.sol\":659:707  address[] public listOfDeployedCampaignContracts */\n    tag_4:\n      tag_10\n      0x04\n      dup1\n      calldatasize\n      sub\n      dup2\n      add\n      swap1\n      tag_11\n      swap2\n      swap1\n      tag_12\n      jump\t// in\n    tag_11:\n      tag_13\n      jump\t// in\n    tag_10:\n      mload(0x40)\n      tag_14\n      swap2\n      swap1\n      tag_15\n      jump\t// in\n    tag_14:\n      mload(0x40)\n      dup1\n      swap2\n      sub\n      swap1\n      return\n        /* \"Campaign.sol\":765:1140  function createCampaignContract(uint256 minimum) public {... */\n    tag_5:\n      tag_16\n      0x04\n      dup1\n      calldatasize\n      sub\n      dup2\n      add\n      swap1\n      tag_17\n      swap2\n      swap1\n      tag_12\n      jump\t// in\n    tag_17:\n      tag_18\n      jump\t// in\n    tag_16:\n      stop\n        /* \"Campaign.sol\":1211:1337  function getDeployedCampaigns() public view returns (address[] memory) {... */\n    tag_7:\n        /* \"Campaign.sol\":1264:1280  address[] memory */\n      0x60\n        /* \"Campaign.sol\":1299:1330  listOfDeployedCampaignContracts */\n      0x00\n        /* \"Campaign.sol\":1292:1330  return listOfDeployedCampaignContracts */\n      dup1\n      sload\n      dup1\n      0x20\n      mul\n      0x20\n      add\n      mload(0x40)\n      swap1\n      dup2\n      add\n      0x40\n      mstore\n      dup1\n      swap3\n      swap2\n      swap1\n      dup2\n      dup2\n      mstore\n      0x20\n      add\n      dup3\n      dup1\n      sload\n      dup1\n      iszero\n      tag_20\n      jumpi\n      0x20\n      mul\n      dup3\n      add\n      swap2\n      swap1\n      0x00\n      mstore\n      keccak256(0x00, 0x20)\n      swap1\n    tag_21:\n      dup2\n      0x00\n      swap1\n      sload\n      swap1\n      0x0100\n      exp\n      swap1\n      div\n      0xffffffffffffffffffffffffffffffffffffffff\n      and\n      0xffffffffffffffffffffffffffffffffffffffff\n      and\n      dup2\n      mstore\n      0x20\n      add\n      swap1\n      0x01\n      add\n      swap1\n      dup1\n      dup4\n      gt\n      tag_21\n      jumpi\n    tag_20:\n      pop\n      pop\n      pop\n      pop\n      pop\n      swap1\n      pop\n        /* \"Campaign.sol\":1211:1337  function getDeployedCampaigns() public view returns (address[] memory) {... */\n      swap1\n      jump\t// out\n        /* \"Campaign.sol\":659:707  address[] public listOfDeployedCampaignContracts */\n    tag_13:\n      0x00\n      dup2\n      dup2\n      sload\n      dup2\n      lt\n      tag_22\n      jumpi\n      0x00\n      dup1\n      revert\n    tag_22:\n      swap1\n      0x00\n      mstore\n      keccak256(0x00, 0x20)\n      add\n      0x00\n      swap2\n      pop\n      sload\n      swap1\n      0x0100\n      exp\n      swap1\n      div\n      0xffffffffffffffffffffffffffffffffffffffff\n      and\n      dup2\n      jump\t// out\n        /* \"Campaign.sol\":765:1140  function createCampaignContract(uint256 minimum) public {... */\n    tag_18:\n        /* \"Campaign.sol\":831:851  Campaign newCampaign */\n      0x00\n        /* \"Campaign.sol\":867:874  minimum */\n      dup2\n        /* \"Campaign.sol\":876:886  msg.sender */\n      caller\n        /* \"Campaign.sol\":854:887  new Campaign(minimum, msg.sender) */\n      mload(0x40)\n      tag_25\n      swap1\n      tag_26\n      jump\t// in\n    tag_25:\n      tag_27\n      swap3\n      swap2\n      swap1\n      tag_28\n      jump\t// in\n    tag_27:\n      mload(0x40)\n      dup1\n      swap2\n      sub\n      swap1\n      0x00\n      create\n      dup1\n      iszero\n      dup1\n      iszero\n      tag_29\n      jumpi\n      returndatasize\n      0x00\n      dup1\n      returndatacopy\n      revert(0x00, returndatasize)\n    tag_29:\n      pop\n        /* \"Campaign.sol\":831:887  Campaign newCampaign = new Campaign(minimum, msg.sender) */\n      swap1\n      pop\n        /* \"Campaign.sol\":1026:1057  listOfDeployedCampaignContracts */\n      0x00\n        /* \"Campaign.sol\":1071:1082  newCampaign */\n      dup2\n        /* \"Campaign.sol\":1026:1084  listOfDeployedCampaignContracts.push(address(newCampaign)) */\n      swap1\n      dup1\n      0x01\n      dup2\n      sload\n      add\n      dup1\n      dup3\n      sstore\n      dup1\n      swap2\n      pop\n      pop\n      0x01\n      swap1\n      sub\n      swap1\n      0x00\n      mstore\n      keccak256(0x00, 0x20)\n      add\n      0x00\n      swap1\n      swap2\n      swap1\n      swap2\n      swap1\n      swap2\n      0x0100\n      exp\n      dup2\n      sload\n      dup2\n      0xffffffffffffffffffffffffffffffffffffffff\n      mul\n      not\n      and\n      swap1\n      dup4\n      0xffffffffffffffffffffffffffffffffffffffff\n      and\n      mul\n      or\n      swap1\n      sstore\n      pop\n        /* \"Campaign.sol\":821:1140  {... */\n      pop\n        /* \"Campaign.sol\":765:1140  function createCampaignContract(uint256 minimum) public {... */\n      pop\n      jump\t// out\n    tag_26:\n      dataSize(sub_0)\n      dup1\n      dataOffset(sub_0)\n      dup4\n      codecopy\n      add\n      swap1\n      jump\t// out\n        /* \"#utility.yul\":7:121   */\n    tag_31:\n        /* \"#utility.yul\":74:80   */\n      0x00\n        /* \"#utility.yul\":108:113   */\n      dup2\n        /* \"#utility.yul\":102:114   */\n      mload\n        /* \"#utility.yul\":92:114   */\n      swap1\n      pop\n        /* \"#utility.yul\":7:121   */\n      swap2\n      swap1\n      pop\n      jump\t// out\n        /* \"#utility.yul\":127:311   */\n    tag_32:\n        /* \"#utility.yul\":226:237   */\n      0x00\n        /* \"#utility.yul\":260:266   */\n      dup3\n        /* \"#utility.yul\":255:258   */\n      dup3\n        /* \"#utility.yul\":248:267   */\n      mstore\n        /* \"#utility.yul\":300:304   */\n      0x20\n        /* \"#utility.yul\":295:298   */\n      dup3\n        /* \"#utility.yul\":291:305   */\n      add\n        /* \"#utility.yul\":276:305   */\n      swap1\n      pop\n        /* \"#utility.yul\":127:311   */\n      swap3\n      swap2\n      pop\n      pop\n      jump\t// out\n        /* \"#utility.yul\":317:449   */\n    tag_33:\n        /* \"#utility.yul\":384:388   */\n      0x00\n        /* \"#utility.yul\":407:410   */\n      dup2\n        /* \"#utility.yul\":399:410   */\n      swap1\n      pop\n        /* \"#utility.yul\":437:441   */\n      0x20\n        /* \"#utility.yul\":432:435   */\n      dup3\n        /* \"#utility.yul\":428:442   */\n      add\n        /* \"#utility.yul\":420:442   */\n      swap1\n      pop\n        /* \"#utility.yul\":317:449   */\n      swap2\n      swap1\n      pop\n      jump\t// out\n        /* \"#utility.yul\":455:581   */\n    tag_34:\n        /* \"#utility.yul\":492:499   */\n      0x00\n        /* \"#utility.yul\":532:574   */\n      0xffffffffffffffffffffffffffffffffffffffff\n        /* \"#utility.yul\":525:530   */\n      dup3\n        /* \"#utility.yul\":521:575   */\n      and\n        /* \"#utility.yul\":510:575   */\n      swap1\n      pop\n        /* \"#utility.yul\":455:581   */\n      swap2\n      swap1\n      pop\n      jump\t// out\n        /* \"#utility.yul\":587:683   */\n    tag_35:\n        /* \"#utility.yul\":624:631   */\n      0x00\n        /* \"#utility.yul\":653:677   */\n      tag_54\n        /* \"#utility.yul\":671:676   */\n      dup3\n        /* \"#utility.yul\":653:677   */\n      tag_34\n      jump\t// in\n    tag_54:\n        /* \"#utility.yul\":642:677   */\n      swap1\n      pop\n        /* \"#utility.yul\":587:683   */\n      swap2\n      swap1\n      pop\n      jump\t// out\n        /* \"#utility.yul\":689:797   */\n    tag_36:\n        /* \"#utility.yul\":766:790   */\n      tag_56\n        /* \"#utility.yul\":784:789   */\n      dup2\n        /* \"#utility.yul\":766:790   */\n      tag_35\n      jump\t// in\n    tag_56:\n        /* \"#utility.yul\":761:764   */\n      dup3\n        /* \"#utility.yul\":754:791   */\n      mstore\n        /* \"#utility.yul\":689:797   */\n      pop\n      pop\n      jump\t// out\n        /* \"#utility.yul\":803:982   */\n    tag_37:\n        /* \"#utility.yul\":872:882   */\n      0x00\n        /* \"#utility.yul\":893:939   */\n      tag_58\n        /* \"#utility.yul\":935:938   */\n      dup4\n        /* \"#utility.yul\":927:933   */\n      dup4\n        /* \"#utility.yul\":893:939   */\n      tag_36\n      jump\t// in\n    tag_58:\n        /* \"#utility.yul\":971:975   */\n      0x20\n        /* \"#utility.yul\":966:969   */\n      dup4\n        /* \"#utility.yul\":962:976   */\n      add\n        /* \"#utility.yul\":948:976   */\n      swap1\n      pop\n        /* \"#utility.yul\":803:982   */\n      swap3\n      swap2\n      pop\n      pop\n      jump\t// out\n        /* \"#utility.yul\":988:1101   */\n    tag_38:\n        /* \"#utility.yul\":1058:1062   */\n      0x00\n        /* \"#utility.yul\":1090:1094   */\n      0x20\n        /* \"#utility.yul\":1085:1088   */\n      dup3\n        /* \"#utility.yul\":1081:1095   */\n      add\n        /* \"#utility.yul\":1073:1095   */\n      swap1\n      pop\n        /* \"#utility.yul\":988:1101   */\n      swap2\n      swap1\n      pop\n      jump\t// out\n        /* \"#utility.yul\":1137:1869   */\n    tag_39:\n        /* \"#utility.yul\":1256:1259   */\n      0x00\n        /* \"#utility.yul\":1285:1339   */\n      tag_61\n        /* \"#utility.yul\":1333:1338   */\n      dup3\n        /* \"#utility.yul\":1285:1339   */\n      tag_31\n      jump\t// in\n    tag_61:\n        /* \"#utility.yul\":1355:1441   */\n      tag_62\n        /* \"#utility.yul\":1434:1440   */\n      dup2\n        /* \"#utility.yul\":1429:1432   */\n      dup6\n        /* \"#utility.yul\":1355:1441   */\n      tag_32\n      jump\t// in\n    tag_62:\n        /* \"#utility.yul\":1348:1441   */\n      swap4\n      pop\n        /* \"#utility.yul\":1465:1521   */\n      tag_63\n        /* \"#utility.yul\":1515:1520   */\n      dup4\n        /* \"#utility.yul\":1465:1521   */\n      tag_33\n      jump\t// in\n    tag_63:\n        /* \"#utility.yul\":1544:1551   */\n      dup1\n        /* \"#utility.yul\":1575:1576   */\n      0x00\n        /* \"#utility.yul\":1560:1844   */\n    tag_64:\n        /* \"#utility.yul\":1585:1591   */\n      dup4\n        /* \"#utility.yul\":1582:1583   */\n      dup2\n        /* \"#utility.yul\":1579:1592   */\n      lt\n        /* \"#utility.yul\":1560:1844   */\n      iszero\n      tag_66\n      jumpi\n        /* \"#utility.yul\":1661:1667   */\n      dup2\n        /* \"#utility.yul\":1655:1668   */\n      mload\n        /* \"#utility.yul\":1688:1751   */\n      tag_67\n        /* \"#utility.yul\":1747:1750   */\n      dup9\n        /* \"#utility.yul\":1732:1745   */\n      dup3\n        /* \"#utility.yul\":1688:1751   */\n      tag_37\n      jump\t// in\n    tag_67:\n        /* \"#utility.yul\":1681:1751   */\n      swap8\n      pop\n        /* \"#utility.yul\":1774:1834   */\n      tag_68\n        /* \"#utility.yul\":1827:1833   */\n      dup4\n        /* \"#utility.yul\":1774:1834   */\n      tag_38\n      jump\t// in\n    tag_68:\n        /* \"#utility.yul\":1764:1834   */\n      swap3\n      pop\n        /* \"#utility.yul\":1620:1844   */\n      pop\n        /* \"#utility.yul\":1607:1608   */\n      0x01\n        /* \"#utility.yul\":1604:1605   */\n      dup2\n        /* \"#utility.yul\":1600:1609   */\n      add\n        /* \"#utility.yul\":1595:1609   */\n      swap1\n      pop\n        /* \"#utility.yul\":1560:1844   */\n      jump(tag_64)\n    tag_66:\n        /* \"#utility.yul\":1564:1578   */\n      pop\n        /* \"#utility.yul\":1860:1863   */\n      dup6\n        /* \"#utility.yul\":1853:1863   */\n      swap4\n      pop\n        /* \"#utility.yul\":1261:1869   */\n      pop\n      pop\n      pop\n        /* \"#utility.yul\":1137:1869   */\n      swap3\n      swap2\n      pop\n      pop\n      jump\t// out\n        /* \"#utility.yul\":1875:2248   */\n    tag_9:\n        /* \"#utility.yul\":2018:2022   */\n      0x00\n        /* \"#utility.yul\":2056:2058   */\n      0x20\n        /* \"#utility.yul\":2045:2054   */\n      dup3\n        /* \"#utility.yul\":2041:2059   */\n      add\n        /* \"#utility.yul\":2033:2059   */\n      swap1\n      pop\n        /* \"#utility.yul\":2105:2114   */\n      dup2\n        /* \"#utility.yul\":2099:2103   */\n      dup2\n        /* \"#utility.yul\":2095:2115   */\n      sub\n        /* \"#utility.yul\":2091:2092   */\n      0x00\n        /* \"#utility.yul\":2080:2089   */\n      dup4\n        /* \"#utility.yul\":2076:2093   */\n      add\n        /* \"#utility.yul\":2069:2116   */\n      mstore\n        /* \"#utility.yul\":2133:2241   */\n      tag_70\n        /* \"#utility.yul\":2236:2240   */\n      dup2\n        /* \"#utility.yul\":2227:2233   */\n      dup5\n        /* \"#utility.yul\":2133:2241   */\n      tag_39\n      jump\t// in\n    tag_70:\n        /* \"#utility.yul\":2125:2241   */\n      swap1\n      pop\n        /* \"#utility.yul\":1875:2248   */\n      swap3\n      swap2\n      pop\n      pop\n      jump\t// out\n        /* \"#utility.yul\":2335:2452   */\n    tag_41:\n        /* \"#utility.yul\":2444:2445   */\n      0x00\n        /* \"#utility.yul\":2441:2442   */\n      dup1\n        /* \"#utility.yul\":2434:2446   */\n      revert\n        /* \"#utility.yul\":2581:2658   */\n    tag_43:\n        /* \"#utility.yul\":2618:2625   */\n      0x00\n        /* \"#utility.yul\":2647:2652   */\n      dup2\n        /* \"#utility.yul\":2636:2652   */\n      swap1\n      pop\n        /* \"#utility.yul\":2581:2658   */\n      swap2\n      swap1\n      pop\n      jump\t// out\n        /* \"#utility.yul\":2664:2786   */\n    tag_44:\n        /* \"#utility.yul\":2737:2761   */\n      tag_76\n        /* \"#utility.yul\":2755:2760   */\n      dup2\n        /* \"#utility.yul\":2737:2761   */\n      tag_43\n      jump\t// in\n    tag_76:\n        /* \"#utility.yul\":2730:2735   */\n      dup2\n        /* \"#utility.yul\":2727:2762   */\n      eq\n        /* \"#utility.yul\":2717:2780   */\n      tag_77\n      jumpi\n        /* \"#utility.yul\":2776:2777   */\n      0x00\n        /* \"#utility.yul\":2773:2774   */\n      dup1\n        /* \"#utility.yul\":2766:2778   */\n      revert\n        /* \"#utility.yul\":2717:2780   */\n    tag_77:\n        /* \"#utility.yul\":2664:2786   */\n      pop\n      jump\t// out\n        /* \"#utility.yul\":2792:2931   */\n    tag_45:\n        /* \"#utility.yul\":2838:2843   */\n      0x00\n        /* \"#utility.yul\":2876:2882   */\n      dup2\n        /* \"#utility.yul\":2863:2883   */\n      calldataload\n        /* \"#utility.yul\":2854:2883   */\n      swap1\n      pop\n        /* \"#utility.yul\":2892:2925   */\n      tag_79\n        /* \"#utility.yul\":2919:2924   */\n      dup2\n        /* \"#utility.yul\":2892:2925   */\n      tag_44\n      jump\t// in\n    tag_79:\n        /* \"#utility.yul\":2792:2931   */\n      swap3\n      swap2\n      pop\n      pop\n      jump\t// out\n        /* \"#utility.yul\":2937:3266   */\n    tag_12:\n        /* \"#utility.yul\":2996:3002   */\n      0x00\n        /* \"#utility.yul\":3045:3047   */\n      0x20\n        /* \"#utility.yul\":3033:3042   */\n      dup3\n        /* \"#utility.yul\":3024:3031   */\n      dup5\n        /* \"#utility.yul\":3020:3043   */\n      sub\n        /* \"#utility.yul\":3016:3048   */\n      slt\n        /* \"#utility.yul\":3013:3132   */\n      iszero\n      tag_81\n      jumpi\n        /* \"#utility.yul\":3051:3130   */\n      tag_82\n      tag_41\n      jump\t// in\n    tag_82:\n        /* \"#utility.yul\":3013:3132   */\n    tag_81:\n        /* \"#utility.yul\":3171:3172   */\n      0x00\n        /* \"#utility.yul\":3196:3249   */\n      tag_83\n        /* \"#utility.yul\":3241:3248   */\n      dup5\n        /* \"#utility.yul\":3232:3238   */\n      dup3\n        /* \"#utility.yul\":3221:3230   */\n      dup6\n        /* \"#utility.yul\":3217:3239   */\n      add\n        /* \"#utility.yul\":3196:3249   */\n      tag_45\n      jump\t// in\n    tag_83:\n        /* \"#utility.yul\":3186:3249   */\n      swap2\n      pop\n        /* \"#utility.yul\":3142:3259   */\n      pop\n        /* \"#utility.yul\":2937:3266   */\n      swap3\n      swap2\n      pop\n      pop\n      jump\t// out\n        /* \"#utility.yul\":3272:3390   */\n    tag_46:\n        /* \"#utility.yul\":3359:3383   */\n      tag_85\n        /* \"#utility.yul\":3377:3382   */\n      dup2\n        /* \"#utility.yul\":3359:3383   */\n      tag_35\n      jump\t// in\n    tag_85:\n        /* \"#utility.yul\":3354:3357   */\n      dup3\n        /* \"#utility.yul\":3347:3384   */\n      mstore\n        /* \"#utility.yul\":3272:3390   */\n      pop\n      pop\n      jump\t// out\n        /* \"#utility.yul\":3396:3618   */\n    tag_15:\n        /* \"#utility.yul\":3489:3493   */\n      0x00\n        /* \"#utility.yul\":3527:3529   */\n      0x20\n        /* \"#utility.yul\":3516:3525   */\n      dup3\n        /* \"#utility.yul\":3512:3530   */\n      add\n        /* \"#utility.yul\":3504:3530   */\n      swap1\n      pop\n        /* \"#utility.yul\":3540:3611   */\n      tag_87\n        /* \"#utility.yul\":3608:3609   */\n      0x00\n        /* \"#utility.yul\":3597:3606   */\n      dup4\n        /* \"#utility.yul\":3593:3610   */\n      add\n        /* \"#utility.yul\":3584:3590   */\n      dup5\n        /* \"#utility.yul\":3540:3611   */\n      tag_46\n      jump\t// in\n    tag_87:\n        /* \"#utility.yul\":3396:3618   */\n      swap3\n      swap2\n      pop\n      pop\n      jump\t// out\n        /* \"#utility.yul\":3624:3742   */\n    tag_47:\n        /* \"#utility.yul\":3711:3735   */\n      tag_89\n        /* \"#utility.yul\":3729:3734   */\n      dup2\n        /* \"#utility.yul\":3711:3735   */\n      tag_43\n      jump\t// in\n    tag_89:\n        /* \"#utility.yul\":3706:3709   */\n      dup3\n        /* \"#utility.yul\":3699:3736   */\n      mstore\n        /* \"#utility.yul\":3624:3742   */\n      pop\n      pop\n      jump\t// out\n        /* \"#utility.yul\":3748:4080   */\n    tag_28:\n        /* \"#utility.yul\":3869:3873   */\n      0x00\n        /* \"#utility.yul\":3907:3909   */\n      0x40\n        /* \"#utility.yul\":3896:3905   */\n      dup3\n        /* \"#utility.yul\":3892:3910   */\n      add\n        /* \"#utility.yul\":3884:3910   */\n      swap1\n      pop\n        /* \"#utility.yul\":3920:3991   */\n      tag_91\n        /* \"#utility.yul\":3988:3989   */\n      0x00\n        /* \"#utility.yul\":3977:3986   */\n      dup4\n        /* \"#utility.yul\":3973:3990   */\n      add\n        /* \"#utility.yul\":3964:3970   */\n      dup6\n        /* \"#utility.yul\":3920:3991   */\n      tag_47\n      jump\t// in\n    tag_91:\n        /* \"#utility.yul\":4001:4073   */\n      tag_92\n        /* \"#utility.yul\":4069:4071   */\n      0x20\n        /* \"#utility.yul\":4058:4067   */\n      dup4\n        /* \"#utility.yul\":4054:4072   */\n      add\n        /* \"#utility.yul\":4045:4051   */\n      dup5\n        /* \"#utility.yul\":4001:4073   */\n      tag_46\n      jump\t// in\n    tag_92:\n        /* \"#utility.yul\":3748:4080   */\n      swap4\n      swap3\n      pop\n      pop\n      pop\n      jump\t// out\n    stop\n\n    sub_0: assembly {\n            /* \"Campaign.sol\":1341:7489  contract Campaign {... */\n          mstore(0x40, 0xa0)\n            /* \"Campaign.sol\":3189:3441  constructor(uint256 minimum, address creator) {... */\n          callvalue\n          dup1\n          iszero\n          tag_1\n          jumpi\n          0x00\n          dup1\n          revert\n        tag_1:\n          pop\n          mload(0x40)\n          sub(codesize, bytecodeSize)\n          dup1\n          bytecodeSize\n          dup4\n          codecopy\n          dup2\n          dup2\n          add\n          0x40\n          mstore\n          dup2\n          add\n          swap1\n          tag_2\n          swap2\n          swap1\n          tag_3\n          jump\t// in\n        tag_2:\n            /* \"Campaign.sol\":3386:3393  creator */\n          dup1\n            /* \"Campaign.sol\":3376:3383  manager */\n          0x02\n          0x00\n            /* \"Campaign.sol\":3376:3393  manager = creator */\n          0x0100\n          exp\n          dup2\n          sload\n          dup2\n          0xffffffffffffffffffffffffffffffffffffffff\n          mul\n          not\n          and\n          swap1\n          dup4\n          0xffffffffffffffffffffffffffffffffffffffff\n          and\n          mul\n          or\n          swap1\n          sstore\n          pop\n            /* \"Campaign.sol\":3427:3434  minimum */\n          dup2\n            /* \"Campaign.sol\":3403:3434  i_minimumContribution = minimum */\n          0x80\n          dup2\n          dup2\n          mstore\n          pop\n          pop\n            /* \"Campaign.sol\":3189:3441  constructor(uint256 minimum, address creator) {... */\n          pop\n          pop\n            /* \"Campaign.sol\":1341:7489  contract Campaign {... */\n          jump(tag_6)\n            /* \"#utility.yul\":88:205   */\n        tag_8:\n            /* \"#utility.yul\":197:198   */\n          0x00\n            /* \"#utility.yul\":194:195   */\n          dup1\n            /* \"#utility.yul\":187:199   */\n          revert\n            /* \"#utility.yul\":334:411   */\n        tag_10:\n            /* \"#utility.yul\":371:378   */\n          0x00\n            /* \"#utility.yul\":400:405   */\n          dup2\n            /* \"#utility.yul\":389:405   */\n          swap1\n          pop\n            /* \"#utility.yul\":334:411   */\n          swap2\n          swap1\n          pop\n          jump\t// out\n            /* \"#utility.yul\":417:539   */\n        tag_11:\n            /* \"#utility.yul\":490:514   */\n          tag_23\n            /* \"#utility.yul\":508:513   */\n          dup2\n            /* \"#utility.yul\":490:514   */\n          tag_10\n          jump\t// in\n        tag_23:\n            /* \"#utility.yul\":483:488   */\n          dup2\n            /* \"#utility.yul\":480:515   */\n          eq\n            /* \"#utility.yul\":470:533   */\n          tag_24\n          jumpi\n            /* \"#utility.yul\":529:530   */\n          0x00\n            /* \"#utility.yul\":526:527   */\n          dup1\n            /* \"#utility.yul\":519:531   */\n          revert\n            /* \"#utility.yul\":470:533   */\n        tag_24:\n            /* \"#utility.yul\":417:539   */\n          pop\n          jump\t// out\n            /* \"#utility.yul\":545:688   */\n        tag_12:\n            /* \"#utility.yul\":602:607   */\n          0x00\n            /* \"#utility.yul\":633:639   */\n          dup2\n            /* \"#utility.yul\":627:640   */\n          mload\n            /* \"#utility.yul\":618:640   */\n          swap1\n          pop\n            /* \"#utility.yul\":649:682   */\n          tag_26\n            /* \"#utility.yul\":676:681   */\n          dup2\n            /* \"#utility.yul\":649:682   */\n          tag_11\n          jump\t// in\n        tag_26:\n            /* \"#utility.yul\":545:688   */\n          swap3\n          swap2\n          pop\n          pop\n          jump\t// out\n            /* \"#utility.yul\":694:820   */\n        tag_13:\n            /* \"#utility.yul\":731:738   */\n          0x00\n            /* \"#utility.yul\":771:813   */\n          0xffffffffffffffffffffffffffffffffffffffff\n            /* \"#utility.yul\":764:769   */\n          dup3\n            /* \"#utility.yul\":760:814   */\n          and\n            /* \"#utility.yul\":749:814   */\n          swap1\n          pop\n            /* \"#utility.yul\":694:820   */\n          swap2\n          swap1\n          pop\n          jump\t// out\n            /* \"#utility.yul\":826:922   */\n        tag_14:\n            /* \"#utility.yul\":863:870   */\n          0x00\n            /* \"#utility.yul\":892:916   */\n          tag_29\n            /* \"#utility.yul\":910:915   */\n          dup3\n            /* \"#utility.yul\":892:916   */\n          tag_13\n          jump\t// in\n        tag_29:\n            /* \"#utility.yul\":881:916   */\n          swap1\n          pop\n            /* \"#utility.yul\":826:922   */\n          swap2\n          swap1\n          pop\n          jump\t// out\n            /* \"#utility.yul\":928:1050   */\n        tag_15:\n            /* \"#utility.yul\":1001:1025   */\n          tag_31\n            /* \"#utility.yul\":1019:1024   */\n          dup2\n            /* \"#utility.yul\":1001:1025   */\n          tag_14\n          jump\t// in\n        tag_31:\n            /* \"#utility.yul\":994:999   */\n          dup2\n            /* \"#utility.yul\":991:1026   */\n          eq\n            /* \"#utility.yul\":981:1044   */\n          tag_32\n          jumpi\n            /* \"#utility.yul\":1040:1041   */\n          0x00\n            /* \"#utility.yul\":1037:1038   */\n          dup1\n            /* \"#utility.yul\":1030:1042   */\n          revert\n            /* \"#utility.yul\":981:1044   */\n        tag_32:\n            /* \"#utility.yul\":928:1050   */\n          pop\n          jump\t// out\n            /* \"#utility.yul\":1056:1199   */\n        tag_16:\n            /* \"#utility.yul\":1113:1118   */\n          0x00\n            /* \"#utility.yul\":1144:1150   */\n          dup2\n            /* \"#utility.yul\":1138:1151   */\n          mload\n            /* \"#utility.yul\":1129:1151   */\n          swap1\n          pop\n            /* \"#utility.yul\":1160:1193   */\n          tag_34\n            /* \"#utility.yul\":1187:1192   */\n          dup2\n            /* \"#utility.yul\":1160:1193   */\n          tag_15\n          jump\t// in\n        tag_34:\n            /* \"#utility.yul\":1056:1199   */\n          swap3\n          swap2\n          pop\n          pop\n          jump\t// out\n            /* \"#utility.yul\":1205:1712   */\n        tag_3:\n            /* \"#utility.yul\":1284:1290   */\n          0x00\n            /* \"#utility.yul\":1292:1298   */\n          dup1\n            /* \"#utility.yul\":1341:1343   */\n          0x40\n            /* \"#utility.yul\":1329:1338   */\n          dup4\n            /* \"#utility.yul\":1320:1327   */\n          dup6\n            /* \"#utility.yul\":1316:1339   */\n          sub\n            /* \"#utility.yul\":1312:1344   */\n          slt\n            /* \"#utility.yul\":1309:1428   */\n          iszero\n          tag_36\n          jumpi\n            /* \"#utility.yul\":1347:1426   */\n          tag_37\n          tag_8\n          jump\t// in\n        tag_37:\n            /* \"#utility.yul\":1309:1428   */\n        tag_36:\n            /* \"#utility.yul\":1467:1468   */\n          0x00\n            /* \"#utility.yul\":1492:1556   */\n          tag_38\n            /* \"#utility.yul\":1548:1555   */\n          dup6\n            /* \"#utility.yul\":1539:1545   */\n          dup3\n            /* \"#utility.yul\":1528:1537   */\n          dup7\n            /* \"#utility.yul\":1524:1546   */\n          add\n            /* \"#utility.yul\":1492:1556   */\n          tag_12\n          jump\t// in\n        tag_38:\n            /* \"#utility.yul\":1482:1556   */\n          swap3\n          pop\n            /* \"#utility.yul\":1438:1566   */\n          pop\n            /* \"#utility.yul\":1605:1607   */\n          0x20\n            /* \"#utility.yul\":1631:1695   */\n          tag_39\n            /* \"#utility.yul\":1687:1694   */\n          dup6\n            /* \"#utility.yul\":1678:1684   */\n          dup3\n            /* \"#utility.yul\":1667:1676   */\n          dup7\n            /* \"#utility.yul\":1663:1685   */\n          add\n            /* \"#utility.yul\":1631:1695   */\n          tag_16\n          jump\t// in\n        tag_39:\n            /* \"#utility.yul\":1621:1695   */\n          swap2\n          pop\n            /* \"#utility.yul\":1576:1705   */\n          pop\n            /* \"#utility.yul\":1205:1712   */\n          swap3\n          pop\n          swap3\n          swap1\n          pop\n          jump\t// out\n            /* \"Campaign.sol\":1341:7489  contract Campaign {... */\n        tag_6:\n          mload(0x80)\n          codecopy(0x00, dataOffset(sub_0), dataSize(sub_0))\n          0x00\n          assignImmutable(\"0x63867b8d5e748cf93e24f7b381d92337d037805bfc271d6d67e0e86772662677\")\n          return(0x00, dataSize(sub_0))\n        stop\n\n        sub_0: assembly {\n                /* \"Campaign.sol\":1341:7489  contract Campaign {... */\n              mstore(0x40, 0x80)\n              jumpi(tag_1, lt(calldatasize, 0x04))\n              shr(0xe0, calldataload(0x00))\n              dup1\n              0x9fb42b1f\n              gt\n              tag_12\n              jumpi\n              dup1\n              0x9fb42b1f\n              eq\n              tag_7\n              jumpi\n              dup1\n              0xc58343ef\n              eq\n              tag_8\n              jumpi\n              dup1\n              0xd7bb99ba\n              eq\n              tag_9\n              jumpi\n              dup1\n              0xd7d1bbdb\n              eq\n              tag_10\n              jumpi\n              dup1\n              0xf84038b1\n              eq\n              tag_11\n              jumpi\n              jump(tag_1)\n            tag_12:\n              dup1\n              0x03441006\n              eq\n              tag_2\n              jumpi\n              dup1\n              0x0a144391\n              eq\n              tag_3\n              jumpi\n              dup1\n              0x481c6a75\n              eq\n              tag_4\n              jumpi\n              dup1\n              0x82fde093\n              eq\n              tag_5\n              jumpi\n              dup1\n              0x8a9cfd55\n              eq\n              tag_6\n              jumpi\n            tag_1:\n              0x00\n              dup1\n              revert\n                /* \"Campaign.sol\":5828:6957  function finalizeRequest(uint256 requestIndex) public onlyManager {... */\n            tag_2:\n              callvalue\n              dup1\n              iszero\n              tag_13\n              jumpi\n              0x00\n              dup1\n              revert\n            tag_13:\n              pop\n              tag_14\n              0x04\n              dup1\n              calldatasize\n              sub\n              dup2\n              add\n              swap1\n              tag_15\n              swap2\n              swap1\n              tag_16\n              jump\t// in\n            tag_15:\n              tag_17\n              jump\t// in\n            tag_14:\n              stop\n                /* \"Campaign.sol\":2668:2709  mapping(address => bool) public approvers */\n            tag_3:\n              callvalue\n              dup1\n              iszero\n              tag_18\n              jumpi\n              0x00\n              dup1\n              revert\n            tag_18:\n              pop\n              tag_19\n              0x04\n              dup1\n              calldatasize\n              sub\n              dup2\n              add\n              swap1\n              tag_20\n              swap2\n              swap1\n              tag_21\n              jump\t// in\n            tag_20:\n              tag_22\n              jump\t// in\n            tag_19:\n              mload(0x40)\n              tag_23\n              swap2\n              swap1\n              tag_24\n              jump\t// in\n            tag_23:\n              mload(0x40)\n              dup1\n              swap2\n              sub\n              swap1\n              return\n                /* \"Campaign.sol\":2460:2482  address public manager */\n            tag_4:\n              callvalue\n              dup1\n              iszero\n              tag_25\n              jumpi\n              0x00\n              dup1\n              revert\n            tag_25:\n              pop\n              tag_26\n              tag_27\n              jump\t// in\n            tag_26:\n              mload(0x40)\n              tag_28\n              swap2\n              swap1\n              tag_29\n              jump\t// in\n            tag_28:\n              mload(0x40)\n              dup1\n              swap2\n              sub\n              swap1\n              return\n                /* \"Campaign.sol\":2775:2804  uint256 public approversCount */\n            tag_5:\n              callvalue\n              dup1\n              iszero\n              tag_30\n              jumpi\n              0x00\n              dup1\n              revert\n            tag_30:\n              pop\n              tag_31\n              tag_32\n              jump\t// in\n            tag_31:\n              mload(0x40)\n              tag_33\n              swap2\n              swap1\n              tag_34\n              jump\t// in\n            tag_33:\n              mload(0x40)\n              dup1\n              swap2\n              sub\n              swap1\n              return\n                /* \"Campaign.sol\":3917:4385  function createRequest(... */\n            tag_6:\n              callvalue\n              dup1\n              iszero\n              tag_35\n              jumpi\n              0x00\n              dup1\n              revert\n            tag_35:\n              pop\n              tag_36\n              0x04\n              dup1\n              calldatasize\n              sub\n              dup2\n              add\n              swap1\n              tag_37\n              swap2\n              swap1\n              tag_38\n              jump\t// in\n            tag_37:\n              tag_39\n              jump\t// in\n            tag_36:\n              stop\n                /* \"Campaign.sol\":2303:2329  uint256 public numRequests */\n            tag_7:\n              callvalue\n              dup1\n              iszero\n              tag_40\n              jumpi\n              0x00\n              dup1\n              revert\n            tag_40:\n              pop\n              tag_41\n              tag_42\n              jump\t// in\n            tag_41:\n              mload(0x40)\n              tag_43\n              swap2\n              swap1\n              tag_34\n              jump\t// in\n            tag_43:\n              mload(0x40)\n              dup1\n              swap2\n              sub\n              swap1\n              return\n                /* \"Campaign.sol\":7106:7487  function getRequest(... */\n            tag_8:\n              callvalue\n              dup1\n              iszero\n              tag_44\n              jumpi\n              0x00\n              dup1\n              revert\n            tag_44:\n              pop\n              tag_45\n              0x04\n              dup1\n              calldatasize\n              sub\n              dup2\n              add\n              swap1\n              tag_46\n              swap2\n              swap1\n              tag_16\n              jump\t// in\n            tag_46:\n              tag_47\n              jump\t// in\n            tag_45:\n              mload(0x40)\n              tag_48\n              swap6\n              swap5\n              swap4\n              swap3\n              swap2\n              swap1\n              tag_49\n              jump\t// in\n            tag_48:\n              mload(0x40)\n              dup1\n              swap2\n              sub\n              swap1\n              return\n                /* \"Campaign.sol\":3528:3834  function contribute() public payable {... */\n            tag_9:\n              tag_50\n              tag_51\n              jump\t// in\n            tag_50:\n              stop\n                /* \"Campaign.sol\":4862:5697  function approveRequest(uint256 requestIndex) public {... */\n            tag_10:\n              callvalue\n              dup1\n              iszero\n              tag_52\n              jumpi\n              0x00\n              dup1\n              revert\n            tag_52:\n              pop\n              tag_53\n              0x04\n              dup1\n              calldatasize\n              sub\n              dup2\n              add\n              swap1\n              tag_54\n              swap2\n              swap1\n              tag_16\n              jump\t// in\n            tag_54:\n              tag_55\n              jump\t// in\n            tag_53:\n              stop\n                /* \"Campaign.sol\":6989:7100  function getMinimumContribution() external view returns (uint256) {... */\n            tag_11:\n              callvalue\n              dup1\n              iszero\n              tag_56\n              jumpi\n              0x00\n              dup1\n              revert\n            tag_56:\n              pop\n              tag_57\n              tag_58\n              jump\t// in\n            tag_57:\n              mload(0x40)\n              tag_59\n              swap2\n              swap1\n              tag_34\n              jump\t// in\n            tag_59:\n              mload(0x40)\n              dup1\n              swap2\n              sub\n              swap1\n              return\n                /* \"Campaign.sol\":5828:6957  function finalizeRequest(uint256 requestIndex) public onlyManager {... */\n            tag_17:\n                /* \"Campaign.sol\":2992:2999  manager */\n              0x02\n              0x00\n              swap1\n              sload\n              swap1\n              0x0100\n              exp\n              swap1\n              div\n              0xffffffffffffffffffffffffffffffffffffffff\n              and\n                /* \"Campaign.sol\":2978:2999  msg.sender == manager */\n              0xffffffffffffffffffffffffffffffffffffffff\n              and\n                /* \"Campaign.sol\":2978:2988  msg.sender */\n              caller\n                /* \"Campaign.sol\":2978:2999  msg.sender == manager */\n              0xffffffffffffffffffffffffffffffffffffffff\n              and\n              eq\n                /* \"Campaign.sol\":2970:3040  require(msg.sender == manager, \"Only manager can call this function.\") */\n              tag_61\n              jumpi\n              mload(0x40)\n              0x08c379a000000000000000000000000000000000000000000000000000000000\n              dup2\n              mstore\n              0x04\n              add\n              tag_62\n              swap1\n              tag_63\n              jump\t// in\n            tag_62:\n              mload(0x40)\n              dup1\n              swap2\n              sub\n              swap1\n              revert\n            tag_61:\n                /* \"Campaign.sol\":5984:6007  Request storage request */\n              0x00\n                /* \"Campaign.sol\":6010:6018  requests */\n              0x01\n                /* \"Campaign.sol\":6010:6032  requests[requestIndex] */\n              0x00\n                /* \"Campaign.sol\":6019:6031  requestIndex */\n              dup4\n                /* \"Campaign.sol\":6010:6032  requests[requestIndex] */\n              dup2\n              mstore\n              0x20\n              add\n              swap1\n              dup2\n              mstore\n              0x20\n              add\n              0x00\n              keccak256\n                /* \"Campaign.sol\":5984:6032  Request storage request = requests[requestIndex] */\n              swap1\n              pop\n                /* \"Campaign.sol\":6108:6115  request */\n              dup1\n                /* \"Campaign.sol\":6108:6124  request.complete */\n              0x02\n              add\n              0x14\n              swap1\n              sload\n              swap1\n              0x0100\n              exp\n              swap1\n              div\n              0xff\n              and\n                /* \"Campaign.sol\":6104:6196  if (request.complete) {... */\n              iszero\n              tag_65\n              jumpi\n                /* \"Campaign.sol\":6147:6185  Campaign__RequestWasAlreadyFinalized() */\n              mload(0x40)\n              0xbef8947700000000000000000000000000000000000000000000000000000000\n              dup2\n              mstore\n              0x04\n              add\n              mload(0x40)\n              dup1\n              swap2\n              sub\n              swap1\n              revert\n                /* \"Campaign.sol\":6104:6196  if (request.complete) {... */\n            tag_65:\n                /* \"Campaign.sol\":6391:6392  2 */\n              0x02\n                /* \"Campaign.sol\":6374:6388  approversCount */\n              sload(0x04)\n                /* \"Campaign.sol\":6374:6392  approversCount / 2 */\n              tag_66\n              swap2\n              swap1\n              tag_67\n              jump\t// in\n            tag_66:\n                /* \"Campaign.sol\":6349:6356  request */\n              dup2\n                /* \"Campaign.sol\":6349:6370  request.approvalCount */\n              0x03\n              add\n              sload\n                /* \"Campaign.sol\":6349:6393  request.approvalCount > (approversCount / 2) */\n              gt\n                /* \"Campaign.sol\":6343:6484  if (!(request.approvalCount > (approversCount / 2))) {... */\n              tag_68\n              jumpi\n                /* \"Campaign.sol\":6417:6473  Campaign__RequestCanNotBeFinalizedAsNotEnoughApprovers() */\n              mload(0x40)\n              0xe3de2eb600000000000000000000000000000000000000000000000000000000\n              dup2\n              mstore\n              0x04\n              add\n              mload(0x40)\n              dup1\n              swap2\n              sub\n              swap1\n              revert\n                /* \"Campaign.sol\":6343:6484  if (!(request.approvalCount > (approversCount / 2))) {... */\n            tag_68:\n                /* \"Campaign.sol\":6684:6700  bool callSuccess */\n              0x00\n                /* \"Campaign.sol\":6757:6764  request */\n              dup2\n                /* \"Campaign.sol\":6757:6781  request.requestRecipient */\n              0x02\n              add\n              0x00\n              swap1\n              sload\n              swap1\n              0x0100\n              exp\n              swap1\n              div\n              0xffffffffffffffffffffffffffffffffffffffff\n              and\n                /* \"Campaign.sol\":6736:6796  payable(... */\n              0xffffffffffffffffffffffffffffffffffffffff\n              and\n                /* \"Campaign.sol\":6804:6811  request */\n              dup3\n                /* \"Campaign.sol\":6804:6824  request.requestValue */\n              0x01\n              add\n              sload\n                /* \"Campaign.sol\":6736:6829  payable(... */\n              mload(0x40)\n              tag_69\n              swap1\n              tag_70\n              jump\t// in\n            tag_69:\n              0x00\n              mload(0x40)\n              dup1\n              dup4\n              sub\n              dup2\n              dup6\n              dup8\n              gas\n              call\n              swap3\n              pop\n              pop\n              pop\n              returndatasize\n              dup1\n              0x00\n              dup2\n              eq\n              tag_73\n              jumpi\n              mload(0x40)\n              swap2\n              pop\n              and(add(returndatasize, 0x3f), not(0x1f))\n              dup3\n              add\n              0x40\n              mstore\n              returndatasize\n              dup3\n              mstore\n              returndatasize\n              0x00\n              0x20\n              dup5\n              add\n              returndatacopy\n              jump(tag_72)\n            tag_73:\n              0x60\n              swap2\n              pop\n            tag_72:\n              pop\n                /* \"Campaign.sol\":6683:6829  (bool callSuccess /*bytes memory dataReturned*/, ) = payable(... */\n              pop\n              swap1\n              pop\n                /* \"Campaign.sol\":6847:6858  callSuccess */\n              dup1\n                /* \"Campaign.sol\":6839:6875  require(callSuccess, \"Call failed.\") */\n              tag_74\n              jumpi\n              mload(0x40)\n              0x08c379a000000000000000000000000000000000000000000000000000000000\n              dup2\n              mstore\n              0x04\n              add\n              tag_75\n              swap1\n              tag_76\n              jump\t// in\n            tag_75:\n              mload(0x40)\n              dup1\n              swap2\n              sub\n              swap1\n              revert\n            tag_74:\n                /* \"Campaign.sol\":6946:6950  true */\n              0x01\n                /* \"Campaign.sol\":6927:6934  request */\n              dup3\n                /* \"Campaign.sol\":6927:6943  request.complete */\n              0x02\n              add\n              0x14\n                /* \"Campaign.sol\":6927:6950  request.complete = true */\n              0x0100\n              exp\n              dup2\n              sload\n              dup2\n              0xff\n              mul\n              not\n              and\n              swap1\n              dup4\n              iszero\n              iszero\n              mul\n              or\n              swap1\n              sstore\n              pop\n                /* \"Campaign.sol\":5894:6957  {... */\n              pop\n              pop\n                /* \"Campaign.sol\":5828:6957  function finalizeRequest(uint256 requestIndex) public onlyManager {... */\n              pop\n              jump\t// out\n                /* \"Campaign.sol\":2668:2709  mapping(address => bool) public approvers */\n            tag_22:\n              mstore(0x20, 0x03)\n              dup1\n              0x00\n              mstore\n              keccak256(0x00, 0x40)\n              0x00\n              swap2\n              pop\n              sload\n              swap1\n              0x0100\n              exp\n              swap1\n              div\n              0xff\n              and\n              dup2\n              jump\t// out\n                /* \"Campaign.sol\":2460:2482  address public manager */\n            tag_27:\n              0x02\n              0x00\n              swap1\n              sload\n              swap1\n              0x0100\n              exp\n              swap1\n              div\n              0xffffffffffffffffffffffffffffffffffffffff\n              and\n              dup2\n              jump\t// out\n                /* \"Campaign.sol\":2775:2804  uint256 public approversCount */\n            tag_32:\n              sload(0x04)\n              dup2\n              jump\t// out\n                /* \"Campaign.sol\":3917:4385  function createRequest(... */\n            tag_39:\n                /* \"Campaign.sol\":2992:2999  manager */\n              0x02\n              0x00\n              swap1\n              sload\n              swap1\n              0x0100\n              exp\n              swap1\n              div\n              0xffffffffffffffffffffffffffffffffffffffff\n              and\n                /* \"Campaign.sol\":2978:2999  msg.sender == manager */\n              0xffffffffffffffffffffffffffffffffffffffff\n              and\n                /* \"Campaign.sol\":2978:2988  msg.sender */\n              caller\n                /* \"Campaign.sol\":2978:2999  msg.sender == manager */\n              0xffffffffffffffffffffffffffffffffffffffff\n              and\n              eq\n                /* \"Campaign.sol\":2970:3040  require(msg.sender == manager, \"Only manager can call this function.\") */\n              tag_78\n              jumpi\n              mload(0x40)\n              0x08c379a000000000000000000000000000000000000000000000000000000000\n              dup2\n              mstore\n              0x04\n              add\n              tag_79\n              swap1\n              tag_63\n              jump\t// in\n            tag_79:\n              mload(0x40)\n              dup1\n              swap2\n              sub\n              swap1\n              revert\n            tag_78:\n                /* \"Campaign.sol\":4084:4110  Request storage newRequest */\n              0x00\n                /* \"Campaign.sol\":4113:4121  requests */\n              0x01\n                /* \"Campaign.sol\":4113:4136  requests[numRequests++] */\n              0x00\n                /* \"Campaign.sol\":4122:4133  numRequests */\n              dup1\n              0x00\n                /* \"Campaign.sol\":4122:4135  numRequests++ */\n              dup2\n              sload\n              dup1\n              swap3\n              swap2\n              swap1\n              tag_81\n              swap1\n              tag_82\n              jump\t// in\n            tag_81:\n              swap2\n              swap1\n              pop\n              sstore\n                /* \"Campaign.sol\":4113:4136  requests[numRequests++] */\n              dup2\n              mstore\n              0x20\n              add\n              swap1\n              dup2\n              mstore\n              0x20\n              add\n              0x00\n              keccak256\n                /* \"Campaign.sol\":4084:4136  Request storage newRequest = requests[numRequests++] */\n              swap1\n              pop\n                /* \"Campaign.sol\":4178:4197  _requestDescription */\n              dup4\n                /* \"Campaign.sol\":4146:4156  newRequest */\n              dup2\n                /* \"Campaign.sol\":4146:4175  newRequest.requestDescription */\n              0x00\n              add\n                /* \"Campaign.sol\":4146:4197  newRequest.requestDescription = _requestDescription */\n              swap1\n              dup2\n              tag_83\n              swap2\n              swap1\n              tag_84\n              jump\t// in\n            tag_83:\n              pop\n                /* \"Campaign.sol\":4233:4246  _requestValue */\n              dup3\n                /* \"Campaign.sol\":4207:4217  newRequest */\n              dup2\n                /* \"Campaign.sol\":4207:4230  newRequest.requestValue */\n              0x01\n              add\n                /* \"Campaign.sol\":4207:4246  newRequest.requestValue = _requestValue */\n              dup2\n              swap1\n              sstore\n              pop\n                /* \"Campaign.sol\":4286:4303  _requestRecipient */\n              dup2\n                /* \"Campaign.sol\":4256:4266  newRequest */\n              dup2\n                /* \"Campaign.sol\":4256:4283  newRequest.requestRecipient */\n              0x02\n              add\n              0x00\n                /* \"Campaign.sol\":4256:4303  newRequest.requestRecipient = _requestRecipient */\n              0x0100\n              exp\n              dup2\n              sload\n              dup2\n              0xffffffffffffffffffffffffffffffffffffffff\n              mul\n              not\n              and\n              swap1\n              dup4\n              0xffffffffffffffffffffffffffffffffffffffff\n              and\n              mul\n              or\n              swap1\n              sstore\n              pop\n                /* \"Campaign.sol\":4335:4340  false */\n              0x00\n                /* \"Campaign.sol\":4313:4323  newRequest */\n              dup2\n                /* \"Campaign.sol\":4313:4332  newRequest.complete */\n              0x02\n              add\n              0x14\n                /* \"Campaign.sol\":4313:4340  newRequest.complete = false */\n              0x0100\n              exp\n              dup2\n              sload\n              dup2\n              0xff\n              mul\n              not\n              and\n              swap1\n              dup4\n              iszero\n              iszero\n              mul\n              or\n              swap1\n              sstore\n              pop\n                /* \"Campaign.sol\":4377:4378  0 */\n              0x00\n                /* \"Campaign.sol\":4350:4360  newRequest */\n              dup2\n                /* \"Campaign.sol\":4350:4374  newRequest.approvalCount */\n              0x03\n              add\n                /* \"Campaign.sol\":4350:4378  newRequest.approvalCount = 0 */\n              dup2\n              swap1\n              sstore\n              pop\n                /* \"Campaign.sol\":4074:4385  {... */\n              pop\n                /* \"Campaign.sol\":3917:4385  function createRequest(... */\n              pop\n              pop\n              pop\n              jump\t// out\n                /* \"Campaign.sol\":2303:2329  uint256 public numRequests */\n            tag_42:\n              sload(0x00)\n              dup2\n              jump\t// out\n                /* \"Campaign.sol\":7106:7487  function getRequest(... */\n            tag_47:\n                /* \"Campaign.sol\":7176:7189  string memory */\n              0x60\n                /* \"Campaign.sol\":7191:7198  uint256 */\n              0x00\n                /* \"Campaign.sol\":7200:7207  address */\n              dup1\n                /* \"Campaign.sol\":7209:7213  bool */\n              0x00\n                /* \"Campaign.sol\":7215:7222  uint256 */\n              dup1\n                /* \"Campaign.sol\":7234:7257  Request storage request */\n              0x00\n                /* \"Campaign.sol\":7260:7268  requests */\n              0x01\n                /* \"Campaign.sol\":7260:7275  requests[index] */\n              0x00\n                /* \"Campaign.sol\":7269:7274  index */\n              dup9\n                /* \"Campaign.sol\":7260:7275  requests[index] */\n              dup2\n              mstore\n              0x20\n              add\n              swap1\n              dup2\n              mstore\n              0x20\n              add\n              0x00\n              keccak256\n                /* \"Campaign.sol\":7234:7275  Request storage request = requests[index] */\n              swap1\n              pop\n                /* \"Campaign.sol\":7307:7314  request */\n              dup1\n                /* \"Campaign.sol\":7307:7333  request.requestDescription */\n              0x00\n              add\n                /* \"Campaign.sol\":7347:7354  request */\n              dup2\n                /* \"Campaign.sol\":7347:7367  request.requestValue */\n              0x01\n              add\n              sload\n                /* \"Campaign.sol\":7381:7388  request */\n              dup3\n                /* \"Campaign.sol\":7381:7405  request.requestRecipient */\n              0x02\n              add\n              0x00\n              swap1\n              sload\n              swap1\n              0x0100\n              exp\n              swap1\n              div\n              0xffffffffffffffffffffffffffffffffffffffff\n              and\n                /* \"Campaign.sol\":7419:7426  request */\n              dup4\n                /* \"Campaign.sol\":7419:7435  request.complete */\n              0x02\n              add\n              0x14\n              swap1\n              sload\n              swap1\n              0x0100\n              exp\n              swap1\n              div\n              0xff\n              and\n                /* \"Campaign.sol\":7449:7456  request */\n              dup5\n                /* \"Campaign.sol\":7449:7470  request.approvalCount */\n              0x03\n              add\n              sload\n                /* \"Campaign.sol\":7286:7480  return (... */\n              dup5\n              dup1\n              sload\n              tag_86\n              swap1\n              tag_87\n              jump\t// in\n            tag_86:\n              dup1\n              0x1f\n              add\n              0x20\n              dup1\n              swap2\n              div\n              mul\n              0x20\n              add\n              mload(0x40)\n              swap1\n              dup2\n              add\n              0x40\n              mstore\n              dup1\n              swap3\n              swap2\n              swap1\n              dup2\n              dup2\n              mstore\n              0x20\n              add\n              dup3\n              dup1\n              sload\n              tag_88\n              swap1\n              tag_87\n              jump\t// in\n            tag_88:\n              dup1\n              iszero\n              tag_89\n              jumpi\n              dup1\n              0x1f\n              lt\n              tag_90\n              jumpi\n              0x0100\n              dup1\n              dup4\n              sload\n              div\n              mul\n              dup4\n              mstore\n              swap2\n              0x20\n              add\n              swap2\n              jump(tag_89)\n            tag_90:\n              dup3\n              add\n              swap2\n              swap1\n              0x00\n              mstore\n              keccak256(0x00, 0x20)\n              swap1\n            tag_91:\n              dup2\n              sload\n              dup2\n              mstore\n              swap1\n              0x01\n              add\n              swap1\n              0x20\n              add\n              dup1\n              dup4\n              gt\n              tag_91\n              jumpi\n              dup3\n              swap1\n              sub\n              0x1f\n              and\n              dup3\n              add\n              swap2\n            tag_89:\n              pop\n              pop\n              pop\n              pop\n              pop\n              swap5\n              pop\n              swap6\n              pop\n              swap6\n              pop\n              swap6\n              pop\n              swap6\n              pop\n              swap6\n              pop\n              pop\n                /* \"Campaign.sol\":7106:7487  function getRequest(... */\n              swap2\n              swap4\n              swap6\n              swap1\n              swap3\n              swap5\n              pop\n              jump\t// out\n                /* \"Campaign.sol\":3528:3834  function contribute() public payable {... */\n            tag_51:\n                /* \"Campaign.sol\":3591:3612  i_minimumContribution */\n              immutable(\"0x63867b8d5e748cf93e24f7b381d92337d037805bfc271d6d67e0e86772662677\")\n                /* \"Campaign.sol\":3579:3588  msg.value */\n              callvalue\n                /* \"Campaign.sol\":3579:3612  msg.value < i_minimumContribution */\n              lt\n                /* \"Campaign.sol\":3575:3674  if (msg.value < i_minimumContribution) {... */\n              iszero\n              tag_93\n              jumpi\n                /* \"Campaign.sol\":3635:3663  Campaign__NotEnoughEthSent() */\n              mload(0x40)\n              0x6f506f0700000000000000000000000000000000000000000000000000000000\n              dup2\n              mstore\n              0x04\n              add\n              mload(0x40)\n              dup1\n              swap2\n              sub\n              swap1\n              revert\n                /* \"Campaign.sol\":3575:3674  if (msg.value < i_minimumContribution) {... */\n            tag_93:\n                /* \"Campaign.sol\":3745:3749  true */\n              0x01\n                /* \"Campaign.sol\":3721:3730  approvers */\n              0x03\n                /* \"Campaign.sol\":3721:3742  approvers[msg.sender] */\n              0x00\n                /* \"Campaign.sol\":3731:3741  msg.sender */\n              caller\n                /* \"Campaign.sol\":3721:3742  approvers[msg.sender] */\n              0xffffffffffffffffffffffffffffffffffffffff\n              and\n              0xffffffffffffffffffffffffffffffffffffffff\n              and\n              dup2\n              mstore\n              0x20\n              add\n              swap1\n              dup2\n              mstore\n              0x20\n              add\n              0x00\n              keccak256\n              0x00\n                /* \"Campaign.sol\":3721:3749  approvers[msg.sender] = true */\n              0x0100\n              exp\n              dup2\n              sload\n              dup2\n              0xff\n              mul\n              not\n              and\n              swap1\n              dup4\n              iszero\n              iszero\n              mul\n              or\n              swap1\n              sstore\n              pop\n                /* \"Campaign.sol\":3811:3825  approversCount */\n              0x04\n              0x00\n                /* \"Campaign.sol\":3811:3827  approversCount++ */\n              dup2\n              sload\n              dup1\n              swap3\n              swap2\n              swap1\n              tag_94\n              swap1\n              tag_82\n              jump\t// in\n            tag_94:\n              swap2\n              swap1\n              pop\n              sstore\n              pop\n                /* \"Campaign.sol\":3528:3834  function contribute() public payable {... */\n              jump\t// out\n                /* \"Campaign.sol\":4862:5697  function approveRequest(uint256 requestIndex) public {... */\n            tag_55:\n                /* \"Campaign.sol\":5005:5028  Request storage request */\n              0x00\n                /* \"Campaign.sol\":5031:5039  requests */\n              0x01\n                /* \"Campaign.sol\":5031:5053  requests[requestIndex] */\n              0x00\n                /* \"Campaign.sol\":5040:5052  requestIndex */\n              dup4\n                /* \"Campaign.sol\":5031:5053  requests[requestIndex] */\n              dup2\n              mstore\n              0x20\n              add\n              swap1\n              dup2\n              mstore\n              0x20\n              add\n              0x00\n              keccak256\n                /* \"Campaign.sol\":5005:5053  Request storage request = requests[requestIndex] */\n              swap1\n              pop\n                /* \"Campaign.sol\":5179:5188  approvers */\n              0x03\n                /* \"Campaign.sol\":5179:5200  approvers[msg.sender] */\n              0x00\n                /* \"Campaign.sol\":5189:5199  msg.sender */\n              caller\n                /* \"Campaign.sol\":5179:5200  approvers[msg.sender] */\n              0xffffffffffffffffffffffffffffffffffffffff\n              and\n              0xffffffffffffffffffffffffffffffffffffffff\n              and\n              dup2\n              mstore\n              0x20\n              add\n              swap1\n              dup2\n              mstore\n              0x20\n              add\n              0x00\n              keccak256\n              0x00\n              swap1\n              sload\n              swap1\n              0x0100\n              exp\n              swap1\n              div\n              0xff\n              and\n                /* \"Campaign.sol\":5174:5270  if (!approvers[msg.sender]) {... */\n              tag_96\n              jumpi\n                /* \"Campaign.sol\":5223:5259  Campaign__ApproverIsNotContributor() */\n              mload(0x40)\n              0x2e4557c200000000000000000000000000000000000000000000000000000000\n              dup2\n              mstore\n              0x04\n              add\n              mload(0x40)\n              dup1\n              swap2\n              sub\n              swap1\n              revert\n                /* \"Campaign.sol\":5174:5270  if (!approvers[msg.sender]) {... */\n            tag_96:\n                /* \"Campaign.sol\":5381:5388  request */\n              dup1\n                /* \"Campaign.sol\":5381:5398  request.approvals */\n              0x04\n              add\n                /* \"Campaign.sol\":5381:5410  request.approvals[msg.sender] */\n              0x00\n                /* \"Campaign.sol\":5399:5409  msg.sender */\n              caller\n                /* \"Campaign.sol\":5381:5410  request.approvals[msg.sender] */\n              0xffffffffffffffffffffffffffffffffffffffff\n              and\n              0xffffffffffffffffffffffffffffffffffffffff\n              and\n              dup2\n              mstore\n              0x20\n              add\n              swap1\n              dup2\n              mstore\n              0x20\n              add\n              0x00\n              keccak256\n              0x00\n              swap1\n              sload\n              swap1\n              0x0100\n              exp\n              swap1\n              div\n              0xff\n              and\n                /* \"Campaign.sol\":5377:5490  if (request.approvals[msg.sender]) {... */\n              iszero\n              tag_97\n              jumpi\n                /* \"Campaign.sol\":5433:5479  Campaign__ApproverAlreadyVotedForThisRequest() */\n              mload(0x40)\n              0x72e3d32300000000000000000000000000000000000000000000000000000000\n              dup2\n              mstore\n              0x04\n              add\n              mload(0x40)\n              dup1\n              swap2\n              sub\n              swap1\n              revert\n                /* \"Campaign.sol\":5377:5490  if (request.approvals[msg.sender]) {... */\n            tag_97:\n                /* \"Campaign.sol\":5653:5657  true */\n              0x01\n                /* \"Campaign.sol\":5621:5628  request */\n              dup2\n                /* \"Campaign.sol\":5621:5638  request.approvals */\n              0x04\n              add\n                /* \"Campaign.sol\":5621:5650  request.approvals[msg.sender] */\n              0x00\n                /* \"Campaign.sol\":5639:5649  msg.sender */\n              caller\n                /* \"Campaign.sol\":5621:5650  request.approvals[msg.sender] */\n              0xffffffffffffffffffffffffffffffffffffffff\n              and\n              0xffffffffffffffffffffffffffffffffffffffff\n              and\n              dup2\n              mstore\n              0x20\n              add\n              swap1\n              dup2\n              mstore\n              0x20\n              add\n              0x00\n              keccak256\n              0x00\n                /* \"Campaign.sol\":5621:5657  request.approvals[msg.sender] = true */\n              0x0100\n              exp\n              dup2\n              sload\n              dup2\n              0xff\n              mul\n              not\n              and\n              swap1\n              dup4\n              iszero\n              iszero\n              mul\n              or\n              swap1\n              sstore\n              pop\n                /* \"Campaign.sol\":5667:5674  request */\n              dup1\n                /* \"Campaign.sol\":5667:5688  request.approvalCount */\n              0x03\n              add\n              0x00\n                /* \"Campaign.sol\":5667:5690  request.approvalCount++ */\n              dup2\n              sload\n              dup1\n              swap3\n              swap2\n              swap1\n              tag_98\n              swap1\n              tag_82\n              jump\t// in\n            tag_98:\n              swap2\n              swap1\n              pop\n              sstore\n              pop\n                /* \"Campaign.sol\":4915:5697  {... */\n              pop\n                /* \"Campaign.sol\":4862:5697  function approveRequest(uint256 requestIndex) public {... */\n              pop\n              jump\t// out\n                /* \"Campaign.sol\":6989:7100  function getMinimumContribution() external view returns (uint256) {... */\n            tag_58:\n                /* \"Campaign.sol\":7046:7053  uint256 */\n              0x00\n                /* \"Campaign.sol\":7072:7093  i_minimumContribution */\n              immutable(\"0x63867b8d5e748cf93e24f7b381d92337d037805bfc271d6d67e0e86772662677\")\n                /* \"Campaign.sol\":7065:7093  return i_minimumContribution */\n              swap1\n              pop\n                /* \"Campaign.sol\":6989:7100  function getMinimumContribution() external view returns (uint256) {... */\n              swap1\n              jump\t// out\n                /* \"#utility.yul\":7:82   */\n            tag_100:\n                /* \"#utility.yul\":40:46   */\n              0x00\n                /* \"#utility.yul\":73:75   */\n              0x40\n                /* \"#utility.yul\":67:76   */\n              mload\n                /* \"#utility.yul\":57:76   */\n              swap1\n              pop\n                /* \"#utility.yul\":7:82   */\n              swap1\n              jump\t// out\n                /* \"#utility.yul\":88:205   */\n            tag_101:\n                /* \"#utility.yul\":197:198   */\n              0x00\n                /* \"#utility.yul\":194:195   */\n              dup1\n                /* \"#utility.yul\":187:199   */\n              revert\n                /* \"#utility.yul\":211:328   */\n            tag_102:\n                /* \"#utility.yul\":320:321   */\n              0x00\n                /* \"#utility.yul\":317:318   */\n              dup1\n                /* \"#utility.yul\":310:322   */\n              revert\n                /* \"#utility.yul\":334:411   */\n            tag_103:\n                /* \"#utility.yul\":371:378   */\n              0x00\n                /* \"#utility.yul\":400:405   */\n              dup2\n                /* \"#utility.yul\":389:405   */\n              swap1\n              pop\n                /* \"#utility.yul\":334:411   */\n              swap2\n              swap1\n              pop\n              jump\t// out\n                /* \"#utility.yul\":417:539   */\n            tag_104:\n                /* \"#utility.yul\":490:514   */\n              tag_159\n                /* \"#utility.yul\":508:513   */\n              dup2\n                /* \"#utility.yul\":490:514   */\n              tag_103\n              jump\t// in\n            tag_159:\n                /* \"#utility.yul\":483:488   */\n              dup2\n                /* \"#utility.yul\":480:515   */\n              eq\n                /* \"#utility.yul\":470:533   */\n              tag_160\n              jumpi\n                /* \"#utility.yul\":529:530   */\n              0x00\n                /* \"#utility.yul\":526:527   */\n              dup1\n                /* \"#utility.yul\":519:531   */\n              revert\n                /* \"#utility.yul\":470:533   */\n            tag_160:\n                /* \"#utility.yul\":417:539   */\n              pop\n              jump\t// out\n                /* \"#utility.yul\":545:684   */\n            tag_105:\n                /* \"#utility.yul\":591:596   */\n              0x00\n                /* \"#utility.yul\":629:635   */\n              dup2\n                /* \"#utility.yul\":616:636   */\n              calldataload\n                /* \"#utility.yul\":607:636   */\n              swap1\n              pop\n                /* \"#utility.yul\":645:678   */\n              tag_162\n                /* \"#utility.yul\":672:677   */\n              dup2\n                /* \"#utility.yul\":645:678   */\n              tag_104\n              jump\t// in\n            tag_162:\n                /* \"#utility.yul\":545:684   */\n              swap3\n              swap2\n              pop\n              pop\n              jump\t// out\n                /* \"#utility.yul\":690:1019   */\n            tag_16:\n                /* \"#utility.yul\":749:755   */\n              0x00\n                /* \"#utility.yul\":798:800   */\n              0x20\n                /* \"#utility.yul\":786:795   */\n              dup3\n                /* \"#utility.yul\":777:784   */\n              dup5\n                /* \"#utility.yul\":773:796   */\n              sub\n                /* \"#utility.yul\":769:801   */\n              slt\n                /* \"#utility.yul\":766:885   */\n              iszero\n              tag_164\n              jumpi\n                /* \"#utility.yul\":804:883   */\n              tag_165\n              tag_101\n              jump\t// in\n            tag_165:\n                /* \"#utility.yul\":766:885   */\n            tag_164:\n                /* \"#utility.yul\":924:925   */\n              0x00\n                /* \"#utility.yul\":949:1002   */\n              tag_166\n                /* \"#utility.yul\":994:1001   */\n              dup5\n                /* \"#utility.yul\":985:991   */\n              dup3\n                /* \"#utility.yul\":974:983   */\n              dup6\n                /* \"#utility.yul\":970:992   */\n              add\n                /* \"#utility.yul\":949:1002   */\n              tag_105\n              jump\t// in\n            tag_166:\n                /* \"#utility.yul\":939:1002   */\n              swap2\n              pop\n                /* \"#utility.yul\":895:1012   */\n              pop\n                /* \"#utility.yul\":690:1019   */\n              swap3\n              swap2\n              pop\n              pop\n              jump\t// out\n                /* \"#utility.yul\":1025:1151   */\n            tag_106:\n                /* \"#utility.yul\":1062:1069   */\n              0x00\n                /* \"#utility.yul\":1102:1144   */\n              0xffffffffffffffffffffffffffffffffffffffff\n                /* \"#utility.yul\":1095:1100   */\n              dup3\n                /* \"#utility.yul\":1091:1145   */\n              and\n                /* \"#utility.yul\":1080:1145   */\n              swap1\n              pop\n                /* \"#utility.yul\":1025:1151   */\n              swap2\n              swap1\n              pop\n              jump\t// out\n                /* \"#utility.yul\":1157:1253   */\n            tag_107:\n                /* \"#utility.yul\":1194:1201   */\n              0x00\n                /* \"#utility.yul\":1223:1247   */\n              tag_169\n                /* \"#utility.yul\":1241:1246   */\n              dup3\n                /* \"#utility.yul\":1223:1247   */\n              tag_106\n              jump\t// in\n            tag_169:\n                /* \"#utility.yul\":1212:1247   */\n              swap1\n              pop\n                /* \"#utility.yul\":1157:1253   */\n              swap2\n              swap1\n              pop\n              jump\t// out\n                /* \"#utility.yul\":1259:1381   */\n            tag_108:\n                /* \"#utility.yul\":1332:1356   */\n              tag_171\n                /* \"#utility.yul\":1350:1355   */\n              dup2\n                /* \"#utility.yul\":1332:1356   */\n              tag_107\n              jump\t// in\n            tag_171:\n                /* \"#utility.yul\":1325:1330   */\n              dup2\n                /* \"#utility.yul\":1322:1357   */\n              eq\n                /* \"#utility.yul\":1312:1375   */\n              tag_172\n              jumpi\n                /* \"#utility.yul\":1371:1372   */\n              0x00\n                /* \"#utility.yul\":1368:1369   */\n              dup1\n                /* \"#utility.yul\":1361:1373   */\n              revert\n                /* \"#utility.yul\":1312:1375   */\n            tag_172:\n                /* \"#utility.yul\":1259:1381   */\n              pop\n              jump\t// out\n                /* \"#utility.yul\":1387:1526   */\n            tag_109:\n                /* \"#utility.yul\":1433:1438   */\n              0x00\n                /* \"#utility.yul\":1471:1477   */\n              dup2\n                /* \"#utility.yul\":1458:1478   */\n              calldataload\n                /* \"#utility.yul\":1449:1478   */\n              swap1\n              pop\n                /* \"#utility.yul\":1487:1520   */\n              tag_174\n                /* \"#utility.yul\":1514:1519   */\n              dup2\n                /* \"#utility.yul\":1487:1520   */\n              tag_108\n              jump\t// in\n            tag_174:\n                /* \"#utility.yul\":1387:1526   */\n              swap3\n              swap2\n              pop\n              pop\n              jump\t// out\n                /* \"#utility.yul\":1532:1861   */\n            tag_21:\n                /* \"#utility.yul\":1591:1597   */\n              0x00\n                /* \"#utility.yul\":1640:1642   */\n              0x20\n                /* \"#utility.yul\":1628:1637   */\n              dup3\n                /* \"#utility.yul\":1619:1626   */\n              dup5\n                /* \"#utility.yul\":1615:1638   */\n              sub\n                /* \"#utility.yul\":1611:1643   */\n              slt\n                /* \"#utility.yul\":1608:1727   */\n              iszero\n              tag_176\n              jumpi\n                /* \"#utility.yul\":1646:1725   */\n              tag_177\n              tag_101\n              jump\t// in\n            tag_177:\n                /* \"#utility.yul\":1608:1727   */\n            tag_176:\n                /* \"#utility.yul\":1766:1767   */\n              0x00\n                /* \"#utility.yul\":1791:1844   */\n              tag_178\n                /* \"#utility.yul\":1836:1843   */\n              dup5\n                /* \"#utility.yul\":1827:1833   */\n              dup3\n                /* \"#utility.yul\":1816:1825   */\n              dup6\n                /* \"#utility.yul\":1812:1834   */\n              add\n                /* \"#utility.yul\":1791:1844   */\n              tag_109\n              jump\t// in\n            tag_178:\n                /* \"#utility.yul\":1781:1844   */\n              swap2\n              pop\n                /* \"#utility.yul\":1737:1854   */\n              pop\n                /* \"#utility.yul\":1532:1861   */\n              swap3\n              swap2\n              pop\n              pop\n              jump\t// out\n                /* \"#utility.yul\":1867:1957   */\n            tag_110:\n                /* \"#utility.yul\":1901:1908   */\n              0x00\n                /* \"#utility.yul\":1944:1949   */\n              dup2\n                /* \"#utility.yul\":1937:1950   */\n              iszero\n                /* \"#utility.yul\":1930:1951   */\n              iszero\n                /* \"#utility.yul\":1919:1951   */\n              swap1\n              pop\n                /* \"#utility.yul\":1867:1957   */\n              swap2\n              swap1\n              pop\n              jump\t// out\n                /* \"#utility.yul\":1963:2072   */\n            tag_111:\n                /* \"#utility.yul\":2044:2065   */\n              tag_181\n                /* \"#utility.yul\":2059:2064   */\n              dup2\n                /* \"#utility.yul\":2044:2065   */\n              tag_110\n              jump\t// in\n            tag_181:\n                /* \"#utility.yul\":2039:2042   */\n              dup3\n                /* \"#utility.yul\":2032:2066   */\n              mstore\n                /* \"#utility.yul\":1963:2072   */\n              pop\n              pop\n              jump\t// out\n                /* \"#utility.yul\":2078:2288   */\n            tag_24:\n                /* \"#utility.yul\":2165:2169   */\n              0x00\n                /* \"#utility.yul\":2203:2205   */\n              0x20\n                /* \"#utility.yul\":2192:2201   */\n              dup3\n                /* \"#utility.yul\":2188:2206   */\n              add\n                /* \"#utility.yul\":2180:2206   */\n              swap1\n              pop\n                /* \"#utility.yul\":2216:2281   */\n              tag_183\n                /* \"#utility.yul\":2278:2279   */\n              0x00\n                /* \"#utility.yul\":2267:2276   */\n              dup4\n                /* \"#utility.yul\":2263:2280   */\n              add\n                /* \"#utility.yul\":2254:2260   */\n              dup5\n                /* \"#utility.yul\":2216:2281   */\n              tag_111\n              jump\t// in\n            tag_183:\n                /* \"#utility.yul\":2078:2288   */\n              swap3\n              swap2\n              pop\n              pop\n              jump\t// out\n                /* \"#utility.yul\":2294:2412   */\n            tag_112:\n                /* \"#utility.yul\":2381:2405   */\n              tag_185\n                /* \"#utility.yul\":2399:2404   */\n              dup2\n                /* \"#utility.yul\":2381:2405   */\n              tag_107\n              jump\t// in\n            tag_185:\n                /* \"#utility.yul\":2376:2379   */\n              dup3\n                /* \"#utility.yul\":2369:2406   */\n              mstore\n                /* \"#utility.yul\":2294:2412   */\n              pop\n              pop\n              jump\t// out\n                /* \"#utility.yul\":2418:2640   */\n            tag_29:\n                /* \"#utility.yul\":2511:2515   */\n              0x00\n                /* \"#utility.yul\":2549:2551   */\n              0x20\n                /* \"#utility.yul\":2538:2547   */\n              dup3\n                /* \"#utility.yul\":2534:2552   */\n              add\n                /* \"#utility.yul\":2526:2552   */\n              swap1\n              pop\n                /* \"#utility.yul\":2562:2633   */\n              tag_187\n                /* \"#utility.yul\":2630:2631   */\n              0x00\n                /* \"#utility.yul\":2619:2628   */\n              dup4\n                /* \"#utility.yul\":2615:2632   */\n              add\n                /* \"#utility.yul\":2606:2612   */\n              dup5\n                /* \"#utility.yul\":2562:2633   */\n              tag_112\n              jump\t// in\n            tag_187:\n                /* \"#utility.yul\":2418:2640   */\n              swap3\n              swap2\n              pop\n              pop\n              jump\t// out\n                /* \"#utility.yul\":2646:2764   */\n            tag_113:\n                /* \"#utility.yul\":2733:2757   */\n              tag_189\n                /* \"#utility.yul\":2751:2756   */\n              dup2\n                /* \"#utility.yul\":2733:2757   */\n              tag_103\n              jump\t// in\n            tag_189:\n                /* \"#utility.yul\":2728:2731   */\n              dup3\n                /* \"#utility.yul\":2721:2758   */\n              mstore\n                /* \"#utility.yul\":2646:2764   */\n              pop\n              pop\n              jump\t// out\n                /* \"#utility.yul\":2770:2992   */\n            tag_34:\n                /* \"#utility.yul\":2863:2867   */\n              0x00\n                /* \"#utility.yul\":2901:2903   */\n              0x20\n                /* \"#utility.yul\":2890:2899   */\n              dup3\n                /* \"#utility.yul\":2886:2904   */\n              add\n                /* \"#utility.yul\":2878:2904   */\n              swap1\n              pop\n                /* \"#utility.yul\":2914:2985   */\n              tag_191\n                /* \"#utility.yul\":2982:2983   */\n              0x00\n                /* \"#utility.yul\":2971:2980   */\n              dup4\n                /* \"#utility.yul\":2967:2984   */\n              add\n                /* \"#utility.yul\":2958:2964   */\n              dup5\n                /* \"#utility.yul\":2914:2985   */\n              tag_113\n              jump\t// in\n            tag_191:\n                /* \"#utility.yul\":2770:2992   */\n              swap3\n              swap2\n              pop\n              pop\n              jump\t// out\n                /* \"#utility.yul\":2998:3115   */\n            tag_114:\n                /* \"#utility.yul\":3107:3108   */\n              0x00\n                /* \"#utility.yul\":3104:3105   */\n              dup1\n                /* \"#utility.yul\":3097:3109   */\n              revert\n                /* \"#utility.yul\":3121:3238   */\n            tag_115:\n                /* \"#utility.yul\":3230:3231   */\n              0x00\n                /* \"#utility.yul\":3227:3228   */\n              dup1\n                /* \"#utility.yul\":3220:3232   */\n              revert\n                /* \"#utility.yul\":3244:3346   */\n            tag_116:\n                /* \"#utility.yul\":3285:3291   */\n              0x00\n                /* \"#utility.yul\":3336:3338   */\n              0x1f\n                /* \"#utility.yul\":3332:3339   */\n              not\n                /* \"#utility.yul\":3327:3329   */\n              0x1f\n                /* \"#utility.yul\":3320:3325   */\n              dup4\n                /* \"#utility.yul\":3316:3330   */\n              add\n                /* \"#utility.yul\":3312:3340   */\n              and\n                /* \"#utility.yul\":3302:3340   */\n              swap1\n              pop\n                /* \"#utility.yul\":3244:3346   */\n              swap2\n              swap1\n              pop\n              jump\t// out\n                /* \"#utility.yul\":3352:3532   */\n            tag_117:\n                /* \"#utility.yul\":3400:3477   */\n              0x4e487b7100000000000000000000000000000000000000000000000000000000\n                /* \"#utility.yul\":3397:3398   */\n              0x00\n                /* \"#utility.yul\":3390:3478   */\n              mstore\n                /* \"#utility.yul\":3497:3501   */\n              0x41\n                /* \"#utility.yul\":3494:3495   */\n              0x04\n                /* \"#utility.yul\":3487:3502   */\n              mstore\n                /* \"#utility.yul\":3521:3525   */\n              0x24\n                /* \"#utility.yul\":3518:3519   */\n              0x00\n                /* \"#utility.yul\":3511:3526   */\n              revert\n                /* \"#utility.yul\":3538:3819   */\n            tag_118:\n                /* \"#utility.yul\":3621:3648   */\n              tag_197\n                /* \"#utility.yul\":3643:3647   */\n              dup3\n                /* \"#utility.yul\":3621:3648   */\n              tag_116\n              jump\t// in\n            tag_197:\n                /* \"#utility.yul\":3613:3619   */\n              dup2\n                /* \"#utility.yul\":3609:3649   */\n              add\n                /* \"#utility.yul\":3751:3757   */\n              dup2\n                /* \"#utility.yul\":3739:3749   */\n              dup2\n                /* \"#utility.yul\":3736:3758   */\n              lt\n                /* \"#utility.yul\":3715:3733   */\n              0xffffffffffffffff\n                /* \"#utility.yul\":3703:3713   */\n              dup3\n                /* \"#utility.yul\":3700:3734   */\n              gt\n                /* \"#utility.yul\":3697:3759   */\n              or\n                /* \"#utility.yul\":3694:3782   */\n              iszero\n              tag_198\n              jumpi\n                /* \"#utility.yul\":3762:3780   */\n              tag_199\n              tag_117\n              jump\t// in\n            tag_199:\n                /* \"#utility.yul\":3694:3782   */\n            tag_198:\n                /* \"#utility.yul\":3802:3812   */\n              dup1\n                /* \"#utility.yul\":3798:3800   */\n              0x40\n                /* \"#utility.yul\":3791:3813   */\n              mstore\n                /* \"#utility.yul\":3581:3819   */\n              pop\n                /* \"#utility.yul\":3538:3819   */\n              pop\n              pop\n              jump\t// out\n                /* \"#utility.yul\":3825:3954   */\n            tag_119:\n                /* \"#utility.yul\":3859:3865   */\n              0x00\n                /* \"#utility.yul\":3886:3906   */\n              tag_201\n              tag_100\n              jump\t// in\n            tag_201:\n                /* \"#utility.yul\":3876:3906   */\n              swap1\n              pop\n                /* \"#utility.yul\":3915:3948   */\n              tag_202\n                /* \"#utility.yul\":3943:3947   */\n              dup3\n                /* \"#utility.yul\":3935:3941   */\n              dup3\n                /* \"#utility.yul\":3915:3948   */\n              tag_118\n              jump\t// in\n            tag_202:\n                /* \"#utility.yul\":3825:3954   */\n              swap2\n              swap1\n              pop\n              jump\t// out\n                /* \"#utility.yul\":3960:4268   */\n            tag_120:\n                /* \"#utility.yul\":4022:4026   */\n              0x00\n                /* \"#utility.yul\":4112:4130   */\n              0xffffffffffffffff\n                /* \"#utility.yul\":4104:4110   */\n              dup3\n                /* \"#utility.yul\":4101:4131   */\n              gt\n                /* \"#utility.yul\":4098:4154   */\n              iszero\n              tag_204\n              jumpi\n                /* \"#utility.yul\":4134:4152   */\n              tag_205\n              tag_117\n              jump\t// in\n            tag_205:\n                /* \"#utility.yul\":4098:4154   */\n            tag_204:\n                /* \"#utility.yul\":4172:4201   */\n              tag_206\n                /* \"#utility.yul\":4194:4200   */\n              dup3\n                /* \"#utility.yul\":4172:4201   */\n              tag_116\n              jump\t// in\n            tag_206:\n                /* \"#utility.yul\":4164:4201   */\n              swap1\n              pop\n                /* \"#utility.yul\":4256:4260   */\n              0x20\n                /* \"#utility.yul\":4250:4254   */\n              dup2\n                /* \"#utility.yul\":4246:4261   */\n              add\n                /* \"#utility.yul\":4238:4261   */\n              swap1\n              pop\n                /* \"#utility.yul\":3960:4268   */\n              swap2\n              swap1\n              pop\n              jump\t// out\n                /* \"#utility.yul\":4274:4420   */\n            tag_121:\n                /* \"#utility.yul\":4371:4377   */\n              dup3\n                /* \"#utility.yul\":4366:4369   */\n              dup2\n                /* \"#utility.yul\":4361:4364   */\n              dup4\n                /* \"#utility.yul\":4348:4378   */\n              calldatacopy\n                /* \"#utility.yul\":4412:4413   */\n              0x00\n                /* \"#utility.yul\":4403:4409   */\n              dup4\n                /* \"#utility.yul\":4398:4401   */\n              dup4\n                /* \"#utility.yul\":4394:4410   */\n              add\n                /* \"#utility.yul\":4387:4414   */\n              mstore\n                /* \"#utility.yul\":4274:4420   */\n              pop\n              pop\n              pop\n              jump\t// out\n                /* \"#utility.yul\":4426:4851   */\n            tag_122:\n                /* \"#utility.yul\":4504:4509   */\n              0x00\n                /* \"#utility.yul\":4529:4595   */\n              tag_209\n                /* \"#utility.yul\":4545:4594   */\n              tag_210\n                /* \"#utility.yul\":4587:4593   */\n              dup5\n                /* \"#utility.yul\":4545:4594   */\n              tag_120\n              jump\t// in\n            tag_210:\n                /* \"#utility.yul\":4529:4595   */\n              tag_119\n              jump\t// in\n            tag_209:\n                /* \"#utility.yul\":4520:4595   */\n              swap1\n              pop\n                /* \"#utility.yul\":4618:4624   */\n              dup3\n                /* \"#utility.yul\":4611:4616   */\n              dup2\n                /* \"#utility.yul\":4604:4625   */\n              mstore\n                /* \"#utility.yul\":4656:4660   */\n              0x20\n                /* \"#utility.yul\":4649:4654   */\n              dup2\n                /* \"#utility.yul\":4645:4661   */\n              add\n                /* \"#utility.yul\":4694:4697   */\n              dup5\n                /* \"#utility.yul\":4685:4691   */\n              dup5\n                /* \"#utility.yul\":4680:4683   */\n              dup5\n                /* \"#utility.yul\":4676:4692   */\n              add\n                /* \"#utility.yul\":4673:4698   */\n              gt\n                /* \"#utility.yul\":4670:4782   */\n              iszero\n              tag_211\n              jumpi\n                /* \"#utility.yul\":4701:4780   */\n              tag_212\n              tag_115\n              jump\t// in\n            tag_212:\n                /* \"#utility.yul\":4670:4782   */\n            tag_211:\n                /* \"#utility.yul\":4791:4845   */\n              tag_213\n                /* \"#utility.yul\":4838:4844   */\n              dup5\n                /* \"#utility.yul\":4833:4836   */\n              dup3\n                /* \"#utility.yul\":4828:4831   */\n              dup6\n                /* \"#utility.yul\":4791:4845   */\n              tag_121\n              jump\t// in\n            tag_213:\n                /* \"#utility.yul\":4510:4851   */\n              pop\n                /* \"#utility.yul\":4426:4851   */\n              swap4\n              swap3\n              pop\n              pop\n              pop\n              jump\t// out\n                /* \"#utility.yul\":4871:5211   */\n            tag_123:\n                /* \"#utility.yul\":4927:4932   */\n              0x00\n                /* \"#utility.yul\":4976:4979   */\n              dup3\n                /* \"#utility.yul\":4969:4973   */\n              0x1f\n                /* \"#utility.yul\":4961:4967   */\n              dup4\n                /* \"#utility.yul\":4957:4974   */\n              add\n                /* \"#utility.yul\":4953:4980   */\n              slt\n                /* \"#utility.yul\":4943:5065   */\n              tag_215\n              jumpi\n                /* \"#utility.yul\":4984:5063   */\n              tag_216\n              tag_114\n              jump\t// in\n            tag_216:\n                /* \"#utility.yul\":4943:5065   */\n            tag_215:\n                /* \"#utility.yul\":5101:5107   */\n              dup2\n                /* \"#utility.yul\":5088:5108   */\n              calldataload\n                /* \"#utility.yul\":5126:5205   */\n              tag_217\n                /* \"#utility.yul\":5201:5204   */\n              dup5\n                /* \"#utility.yul\":5193:5199   */\n              dup3\n                /* \"#utility.yul\":5186:5190   */\n              0x20\n                /* \"#utility.yul\":5178:5184   */\n              dup7\n                /* \"#utility.yul\":5174:5191   */\n              add\n                /* \"#utility.yul\":5126:5205   */\n              tag_122\n              jump\t// in\n            tag_217:\n                /* \"#utility.yul\":5117:5205   */\n              swap2\n              pop\n                /* \"#utility.yul\":4933:5211   */\n              pop\n                /* \"#utility.yul\":4871:5211   */\n              swap3\n              swap2\n              pop\n              pop\n              jump\t// out\n                /* \"#utility.yul\":5217:6016   */\n            tag_38:\n                /* \"#utility.yul\":5304:5310   */\n              0x00\n                /* \"#utility.yul\":5312:5318   */\n              dup1\n                /* \"#utility.yul\":5320:5326   */\n              0x00\n                /* \"#utility.yul\":5369:5371   */\n              0x60\n                /* \"#utility.yul\":5357:5366   */\n              dup5\n                /* \"#utility.yul\":5348:5355   */\n              dup7\n                /* \"#utility.yul\":5344:5367   */\n              sub\n                /* \"#utility.yul\":5340:5372   */\n              slt\n                /* \"#utility.yul\":5337:5456   */\n              iszero\n              tag_219\n              jumpi\n                /* \"#utility.yul\":5375:5454   */\n              tag_220\n              tag_101\n              jump\t// in\n            tag_220:\n                /* \"#utility.yul\":5337:5456   */\n            tag_219:\n                /* \"#utility.yul\":5523:5524   */\n              0x00\n                /* \"#utility.yul\":5512:5521   */\n              dup5\n                /* \"#utility.yul\":5508:5525   */\n              add\n                /* \"#utility.yul\":5495:5526   */\n              calldataload\n                /* \"#utility.yul\":5553:5571   */\n              0xffffffffffffffff\n                /* \"#utility.yul\":5545:5551   */\n              dup2\n                /* \"#utility.yul\":5542:5572   */\n              gt\n                /* \"#utility.yul\":5539:5656   */\n              iszero\n              tag_221\n              jumpi\n                /* \"#utility.yul\":5575:5654   */\n              tag_222\n              tag_102\n              jump\t// in\n            tag_222:\n                /* \"#utility.yul\":5539:5656   */\n            tag_221:\n                /* \"#utility.yul\":5680:5743   */\n              tag_223\n                /* \"#utility.yul\":5735:5742   */\n              dup7\n                /* \"#utility.yul\":5726:5732   */\n              dup3\n                /* \"#utility.yul\":5715:5724   */\n              dup8\n                /* \"#utility.yul\":5711:5733   */\n              add\n                /* \"#utility.yul\":5680:5743   */\n              tag_123\n              jump\t// in\n            tag_223:\n                /* \"#utility.yul\":5670:5743   */\n              swap4\n              pop\n                /* \"#utility.yul\":5466:5753   */\n              pop\n                /* \"#utility.yul\":5792:5794   */\n              0x20\n                /* \"#utility.yul\":5818:5871   */\n              tag_224\n                /* \"#utility.yul\":5863:5870   */\n              dup7\n                /* \"#utility.yul\":5854:5860   */\n              dup3\n                /* \"#utility.yul\":5843:5852   */\n              dup8\n                /* \"#utility.yul\":5839:5861   */\n              add\n                /* \"#utility.yul\":5818:5871   */\n              tag_105\n              jump\t// in\n            tag_224:\n                /* \"#utility.yul\":5808:5871   */\n              swap3\n              pop\n                /* \"#utility.yul\":5763:5881   */\n              pop\n                /* \"#utility.yul\":5920:5922   */\n              0x40\n                /* \"#utility.yul\":5946:5999   */\n              tag_225\n                /* \"#utility.yul\":5991:5998   */\n              dup7\n                /* \"#utility.yul\":5982:5988   */\n              dup3\n                /* \"#utility.yul\":5971:5980   */\n              dup8\n                /* \"#utility.yul\":5967:5989   */\n              add\n                /* \"#utility.yul\":5946:5999   */\n              tag_109\n              jump\t// in\n            tag_225:\n                /* \"#utility.yul\":5936:5999   */\n              swap2\n              pop\n                /* \"#utility.yul\":5891:6009   */\n              pop\n                /* \"#utility.yul\":5217:6016   */\n              swap3\n              pop\n              swap3\n              pop\n              swap3\n              jump\t// out\n                /* \"#utility.yul\":6022:6121   */\n            tag_124:\n                /* \"#utility.yul\":6074:6080   */\n              0x00\n                /* \"#utility.yul\":6108:6113   */\n              dup2\n                /* \"#utility.yul\":6102:6114   */\n              mload\n                /* \"#utility.yul\":6092:6114   */\n              swap1\n              pop\n                /* \"#utility.yul\":6022:6121   */\n              swap2\n              swap1\n              pop\n              jump\t// out\n                /* \"#utility.yul\":6127:6296   */\n            tag_125:\n                /* \"#utility.yul\":6211:6222   */\n              0x00\n                /* \"#utility.yul\":6245:6251   */\n              dup3\n                /* \"#utility.yul\":6240:6243   */\n              dup3\n                /* \"#utility.yul\":6233:6252   */\n              mstore\n                /* \"#utility.yul\":6285:6289   */\n              0x20\n                /* \"#utility.yul\":6280:6283   */\n              dup3\n                /* \"#utility.yul\":6276:6290   */\n              add\n                /* \"#utility.yul\":6261:6290   */\n              swap1\n              pop\n                /* \"#utility.yul\":6127:6296   */\n              swap3\n              swap2\n              pop\n              pop\n              jump\t// out\n                /* \"#utility.yul\":6302:6548   */\n            tag_126:\n                /* \"#utility.yul\":6383:6384   */\n              0x00\n                /* \"#utility.yul\":6393:6506   */\n            tag_229:\n                /* \"#utility.yul\":6407:6413   */\n              dup4\n                /* \"#utility.yul\":6404:6405   */\n              dup2\n                /* \"#utility.yul\":6401:6414   */\n              lt\n                /* \"#utility.yul\":6393:6506   */\n              iszero\n              tag_231\n              jumpi\n                /* \"#utility.yul\":6492:6493   */\n              dup1\n                /* \"#utility.yul\":6487:6490   */\n              dup3\n                /* \"#utility.yul\":6483:6494   */\n              add\n                /* \"#utility.yul\":6477:6495   */\n              mload\n                /* \"#utility.yul\":6473:6474   */\n              dup2\n                /* \"#utility.yul\":6468:6471   */\n              dup5\n                /* \"#utility.yul\":6464:6475   */\n              add\n                /* \"#utility.yul\":6457:6496   */\n              mstore\n                /* \"#utility.yul\":6429:6431   */\n              0x20\n                /* \"#utility.yul\":6426:6427   */\n              dup2\n                /* \"#utility.yul\":6422:6432   */\n              add\n                /* \"#utility.yul\":6417:6432   */\n              swap1\n              pop\n                /* \"#utility.yul\":6393:6506   */\n              jump(tag_229)\n            tag_231:\n                /* \"#utility.yul\":6540:6541   */\n              0x00\n                /* \"#utility.yul\":6531:6537   */\n              dup5\n                /* \"#utility.yul\":6526:6529   */\n              dup5\n                /* \"#utility.yul\":6522:6538   */\n              add\n                /* \"#utility.yul\":6515:6542   */\n              mstore\n                /* \"#utility.yul\":6364:6548   */\n              pop\n                /* \"#utility.yul\":6302:6548   */\n              pop\n              pop\n              pop\n              jump\t// out\n                /* \"#utility.yul\":6554:6931   */\n            tag_127:\n                /* \"#utility.yul\":6642:6645   */\n              0x00\n                /* \"#utility.yul\":6670:6709   */\n              tag_233\n                /* \"#utility.yul\":6703:6708   */\n              dup3\n                /* \"#utility.yul\":6670:6709   */\n              tag_124\n              jump\t// in\n            tag_233:\n                /* \"#utility.yul\":6725:6796   */\n              tag_234\n                /* \"#utility.yul\":6789:6795   */\n              dup2\n                /* \"#utility.yul\":6784:6787   */\n              dup6\n                /* \"#utility.yul\":6725:6796   */\n              tag_125\n              jump\t// in\n            tag_234:\n                /* \"#utility.yul\":6718:6796   */\n              swap4\n              pop\n                /* \"#utility.yul\":6805:6870   */\n              tag_235\n                /* \"#utility.yul\":6863:6869   */\n              dup2\n                /* \"#utility.yul\":6858:6861   */\n              dup6\n                /* \"#utility.yul\":6851:6855   */\n              0x20\n                /* \"#utility.yul\":6844:6849   */\n              dup7\n                /* \"#utility.yul\":6840:6856   */\n              add\n                /* \"#utility.yul\":6805:6870   */\n              tag_126\n              jump\t// in\n            tag_235:\n                /* \"#utility.yul\":6895:6924   */\n              tag_236\n                /* \"#utility.yul\":6917:6923   */\n              dup2\n                /* \"#utility.yul\":6895:6924   */\n              tag_116\n              jump\t// in\n            tag_236:\n                /* \"#utility.yul\":6890:6893   */\n              dup5\n                /* \"#utility.yul\":6886:6925   */\n              add\n                /* \"#utility.yul\":6879:6925   */\n              swap2\n              pop\n                /* \"#utility.yul\":6646:6931   */\n              pop\n                /* \"#utility.yul\":6554:6931   */\n              swap3\n              swap2\n              pop\n              pop\n              jump\t// out\n                /* \"#utility.yul\":6937:7680   */\n            tag_49:\n                /* \"#utility.yul\":7156:7160   */\n              0x00\n                /* \"#utility.yul\":7194:7197   */\n              0xa0\n                /* \"#utility.yul\":7183:7192   */\n              dup3\n                /* \"#utility.yul\":7179:7198   */\n              add\n                /* \"#utility.yul\":7171:7198   */\n              swap1\n              pop\n                /* \"#utility.yul\":7244:7253   */\n              dup2\n                /* \"#utility.yul\":7238:7242   */\n              dup2\n                /* \"#utility.yul\":7234:7254   */\n              sub\n                /* \"#utility.yul\":7230:7231   */\n              0x00\n                /* \"#utility.yul\":7219:7228   */\n              dup4\n                /* \"#utility.yul\":7215:7232   */\n              add\n                /* \"#utility.yul\":7208:7255   */\n              mstore\n                /* \"#utility.yul\":7272:7350   */\n              tag_238\n                /* \"#utility.yul\":7345:7349   */\n              dup2\n                /* \"#utility.yul\":7336:7342   */\n              dup9\n                /* \"#utility.yul\":7272:7350   */\n              tag_127\n              jump\t// in\n            tag_238:\n                /* \"#utility.yul\":7264:7350   */\n              swap1\n              pop\n                /* \"#utility.yul\":7360:7432   */\n              tag_239\n                /* \"#utility.yul\":7428:7430   */\n              0x20\n                /* \"#utility.yul\":7417:7426   */\n              dup4\n                /* \"#utility.yul\":7413:7431   */\n              add\n                /* \"#utility.yul\":7404:7410   */\n              dup8\n                /* \"#utility.yul\":7360:7432   */\n              tag_113\n              jump\t// in\n            tag_239:\n                /* \"#utility.yul\":7442:7514   */\n              tag_240\n                /* \"#utility.yul\":7510:7512   */\n              0x40\n                /* \"#utility.yul\":7499:7508   */\n              dup4\n                /* \"#utility.yul\":7495:7513   */\n              add\n                /* \"#utility.yul\":7486:7492   */\n              dup7\n                /* \"#utility.yul\":7442:7514   */\n              tag_112\n              jump\t// in\n            tag_240:\n                /* \"#utility.yul\":7524:7590   */\n              tag_241\n                /* \"#utility.yul\":7586:7588   */\n              0x60\n                /* \"#utility.yul\":7575:7584   */\n              dup4\n                /* \"#utility.yul\":7571:7589   */\n              add\n                /* \"#utility.yul\":7562:7568   */\n              dup6\n                /* \"#utility.yul\":7524:7590   */\n              tag_111\n              jump\t// in\n            tag_241:\n                /* \"#utility.yul\":7600:7673   */\n              tag_242\n                /* \"#utility.yul\":7668:7671   */\n              0x80\n                /* \"#utility.yul\":7657:7666   */\n              dup4\n                /* \"#utility.yul\":7653:7672   */\n              add\n                /* \"#utility.yul\":7644:7650   */\n              dup5\n                /* \"#utility.yul\":7600:7673   */\n              tag_113\n              jump\t// in\n            tag_242:\n                /* \"#utility.yul\":6937:7680   */\n              swap7\n              swap6\n              pop\n              pop\n              pop\n              pop\n              pop\n              pop\n              jump\t// out\n                /* \"#utility.yul\":7686:7909   */\n            tag_128:\n                /* \"#utility.yul\":7826:7860   */\n              0x4f6e6c79206d616e616765722063616e2063616c6c20746869732066756e6374\n                /* \"#utility.yul\":7822:7823   */\n              0x00\n                /* \"#utility.yul\":7814:7820   */\n              dup3\n                /* \"#utility.yul\":7810:7824   */\n              add\n                /* \"#utility.yul\":7803:7861   */\n              mstore\n                /* \"#utility.yul\":7895:7901   */\n              0x696f6e2e00000000000000000000000000000000000000000000000000000000\n                /* \"#utility.yul\":7890:7892   */\n              0x20\n                /* \"#utility.yul\":7882:7888   */\n              dup3\n                /* \"#utility.yul\":7878:7893   */\n              add\n                /* \"#utility.yul\":7871:7902   */\n              mstore\n                /* \"#utility.yul\":7686:7909   */\n              pop\n              jump\t// out\n                /* \"#utility.yul\":7915:8281   */\n            tag_129:\n                /* \"#utility.yul\":8057:8060   */\n              0x00\n                /* \"#utility.yul\":8078:8145   */\n              tag_245\n                /* \"#utility.yul\":8142:8144   */\n              0x24\n                /* \"#utility.yul\":8137:8140   */\n              dup4\n                /* \"#utility.yul\":8078:8145   */\n              tag_125\n              jump\t// in\n            tag_245:\n                /* \"#utility.yul\":8071:8145   */\n              swap2\n              pop\n                /* \"#utility.yul\":8154:8247   */\n              tag_246\n                /* \"#utility.yul\":8243:8246   */\n              dup3\n                /* \"#utility.yul\":8154:8247   */\n              tag_128\n              jump\t// in\n            tag_246:\n                /* \"#utility.yul\":8272:8274   */\n              0x40\n                /* \"#utility.yul\":8267:8270   */\n              dup3\n                /* \"#utility.yul\":8263:8275   */\n              add\n                /* \"#utility.yul\":8256:8275   */\n              swap1\n              pop\n                /* \"#utility.yul\":7915:8281   */\n              swap2\n              swap1\n              pop\n              jump\t// out\n                /* \"#utility.yul\":8287:8706   */\n            tag_63:\n                /* \"#utility.yul\":8453:8457   */\n              0x00\n                /* \"#utility.yul\":8491:8493   */\n              0x20\n                /* \"#utility.yul\":8480:8489   */\n              dup3\n                /* \"#utility.yul\":8476:8494   */\n              add\n                /* \"#utility.yul\":8468:8494   */\n              swap1\n              pop\n                /* \"#utility.yul\":8540:8549   */\n              dup2\n                /* \"#utility.yul\":8534:8538   */\n              dup2\n                /* \"#utility.yul\":8530:8550   */\n              sub\n                /* \"#utility.yul\":8526:8527   */\n              0x00\n                /* \"#utility.yul\":8515:8524   */\n              dup4\n                /* \"#utility.yul\":8511:8528   */\n              add\n                /* \"#utility.yul\":8504:8551   */\n              mstore\n                /* \"#utility.yul\":8568:8699   */\n              tag_248\n                /* \"#utility.yul\":8694:8698   */\n              dup2\n                /* \"#utility.yul\":8568:8699   */\n              tag_129\n              jump\t// in\n            tag_248:\n                /* \"#utility.yul\":8560:8699   */\n              swap1\n              pop\n                /* \"#utility.yul\":8287:8706   */\n              swap2\n              swap1\n              pop\n              jump\t// out\n                /* \"#utility.yul\":8712:8892   */\n            tag_130:\n                /* \"#utility.yul\":8760:8837   */\n              0x4e487b7100000000000000000000000000000000000000000000000000000000\n                /* \"#utility.yul\":8757:8758   */\n              0x00\n                /* \"#utility.yul\":8750:8838   */\n              mstore\n                /* \"#utility.yul\":8857:8861   */\n              0x12\n                /* \"#utility.yul\":8854:8855   */\n              0x04\n                /* \"#utility.yul\":8847:8862   */\n              mstore\n                /* \"#utility.yul\":8881:8885   */\n              0x24\n                /* \"#utility.yul\":8878:8879   */\n              0x00\n                /* \"#utility.yul\":8871:8886   */\n              revert\n                /* \"#utility.yul\":8898:9078   */\n            tag_131:\n                /* \"#utility.yul\":8946:9023   */\n              0x4e487b7100000000000000000000000000000000000000000000000000000000\n                /* \"#utility.yul\":8943:8944   */\n              0x00\n                /* \"#utility.yul\":8936:9024   */\n              mstore\n                /* \"#utility.yul\":9043:9047   */\n              0x11\n                /* \"#utility.yul\":9040:9041   */\n              0x04\n                /* \"#utility.yul\":9033:9048   */\n              mstore\n                /* \"#utility.yul\":9067:9071   */\n              0x24\n                /* \"#utility.yul\":9064:9065   */\n              0x00\n                /* \"#utility.yul\":9057:9072   */\n              revert\n                /* \"#utility.yul\":9084:9269   */\n            tag_67:\n                /* \"#utility.yul\":9124:9125   */\n              0x00\n                /* \"#utility.yul\":9141:9161   */\n              tag_252\n                /* \"#utility.yul\":9159:9160   */\n              dup3\n                /* \"#utility.yul\":9141:9161   */\n              tag_103\n              jump\t// in\n            tag_252:\n                /* \"#utility.yul\":9136:9161   */\n              swap2\n              pop\n                /* \"#utility.yul\":9175:9195   */\n              tag_253\n                /* \"#utility.yul\":9193:9194   */\n              dup4\n                /* \"#utility.yul\":9175:9195   */\n              tag_103\n              jump\t// in\n            tag_253:\n                /* \"#utility.yul\":9170:9195   */\n              swap3\n              pop\n                /* \"#utility.yul\":9214:9215   */\n              dup3\n                /* \"#utility.yul\":9204:9239   */\n              tag_254\n              jumpi\n                /* \"#utility.yul\":9219:9237   */\n              tag_255\n              tag_130\n              jump\t// in\n            tag_255:\n                /* \"#utility.yul\":9204:9239   */\n            tag_254:\n                /* \"#utility.yul\":9261:9262   */\n              dup3\n                /* \"#utility.yul\":9258:9259   */\n              dup3\n                /* \"#utility.yul\":9254:9263   */\n              div\n                /* \"#utility.yul\":9249:9263   */\n              swap1\n              pop\n                /* \"#utility.yul\":9084:9269   */\n              swap3\n              swap2\n              pop\n              pop\n              jump\t// out\n                /* \"#utility.yul\":9275:9422   */\n            tag_132:\n                /* \"#utility.yul\":9376:9387   */\n              0x00\n                /* \"#utility.yul\":9413:9416   */\n              dup2\n                /* \"#utility.yul\":9398:9416   */\n              swap1\n              pop\n                /* \"#utility.yul\":9275:9422   */\n              swap3\n              swap2\n              pop\n              pop\n              jump\t// out\n                /* \"#utility.yul\":9428:9542   */\n            tag_133:\n              pop\n              jump\t// out\n                /* \"#utility.yul\":9548:9946   */\n            tag_134:\n                /* \"#utility.yul\":9707:9710   */\n              0x00\n                /* \"#utility.yul\":9728:9811   */\n              tag_259\n                /* \"#utility.yul\":9809:9810   */\n              0x00\n                /* \"#utility.yul\":9804:9807   */\n              dup4\n                /* \"#utility.yul\":9728:9811   */\n              tag_132\n              jump\t// in\n            tag_259:\n                /* \"#utility.yul\":9721:9811   */\n              swap2\n              pop\n                /* \"#utility.yul\":9820:9913   */\n              tag_260\n                /* \"#utility.yul\":9909:9912   */\n              dup3\n                /* \"#utility.yul\":9820:9913   */\n              tag_133\n              jump\t// in\n            tag_260:\n                /* \"#utility.yul\":9938:9939   */\n              0x00\n                /* \"#utility.yul\":9933:9936   */\n              dup3\n                /* \"#utility.yul\":9929:9940   */\n              add\n                /* \"#utility.yul\":9922:9940   */\n              swap1\n              pop\n                /* \"#utility.yul\":9548:9946   */\n              swap2\n              swap1\n              pop\n              jump\t// out\n                /* \"#utility.yul\":9952:10331   */\n            tag_70:\n                /* \"#utility.yul\":10136:10139   */\n              0x00\n                /* \"#utility.yul\":10158:10305   */\n              tag_262\n                /* \"#utility.yul\":10301:10304   */\n              dup3\n                /* \"#utility.yul\":10158:10305   */\n              tag_134\n              jump\t// in\n            tag_262:\n                /* \"#utility.yul\":10151:10305   */\n              swap2\n              pop\n                /* \"#utility.yul\":10322:10325   */\n              dup2\n                /* \"#utility.yul\":10315:10325   */\n              swap1\n              pop\n                /* \"#utility.yul\":9952:10331   */\n              swap2\n              swap1\n              pop\n              jump\t// out\n                /* \"#utility.yul\":10337:10499   */\n            tag_135:\n                /* \"#utility.yul\":10477:10491   */\n              0x43616c6c206661696c65642e0000000000000000000000000000000000000000\n                /* \"#utility.yul\":10473:10474   */\n              0x00\n                /* \"#utility.yul\":10465:10471   */\n              dup3\n                /* \"#utility.yul\":10461:10475   */\n              add\n                /* \"#utility.yul\":10454:10492   */\n              mstore\n                /* \"#utility.yul\":10337:10499   */\n              pop\n              jump\t// out\n                /* \"#utility.yul\":10505:10871   */\n            tag_136:\n                /* \"#utility.yul\":10647:10650   */\n              0x00\n                /* \"#utility.yul\":10668:10735   */\n              tag_265\n                /* \"#utility.yul\":10732:10734   */\n              0x0c\n                /* \"#utility.yul\":10727:10730   */\n              dup4\n                /* \"#utility.yul\":10668:10735   */\n              tag_125\n              jump\t// in\n            tag_265:\n                /* \"#utility.yul\":10661:10735   */\n              swap2\n              pop\n                /* \"#utility.yul\":10744:10837   */\n              tag_266\n                /* \"#utility.yul\":10833:10836   */\n              dup3\n                /* \"#utility.yul\":10744:10837   */\n              tag_135\n              jump\t// in\n            tag_266:\n                /* \"#utility.yul\":10862:10864   */\n              0x20\n                /* \"#utility.yul\":10857:10860   */\n              dup3\n                /* \"#utility.yul\":10853:10865   */\n              add\n                /* \"#utility.yul\":10846:10865   */\n              swap1\n              pop\n                /* \"#utility.yul\":10505:10871   */\n              swap2\n              swap1\n              pop\n              jump\t// out\n                /* \"#utility.yul\":10877:11296   */\n            tag_76:\n                /* \"#utility.yul\":11043:11047   */\n              0x00\n                /* \"#utility.yul\":11081:11083   */\n              0x20\n                /* \"#utility.yul\":11070:11079   */\n              dup3\n                /* \"#utility.yul\":11066:11084   */\n              add\n                /* \"#utility.yul\":11058:11084   */\n              swap1\n              pop\n                /* \"#utility.yul\":11130:11139   */\n              dup2\n                /* \"#utility.yul\":11124:11128   */\n              dup2\n                /* \"#utility.yul\":11120:11140   */\n              sub\n                /* \"#utility.yul\":11116:11117   */\n              0x00\n                /* \"#utility.yul\":11105:11114   */\n              dup4\n                /* \"#utility.yul\":11101:11118   */\n              add\n                /* \"#utility.yul\":11094:11141   */\n              mstore\n                /* \"#utility.yul\":11158:11289   */\n              tag_268\n                /* \"#utility.yul\":11284:11288   */\n              dup2\n                /* \"#utility.yul\":11158:11289   */\n              tag_136\n              jump\t// in\n            tag_268:\n                /* \"#utility.yul\":11150:11289   */\n              swap1\n              pop\n                /* \"#utility.yul\":10877:11296   */\n              swap2\n              swap1\n              pop\n              jump\t// out\n                /* \"#utility.yul\":11302:11535   */\n            tag_82:\n                /* \"#utility.yul\":11341:11344   */\n              0x00\n                /* \"#utility.yul\":11364:11388   */\n              tag_270\n                /* \"#utility.yul\":11382:11387   */\n              dup3\n                /* \"#utility.yul\":11364:11388   */\n              tag_103\n              jump\t// in\n            tag_270:\n                /* \"#utility.yul\":11355:11388   */\n              swap2\n              pop\n                /* \"#utility.yul\":11410:11476   */\n              0xffffffffffffffffffffffffffffffffffffffffffffffffffffffffffffffff\n                /* \"#utility.yul\":11403:11408   */\n              dup3\n                /* \"#utility.yul\":11400:11477   */\n              sub\n                /* \"#utility.yul\":11397:11500   */\n              tag_271\n              jumpi\n                /* \"#utility.yul\":11480:11498   */\n              tag_272\n              tag_131\n              jump\t// in\n            tag_272:\n                /* \"#utility.yul\":11397:11500   */\n            tag_271:\n                /* \"#utility.yul\":11527:11528   */\n              0x01\n                /* \"#utility.yul\":11520:11525   */\n              dup3\n                /* \"#utility.yul\":11516:11529   */\n              add\n                /* \"#utility.yul\":11509:11529   */\n              swap1\n              pop\n                /* \"#utility.yul\":11302:11535   */\n              swap2\n              swap1\n              pop\n              jump\t// out\n                /* \"#utility.yul\":11541:11721   */\n            tag_137:\n                /* \"#utility.yul\":11589:11666   */\n              0x4e487b7100000000000000000000000000000000000000000000000000000000\n                /* \"#utility.yul\":11586:11587   */\n              0x00\n                /* \"#utility.yul\":11579:11667   */\n              mstore\n                /* \"#utility.yul\":11686:11690   */\n              0x22\n                /* \"#utility.yul\":11683:11684   */\n              0x04\n                /* \"#utility.yul\":11676:11691   */\n              mstore\n                /* \"#utility.yul\":11710:11714   */\n              0x24\n                /* \"#utility.yul\":11707:11708   */\n              0x00\n                /* \"#utility.yul\":11700:11715   */\n              revert\n                /* \"#utility.yul\":11727:12047   */\n            tag_87:\n                /* \"#utility.yul\":11771:11777   */\n              0x00\n                /* \"#utility.yul\":11808:11809   */\n              0x02\n                /* \"#utility.yul\":11802:11806   */\n              dup3\n                /* \"#utility.yul\":11798:11810   */\n              div\n                /* \"#utility.yul\":11788:11810   */\n              swap1\n              pop\n                /* \"#utility.yul\":11855:11856   */\n              0x01\n                /* \"#utility.yul\":11849:11853   */\n              dup3\n                /* \"#utility.yul\":11845:11857   */\n              and\n                /* \"#utility.yul\":11876:11894   */\n              dup1\n                /* \"#utility.yul\":11866:11947   */\n              tag_275\n              jumpi\n                /* \"#utility.yul\":11932:11936   */\n              0x7f\n                /* \"#utility.yul\":11924:11930   */\n              dup3\n                /* \"#utility.yul\":11920:11937   */\n              and\n                /* \"#utility.yul\":11910:11937   */\n              swap2\n              pop\n                /* \"#utility.yul\":11866:11947   */\n            tag_275:\n                /* \"#utility.yul\":11994:11996   */\n              0x20\n                /* \"#utility.yul\":11986:11992   */\n              dup3\n                /* \"#utility.yul\":11983:11997   */\n              lt\n                /* \"#utility.yul\":11963:11981   */\n              dup2\n                /* \"#utility.yul\":11960:11998   */\n              sub\n                /* \"#utility.yul\":11957:12041   */\n              tag_276\n              jumpi\n                /* \"#utility.yul\":12013:12031   */\n              tag_277\n              tag_137\n              jump\t// in\n            tag_277:\n                /* \"#utility.yul\":11957:12041   */\n            tag_276:\n                /* \"#utility.yul\":11778:12047   */\n              pop\n                /* \"#utility.yul\":11727:12047   */\n              swap2\n              swap1\n              pop\n              jump\t// out\n                /* \"#utility.yul\":12053:12194   */\n            tag_138:\n                /* \"#utility.yul\":12102:12106   */\n              0x00\n                /* \"#utility.yul\":12125:12128   */\n              dup2\n                /* \"#utility.yul\":12117:12128   */\n              swap1\n              pop\n                /* \"#utility.yul\":12148:12151   */\n              dup2\n                /* \"#utility.yul\":12145:12146   */\n              0x00\n                /* \"#utility.yul\":12138:12152   */\n              mstore\n                /* \"#utility.yul\":12182:12186   */\n              0x20\n                /* \"#utility.yul\":12179:12180   */\n              0x00\n                /* \"#utility.yul\":12169:12187   */\n              keccak256\n                /* \"#utility.yul\":12161:12187   */\n              swap1\n              pop\n                /* \"#utility.yul\":12053:12194   */\n              swap2\n              swap1\n              pop\n              jump\t// out\n                /* \"#utility.yul\":12200:12293   */\n            tag_139:\n                /* \"#utility.yul\":12237:12243   */\n              0x00\n                /* \"#utility.yul\":12284:12286   */\n              0x20\n                /* \"#utility.yul\":12279:12281   */\n              0x1f\n                /* \"#utility.yul\":12272:12277   */\n              dup4\n                /* \"#utility.yul\":12268:12282   */\n              add\n                /* \"#utility.yul\":12264:12287   */\n              div\n                /* \"#utility.yul\":12254:12287   */\n              swap1\n              pop\n                /* \"#utility.yul\":12200:12293   */\n              swap2\n              swap1\n              pop\n              jump\t// out\n                /* \"#utility.yul\":12299:12406   */\n            tag_140:\n                /* \"#utility.yul\":12343:12351   */\n              0x00\n                /* \"#utility.yul\":12393:12398   */\n              dup3\n                /* \"#utility.yul\":12387:12391   */\n              dup3\n                /* \"#utility.yul\":12383:12399   */\n              shl\n                /* \"#utility.yul\":12362:12399   */\n              swap1\n              pop\n                /* \"#utility.yul\":12299:12406   */\n              swap3\n              swap2\n              pop\n              pop\n              jump\t// out\n                /* \"#utility.yul\":12412:12805   */\n            tag_141:\n                /* \"#utility.yul\":12481:12487   */\n              0x00\n                /* \"#utility.yul\":12531:12532   */\n              0x08\n                /* \"#utility.yul\":12519:12529   */\n              dup4\n                /* \"#utility.yul\":12515:12533   */\n              mul\n                /* \"#utility.yul\":12554:12651   */\n              tag_282\n                /* \"#utility.yul\":12584:12650   */\n              0xffffffffffffffffffffffffffffffffffffffffffffffffffffffffffffffff\n                /* \"#utility.yul\":12573:12582   */\n              dup3\n                /* \"#utility.yul\":12554:12651   */\n              tag_140\n              jump\t// in\n            tag_282:\n                /* \"#utility.yul\":12672:12711   */\n              tag_283\n                /* \"#utility.yul\":12702:12710   */\n              dup7\n                /* \"#utility.yul\":12691:12700   */\n              dup4\n                /* \"#utility.yul\":12672:12711   */\n              tag_140\n              jump\t// in\n            tag_283:\n                /* \"#utility.yul\":12660:12711   */\n              swap6\n              pop\n                /* \"#utility.yul\":12744:12748   */\n              dup1\n                /* \"#utility.yul\":12740:12749   */\n              not\n                /* \"#utility.yul\":12733:12738   */\n              dup5\n                /* \"#utility.yul\":12729:12750   */\n              and\n                /* \"#utility.yul\":12720:12750   */\n              swap4\n              pop\n                /* \"#utility.yul\":12793:12797   */\n              dup1\n                /* \"#utility.yul\":12783:12791   */\n              dup7\n                /* \"#utility.yul\":12779:12798   */\n              and\n                /* \"#utility.yul\":12772:12777   */\n              dup5\n                /* \"#utility.yul\":12769:12799   */\n              or\n                /* \"#utility.yul\":12759:12799   */\n              swap3\n              pop\n                /* \"#utility.yul\":12488:12805   */\n              pop\n              pop\n                /* \"#utility.yul\":12412:12805   */\n              swap4\n              swap3\n              pop\n              pop\n              pop\n              jump\t// out\n                /* \"#utility.yul\":12811:12871   */\n            tag_142:\n                /* \"#utility.yul\":12839:12842   */\n              0x00\n                /* \"#utility.yul\":12860:12865   */\n              dup2\n                /* \"#utility.yul\":12853:12865   */\n              swap1\n              pop\n                /* \"#utility.yul\":12811:12871   */\n              swap2\n              swap1\n              pop\n              jump\t// out\n                /* \"#utility.yul\":12877:13019   */\n            tag_143:\n                /* \"#utility.yul\":12927:12936   */\n              0x00\n                /* \"#utility.yul\":12960:13013   */\n              tag_286\n                /* \"#utility.yul\":12978:13012   */\n              tag_287\n                /* \"#utility.yul\":12987:13011   */\n              tag_288\n                /* \"#utility.yul\":13005:13010   */\n              dup5\n                /* \"#utility.yul\":12987:13011   */\n              tag_103\n              jump\t// in\n            tag_288:\n                /* \"#utility.yul\":12978:13012   */\n              tag_142\n              jump\t// in\n            tag_287:\n                /* \"#utility.yul\":12960:13013   */\n              tag_103\n              jump\t// in\n            tag_286:\n                /* \"#utility.yul\":12947:13013   */\n              swap1\n              pop\n                /* \"#utility.yul\":12877:13019   */\n              swap2\n              swap1\n              pop\n              jump\t// out\n                /* \"#utility.yul\":13025:13100   */\n            tag_144:\n                /* \"#utility.yul\":13068:13071   */\n              0x00\n                /* \"#utility.yul\":13089:13094   */\n              dup2\n                /* \"#utility.yul\":13082:13094   */\n              swap1\n              pop\n                /* \"#utility.yul\":13025:13100   */\n              swap2\n              swap1\n              pop\n              jump\t// out\n                /* \"#utility.yul\":13106:13375   */\n            tag_145:\n                /* \"#utility.yul\":13216:13255   */\n              tag_291\n                /* \"#utility.yul\":13247:13254   */\n              dup4\n                /* \"#utility.yul\":13216:13255   */\n              tag_143\n              jump\t// in\n            tag_291:\n                /* \"#utility.yul\":13277:13368   */\n              tag_292\n                /* \"#utility.yul\":13326:13367   */\n              tag_293\n                /* \"#utility.yul\":13350:13366   */\n              dup3\n                /* \"#utility.yul\":13326:13367   */\n              tag_144\n              jump\t// in\n            tag_293:\n                /* \"#utility.yul\":13318:13324   */\n              dup5\n                /* \"#utility.yul\":13311:13315   */\n              dup5\n                /* \"#utility.yul\":13305:13316   */\n              sload\n                /* \"#utility.yul\":13277:13368   */\n              tag_141\n              jump\t// in\n            tag_292:\n                /* \"#utility.yul\":13271:13275   */\n              dup3\n                /* \"#utility.yul\":13264:13369   */\n              sstore\n                /* \"#utility.yul\":13182:13375   */\n              pop\n                /* \"#utility.yul\":13106:13375   */\n              pop\n              pop\n              pop\n              jump\t// out\n                /* \"#utility.yul\":13381:13454   */\n            tag_146:\n                /* \"#utility.yul\":13426:13429   */\n              0x00\n                /* \"#utility.yul\":13381:13454   */\n              swap1\n              jump\t// out\n                /* \"#utility.yul\":13460:13649   */\n            tag_147:\n                /* \"#utility.yul\":13537:13569   */\n              tag_296\n              tag_146\n              jump\t// in\n            tag_296:\n                /* \"#utility.yul\":13578:13643   */\n              tag_297\n                /* \"#utility.yul\":13636:13642   */\n              dup2\n                /* \"#utility.yul\":13628:13634   */\n              dup5\n                /* \"#utility.yul\":13622:13626   */\n              dup5\n                /* \"#utility.yul\":13578:13643   */\n              tag_145\n              jump\t// in\n            tag_297:\n                /* \"#utility.yul\":13513:13649   */\n              pop\n                /* \"#utility.yul\":13460:13649   */\n              pop\n              pop\n              jump\t// out\n                /* \"#utility.yul\":13655:13841   */\n            tag_148:\n                /* \"#utility.yul\":13715:13835   */\n            tag_299:\n                /* \"#utility.yul\":13732:13735   */\n              dup2\n                /* \"#utility.yul\":13725:13730   */\n              dup2\n                /* \"#utility.yul\":13722:13736   */\n              lt\n                /* \"#utility.yul\":13715:13835   */\n              iszero\n              tag_301\n              jumpi\n                /* \"#utility.yul\":13786:13825   */\n              tag_302\n                /* \"#utility.yul\":13823:13824   */\n              0x00\n                /* \"#utility.yul\":13816:13821   */\n              dup3\n                /* \"#utility.yul\":13786:13825   */\n              tag_147\n              jump\t// in\n            tag_302:\n                /* \"#utility.yul\":13759:13760   */\n              0x01\n                /* \"#utility.yul\":13752:13757   */\n              dup2\n                /* \"#utility.yul\":13748:13761   */\n              add\n                /* \"#utility.yul\":13739:13761   */\n              swap1\n              pop\n                /* \"#utility.yul\":13715:13835   */\n              jump(tag_299)\n            tag_301:\n                /* \"#utility.yul\":13655:13841   */\n              pop\n              pop\n              jump\t// out\n                /* \"#utility.yul\":13847:14390   */\n            tag_149:\n                /* \"#utility.yul\":13948:13950   */\n              0x1f\n                /* \"#utility.yul\":13943:13946   */\n              dup3\n                /* \"#utility.yul\":13940:13951   */\n              gt\n                /* \"#utility.yul\":13937:14383   */\n              iszero\n              tag_304\n              jumpi\n                /* \"#utility.yul\":13982:14020   */\n              tag_305\n                /* \"#utility.yul\":14014:14019   */\n              dup2\n                /* \"#utility.yul\":13982:14020   */\n              tag_138\n              jump\t// in\n            tag_305:\n                /* \"#utility.yul\":14066:14095   */\n              tag_306\n                /* \"#utility.yul\":14084:14094   */\n              dup5\n                /* \"#utility.yul\":14066:14095   */\n              tag_139\n              jump\t// in\n            tag_306:\n                /* \"#utility.yul\":14056:14064   */\n              dup2\n                /* \"#utility.yul\":14052:14096   */\n              add\n                /* \"#utility.yul\":14249:14251   */\n              0x20\n                /* \"#utility.yul\":14237:14247   */\n              dup6\n                /* \"#utility.yul\":14234:14252   */\n              lt\n                /* \"#utility.yul\":14231:14280   */\n              iszero\n              tag_307\n              jumpi\n                /* \"#utility.yul\":14270:14278   */\n              dup2\n                /* \"#utility.yul\":14255:14278   */\n              swap1\n              pop\n                /* \"#utility.yul\":14231:14280   */\n            tag_307:\n                /* \"#utility.yul\":14293:14373   */\n              tag_308\n                /* \"#utility.yul\":14349:14371   */\n              tag_309\n                /* \"#utility.yul\":14367:14370   */\n              dup6\n                /* \"#utility.yul\":14349:14371   */\n              tag_139\n              jump\t// in\n            tag_309:\n                /* \"#utility.yul\":14339:14347   */\n              dup4\n                /* \"#utility.yul\":14335:14372   */\n              add\n                /* \"#utility.yul\":14322:14333   */\n              dup3\n                /* \"#utility.yul\":14293:14373   */\n              tag_148\n              jump\t// in\n            tag_308:\n                /* \"#utility.yul\":13952:14383   */\n              pop\n              pop\n                /* \"#utility.yul\":13937:14383   */\n            tag_304:\n                /* \"#utility.yul\":13847:14390   */\n              pop\n              pop\n              pop\n              jump\t// out\n                /* \"#utility.yul\":14396:14513   */\n            tag_150:\n                /* \"#utility.yul\":14450:14458   */\n              0x00\n                /* \"#utility.yul\":14500:14505   */\n              dup3\n                /* \"#utility.yul\":14494:14498   */\n              dup3\n                /* \"#utility.yul\":14490:14506   */\n              shr\n                /* \"#utility.yul\":14469:14506   */\n              swap1\n              pop\n                /* \"#utility.yul\":14396:14513   */\n              swap3\n              swap2\n              pop\n              pop\n              jump\t// out\n                /* \"#utility.yul\":14519:14688   */\n            tag_151:\n                /* \"#utility.yul\":14563:14569   */\n              0x00\n                /* \"#utility.yul\":14596:14647   */\n              tag_312\n                /* \"#utility.yul\":14644:14645   */\n              0x00\n                /* \"#utility.yul\":14640:14646   */\n              not\n                /* \"#utility.yul\":14632:14637   */\n              dup5\n                /* \"#utility.yul\":14629:14630   */\n              0x08\n                /* \"#utility.yul\":14625:14638   */\n              mul\n                /* \"#utility.yul\":14596:14647   */\n              tag_150\n              jump\t// in\n            tag_312:\n                /* \"#utility.yul\":14592:14648   */\n              not\n                /* \"#utility.yul\":14677:14681   */\n              dup1\n                /* \"#utility.yul\":14671:14675   */\n              dup4\n                /* \"#utility.yul\":14667:14682   */\n              and\n                /* \"#utility.yul\":14657:14682   */\n              swap2\n              pop\n                /* \"#utility.yul\":14570:14688   */\n              pop\n                /* \"#utility.yul\":14519:14688   */\n              swap3\n              swap2\n              pop\n              pop\n              jump\t// out\n                /* \"#utility.yul\":14693:14988   */\n            tag_152:\n                /* \"#utility.yul\":14769:14773   */\n              0x00\n                /* \"#utility.yul\":14915:14944   */\n              tag_314\n                /* \"#utility.yul\":14940:14943   */\n              dup4\n                /* \"#utility.yul\":14934:14938   */\n              dup4\n                /* \"#utility.yul\":14915:14944   */\n              tag_151\n              jump\t// in\n            tag_314:\n                /* \"#utility.yul\":14907:14944   */\n              swap2\n              pop\n                /* \"#utility.yul\":14977:14980   */\n              dup3\n                /* \"#utility.yul\":14974:14975   */\n              0x02\n                /* \"#utility.yul\":14970:14981   */\n              mul\n                /* \"#utility.yul\":14964:14968   */\n              dup3\n                /* \"#utility.yul\":14961:14982   */\n              or\n                /* \"#utility.yul\":14953:14982   */\n              swap1\n              pop\n                /* \"#utility.yul\":14693:14988   */\n              swap3\n              swap2\n              pop\n              pop\n              jump\t// out\n                /* \"#utility.yul\":14993:16388   */\n            tag_84:\n                /* \"#utility.yul\":15110:15147   */\n              tag_316\n                /* \"#utility.yul\":15143:15146   */\n              dup3\n                /* \"#utility.yul\":15110:15147   */\n              tag_124\n              jump\t// in\n            tag_316:\n                /* \"#utility.yul\":15212:15230   */\n              0xffffffffffffffff\n                /* \"#utility.yul\":15204:15210   */\n              dup2\n                /* \"#utility.yul\":15201:15231   */\n              gt\n                /* \"#utility.yul\":15198:15254   */\n              iszero\n              tag_317\n              jumpi\n                /* \"#utility.yul\":15234:15252   */\n              tag_318\n              tag_117\n              jump\t// in\n            tag_318:\n                /* \"#utility.yul\":15198:15254   */\n            tag_317:\n                /* \"#utility.yul\":15278:15316   */\n              tag_319\n                /* \"#utility.yul\":15310:15314   */\n              dup3\n                /* \"#utility.yul\":15304:15315   */\n              sload\n                /* \"#utility.yul\":15278:15316   */\n              tag_87\n              jump\t// in\n            tag_319:\n                /* \"#utility.yul\":15363:15430   */\n              tag_320\n                /* \"#utility.yul\":15423:15429   */\n              dup3\n                /* \"#utility.yul\":15415:15421   */\n              dup3\n                /* \"#utility.yul\":15409:15413   */\n              dup6\n                /* \"#utility.yul\":15363:15430   */\n              tag_149\n              jump\t// in\n            tag_320:\n                /* \"#utility.yul\":15457:15458   */\n              0x00\n                /* \"#utility.yul\":15481:15485   */\n              0x20\n                /* \"#utility.yul\":15468:15485   */\n              swap1\n              pop\n                /* \"#utility.yul\":15513:15515   */\n              0x1f\n                /* \"#utility.yul\":15505:15511   */\n              dup4\n                /* \"#utility.yul\":15502:15516   */\n              gt\n                /* \"#utility.yul\":15530:15531   */\n              0x01\n                /* \"#utility.yul\":15525:16143   */\n              dup2\n              eq\n              tag_322\n              jumpi\n                /* \"#utility.yul\":16187:16188   */\n              0x00\n                /* \"#utility.yul\":16204:16210   */\n              dup5\n                /* \"#utility.yul\":16201:16278   */\n              iszero\n              tag_323\n              jumpi\n                /* \"#utility.yul\":16253:16262   */\n              dup3\n                /* \"#utility.yul\":16248:16251   */\n              dup8\n                /* \"#utility.yul\":16244:16263   */\n              add\n                /* \"#utility.yul\":16238:16264   */\n              mload\n                /* \"#utility.yul\":16229:16264   */\n              swap1\n              pop\n                /* \"#utility.yul\":16201:16278   */\n            tag_323:\n                /* \"#utility.yul\":16304:16371   */\n              tag_324\n                /* \"#utility.yul\":16364:16370   */\n              dup6\n                /* \"#utility.yul\":16357:16362   */\n              dup3\n                /* \"#utility.yul\":16304:16371   */\n              tag_152\n              jump\t// in\n            tag_324:\n                /* \"#utility.yul\":16298:16302   */\n              dup7\n                /* \"#utility.yul\":16291:16372   */\n              sstore\n                /* \"#utility.yul\":16160:16382   */\n              pop\n                /* \"#utility.yul\":15495:16382   */\n              jump(tag_321)\n                /* \"#utility.yul\":15525:16143   */\n            tag_322:\n                /* \"#utility.yul\":15577:15581   */\n              0x1f\n                /* \"#utility.yul\":15573:15582   */\n              not\n                /* \"#utility.yul\":15565:15571   */\n              dup5\n                /* \"#utility.yul\":15561:15583   */\n              and\n                /* \"#utility.yul\":15611:15648   */\n              tag_325\n                /* \"#utility.yul\":15643:15647   */\n              dup7\n                /* \"#utility.yul\":15611:15648   */\n              tag_138\n              jump\t// in\n            tag_325:\n                /* \"#utility.yul\":15670:15671   */\n              0x00\n                /* \"#utility.yul\":15684:15892   */\n            tag_326:\n                /* \"#utility.yul\":15698:15705   */\n              dup3\n                /* \"#utility.yul\":15695:15696   */\n              dup2\n                /* \"#utility.yul\":15692:15706   */\n              lt\n                /* \"#utility.yul\":15684:15892   */\n              iszero\n              tag_328\n              jumpi\n                /* \"#utility.yul\":15777:15786   */\n              dup5\n                /* \"#utility.yul\":15772:15775   */\n              dup10\n                /* \"#utility.yul\":15768:15787   */\n              add\n                /* \"#utility.yul\":15762:15788   */\n              mload\n                /* \"#utility.yul\":15754:15760   */\n              dup3\n                /* \"#utility.yul\":15747:15789   */\n              sstore\n                /* \"#utility.yul\":15828:15829   */\n              0x01\n                /* \"#utility.yul\":15820:15826   */\n              dup3\n                /* \"#utility.yul\":15816:15830   */\n              add\n                /* \"#utility.yul\":15806:15830   */\n              swap2\n              pop\n                /* \"#utility.yul\":15875:15877   */\n              0x20\n                /* \"#utility.yul\":15864:15873   */\n              dup6\n                /* \"#utility.yul\":15860:15878   */\n              add\n                /* \"#utility.yul\":15847:15878   */\n              swap5\n              pop\n                /* \"#utility.yul\":15721:15725   */\n              0x20\n                /* \"#utility.yul\":15718:15719   */\n              dup2\n                /* \"#utility.yul\":15714:15726   */\n              add\n                /* \"#utility.yul\":15709:15726   */\n              swap1\n              pop\n                /* \"#utility.yul\":15684:15892   */\n              jump(tag_326)\n            tag_328:\n                /* \"#utility.yul\":15920:15926   */\n              dup7\n                /* \"#utility.yul\":15911:15918   */\n              dup4\n                /* \"#utility.yul\":15908:15927   */\n              lt\n                /* \"#utility.yul\":15905:16084   */\n              iszero\n              tag_329\n              jumpi\n                /* \"#utility.yul\":15978:15987   */\n              dup5\n                /* \"#utility.yul\":15973:15976   */\n              dup10\n                /* \"#utility.yul\":15969:15988   */\n              add\n                /* \"#utility.yul\":15963:15989   */\n              mload\n                /* \"#utility.yul\":16021:16069   */\n              tag_330\n                /* \"#utility.yul\":16063:16067   */\n              0x1f\n                /* \"#utility.yul\":16055:16061   */\n              dup10\n                /* \"#utility.yul\":16051:16068   */\n              and\n                /* \"#utility.yul\":16040:16049   */\n              dup3\n                /* \"#utility.yul\":16021:16069   */\n              tag_151\n              jump\t// in\n            tag_330:\n                /* \"#utility.yul\":16013:16019   */\n              dup4\n                /* \"#utility.yul\":16006:16070   */\n              sstore\n                /* \"#utility.yul\":15928:16084   */\n              pop\n                /* \"#utility.yul\":15905:16084   */\n            tag_329:\n                /* \"#utility.yul\":16130:16131   */\n              0x01\n                /* \"#utility.yul\":16126:16127   */\n              0x02\n                /* \"#utility.yul\":16118:16124   */\n              dup9\n                /* \"#utility.yul\":16114:16128   */\n              mul\n                /* \"#utility.yul\":16110:16132   */\n              add\n                /* \"#utility.yul\":16104:16108   */\n              dup9\n                /* \"#utility.yul\":16097:16133   */\n              sstore\n                /* \"#utility.yul\":15532:16143   */\n              pop\n              pop\n              pop\n                /* \"#utility.yul\":15495:16382   */\n            tag_321:\n              pop\n                /* \"#utility.yul\":15085:16388   */\n              pop\n              pop\n              pop\n                /* \"#utility.yul\":14993:16388   */\n              pop\n              pop\n              jump\t// out\n\n            auxdata: 0xa2646970667358221220830944dcd9ee1f4d4d4cc626497771be44ec4ea7fd92b4389d49361adcf325ad64736f6c63430008150033\n        }\n    }\n\n    auxdata: 0xa2646970667358221220b87b1e94aa4fe4e1520d79dc1876d71d31df352efde497a87e46d5072a29dd8564736f6c63430008150033\n}\n","bytecode":{"linkReferences":{},"object":"608060405234801561000f575f80fd5b506117f68061001d5f395ff3fe608060405234801561000f575f80fd5b506004361061003f575f3560e01c80634acb9d4f146100435780635d1c8599146100615780636fd7513014610091575b5f80fd5b61004b6100ad565b60405161005891906102fe565b60405180910390f35b61007b60048036038101906100769190610355565b610137565b604051610088919061038f565b60405180910390f35b6100ab60048036038101906100a69190610355565b610171565b005b60605f80548060200260200160405190810160405280929190818152602001828054801561012d57602002820191905f5260205f20905b815f9054906101000a900473ffffffffffffffffffffffffffffffffffffffff1673ffffffffffffffffffffffffffffffffffffffff16815260200190600101908083116100e4575b5050505050905090565b5f8181548110610145575f80fd5b905f5260205f20015f915054906101000a900473ffffffffffffffffffffffffffffffffffffffff1681565b5f81336040516101809061020a565b61018b9291906103b7565b604051809103905ff0801580156101a4573d5f803e3d5ffd5b5090505f81908060018154018082558091505060019003905f5260205f20015f9091909190916101000a81548173ffffffffffffffffffffffffffffffffffffffff021916908373ffffffffffffffffffffffffffffffffffffffff1602179055505050565b6113e2806103df83390190565b5f81519050919050565b5f82825260208201905092915050565b5f819050602082019050919050565b5f73ffffffffffffffffffffffffffffffffffffffff82169050919050565b5f61026982610240565b9050919050565b6102798161025f565b82525050565b5f61028a8383610270565b60208301905092915050565b5f602082019050919050565b5f6102ac82610217565b6102b68185610221565b93506102c183610231565b805f5b838110156102f15781516102d8888261027f565b97506102e383610296565b9250506001810190506102c4565b5085935050505092915050565b5f6020820190508181035f83015261031681846102a2565b905092915050565b5f80fd5b5f819050919050565b61033481610322565b811461033e575f80fd5b50565b5f8135905061034f8161032b565b92915050565b5f6020828403121561036a5761036961031e565b5b5f61037784828501610341565b91505092915050565b6103898161025f565b82525050565b5f6020820190506103a25f830184610380565b92915050565b6103b181610322565b82525050565b5f6040820190506103ca5f8301856103a8565b6103d76020830184610380565b939250505056fe60a060405234801562000010575f80fd5b50604051620013e2380380620013e2833981810160405281019062000036919062000123565b8060025f6101000a81548173ffffffffffffffffffffffffffffffffffffffff021916908373ffffffffffffffffffffffffffffffffffffffff1602179055508160808181525050505062000168565b5f80fd5b5f819050919050565b6200009e816200008a565b8114620000a9575f80fd5b50565b5f81519050620000bc8162000093565b92915050565b5f73ffffffffffffffffffffffffffffffffffffffff82169050919050565b5f620000ed82620000c2565b9050919050565b620000ff81620000e1565b81146200010a575f80fd5b50565b5f815190506200011d81620000f4565b92915050565b5f80604083850312156200013c576200013b62000086565b5b5f6200014b85828601620000ac565b92505060206200015e858286016200010d565b9150509250929050565b60805161125a620001885f395f81816106ea015261093e015261125a5ff3fe608060405260043610610090575f3560e01c80639fb42b1f116100585780639fb42b1f14610174578063c58343ef1461019e578063d7bb99ba146101de578063d7d1bbdb146101e8578063f84038b11461021057610090565b806303441006146100945780630a144391146100bc578063481c6a75146100f857806382fde093146101225780638a9cfd551461014c575b5f80fd5b34801561009f575f80fd5b506100ba60048036038101906100b591906109a6565b61023a565b005b3480156100c7575f80fd5b506100e260048036038101906100dd9190610a2b565b610462565b6040516100ef9190610a70565b60405180910390f35b348015610103575f80fd5b5061010c61047f565b6040516101199190610a98565b60405180910390f35b34801561012d575f80fd5b506101366104a4565b6040516101439190610ac0565b60405180910390f35b348015610157575f80fd5b50610172600480360381019061016d9190610c15565b6104aa565b005b34801561017f575f80fd5b506101886105e8565b6040516101959190610ac0565b60405180910390f35b3480156101a9575f80fd5b506101c460048036038101906101bf91906109a6565b6105ed565b6040516101d5959493929190610cfb565b60405180910390f35b6101e66106e8565b005b3480156101f3575f80fd5b5061020e600480360381019061020991906109a6565b6107b0565b005b34801561021b575f80fd5b5061022461093b565b6040516102319190610ac0565b60405180910390f35b60025f9054906101000a900473ffffffffffffffffffffffffffffffffffffffff1673ffffffffffffffffffffffffffffffffffffffff163373ffffffffffffffffffffffffffffffffffffffff16146102c9576040517f08c379a00000000000000000000000000000000000000000000000000000000081526004016102c090610dc3565b60405180910390fd5b5f60015f8381526020019081526020015f2090508060020160149054906101000a900460ff1615610326576040517fbef8947700000000000000000000000000000000000000000000000000000000815260040160405180910390fd5b60026004546103359190610e3b565b816003015411610371576040517fe3de2eb600000000000000000000000000000000000000000000000000000000815260040160405180910390fd5b5f816002015f9054906101000a900473ffffffffffffffffffffffffffffffffffffffff1673ffffffffffffffffffffffffffffffffffffffff1682600101546040516103bd90610e98565b5f6040518083038185875af1925050503d805f81146103f7576040519150601f19603f3d011682016040523d82523d5f602084013e6103fc565b606091505b5050905080610440576040517f08c379a000000000000000000000000000000000000000000000000000000000815260040161043790610ef6565b60405180910390fd5b60018260020160146101000a81548160ff021916908315150217905550505050565b6003602052805f5260405f205f915054906101000a900460ff1681565b60025f9054906101000a900473ffffffffffffffffffffffffffffffffffffffff1681565b60045481565b60025f9054906101000a900473ffffffffffffffffffffffffffffffffffffffff1673ffffffffffffffffffffffffffffffffffffffff163373ffffffffffffffffffffffffffffffffffffffff1614610539576040517f08c379a000000000000000000000000000000000000000000000000000000000815260040161053090610dc3565b60405180910390fd5b5f60015f805f81548092919061054e90610f14565b9190505581526020019081526020015f20905083815f0190816105719190611155565b5082816001018190555081816002015f6101000a81548173ffffffffffffffffffffffffffffffffffffffff021916908373ffffffffffffffffffffffffffffffffffffffff1602179055505f8160020160146101000a81548160ff0219169083151502179055505f816003018190555050505050565b5f5481565b60605f805f805f60015f8881526020019081526020015f209050805f018160010154826002015f9054906101000a900473ffffffffffffffffffffffffffffffffffffffff168360020160149054906101000a900460ff16846003015484805461065690610f88565b80601f016020809104026020016040519081016040528092919081815260200182805461068290610f88565b80156106cd5780601f106106a4576101008083540402835291602001916106cd565b820191905f5260205f20905b8154815290600101906020018083116106b057829003601f168201915b50505050509450955095509550955095505091939590929450565b7f0000000000000000000000000000000000000000000000000000000000000000341015610742576040517f6f506f0700000000000000000000000000000000000000000000000000000000815260040160405180910390fd5b600160035f3373ffffffffffffffffffffffffffffffffffffffff1673ffffffffffffffffffffffffffffffffffffffff1681526020019081526020015f205f6101000a81548160ff02191690831515021790555060045f8154809291906107a990610f14565b9190505550565b5f60015f8381526020019081526020015f20905060035f3373ffffffffffffffffffffffffffffffffffffffff1673ffffffffffffffffffffffffffffffffffffffff1681526020019081526020015f205f9054906101000a900460ff16610844576040517f2e4557c200000000000000000000000000000000000000000000000000000000815260040160405180910390fd5b806004015f3373ffffffffffffffffffffffffffffffffffffffff1673ffffffffffffffffffffffffffffffffffffffff1681526020019081526020015f205f9054906101000a900460ff16156108c7576040517f72e3d32300000000000000000000000000000000000000000000000000000000815260040160405180910390fd5b6001816004015f3373ffffffffffffffffffffffffffffffffffffffff1673ffffffffffffffffffffffffffffffffffffffff1681526020019081526020015f205f6101000a81548160ff021916908315150217905550806003015f81548092919061093290610f14565b91905055505050565b5f7f0000000000000000000000000000000000000000000000000000000000000000905090565b5f604051905090565b5f80fd5b5f80fd5b5f819050919050565b61098581610973565b811461098f575f80fd5b50565b5f813590506109a08161097c565b92915050565b5f602082840312156109bb576109ba61096b565b5b5f6109c884828501610992565b91505092915050565b5f73ffffffffffffffffffffffffffffffffffffffff82169050919050565b5f6109fa826109d1565b9050919050565b610a0a816109f0565b8114610a14575f80fd5b50565b5f81359050610a2581610a01565b92915050565b5f60208284031215610a4057610a3f61096b565b5b5f610a4d84828501610a17565b91505092915050565b5f8115159050919050565b610a6a81610a56565b82525050565b5f602082019050610a835f830184610a61565b92915050565b610a92816109f0565b82525050565b5f602082019050610aab5f830184610a89565b92915050565b610aba81610973565b82525050565b5f602082019050610ad35f830184610ab1565b92915050565b5f80fd5b5f80fd5b5f601f19601f8301169050919050565b7f4e487b71000000000000000000000000000000000000000000000000000000005f52604160045260245ffd5b610b2782610ae1565b810181811067ffffffffffffffff82111715610b4657610b45610af1565b5b80604052505050565b5f610b58610962565b9050610b648282610b1e565b919050565b5f67ffffffffffffffff821115610b8357610b82610af1565b5b610b8c82610ae1565b9050602081019050919050565b828183375f83830152505050565b5f610bb9610bb484610b69565b610b4f565b905082815260208101848484011115610bd557610bd4610add565b5b610be0848285610b99565b509392505050565b5f82601f830112610bfc57610bfb610ad9565b5b8135610c0c848260208601610ba7565b91505092915050565b5f805f60608486031215610c2c57610c2b61096b565b5b5f84013567ffffffffffffffff811115610c4957610c4861096f565b5b610c5586828701610be8565b9350506020610c6686828701610992565b9250506040610c7786828701610a17565b9150509250925092565b5f81519050919050565b5f82825260208201905092915050565b5f5b83811015610cb8578082015181840152602081019050610c9d565b5f8484015250505050565b5f610ccd82610c81565b610cd78185610c8b565b9350610ce7818560208601610c9b565b610cf081610ae1565b840191505092915050565b5f60a0820190508181035f830152610d138188610cc3565b9050610d226020830187610ab1565b610d2f6040830186610a89565b610d3c6060830185610a61565b610d496080830184610ab1565b9695505050505050565b7f4f6e6c79206d616e616765722063616e2063616c6c20746869732066756e63745f8201527f696f6e2e00000000000000000000000000000000000000000000000000000000602082015250565b5f610dad602483610c8b565b9150610db882610d53565b604082019050919050565b5f6020820190508181035f830152610dda81610da1565b9050919050565b7f4e487b71000000000000000000000000000000000000000000000000000000005f52601260045260245ffd5b7f4e487b71000000000000000000000000000000000000000000000000000000005f52601160045260245ffd5b5f610e4582610973565b9150610e5083610973565b925082610e6057610e5f610de1565b5b828204905092915050565b5f81905092915050565b50565b5f610e835f83610e6b565b9150610e8e82610e75565b5f82019050919050565b5f610ea282610e78565b9150819050919050565b7f43616c6c206661696c65642e00000000000000000000000000000000000000005f82015250565b5f610ee0600c83610c8b565b9150610eeb82610eac565b602082019050919050565b5f6020820190508181035f830152610f0d81610ed4565b9050919050565b5f610f1e82610973565b91507fffffffffffffffffffffffffffffffffffffffffffffffffffffffffffffffff8203610f5057610f4f610e0e565b5b600182019050919050565b7f4e487b71000000000000000000000000000000000000000000000000000000005f52602260045260245ffd5b5f6002820490506001821680610f9f57607f821691505b602082108103610fb257610fb1610f5b565b5b50919050565b5f819050815f5260205f209050919050565b5f6020601f8301049050919050565b5f82821b905092915050565b5f600883026110147fffffffffffffffffffffffffffffffffffffffffffffffffffffffffffffffff82610fd9565b61101e8683610fd9565b95508019841693508086168417925050509392505050565b5f819050919050565b5f61105961105461104f84610973565b611036565b610973565b9050919050565b5f819050919050565b6110728361103f565b61108661107e82611060565b848454610fe5565b825550505050565b5f90565b61109a61108e565b6110a5818484611069565b505050565b5b818110156110c8576110bd5f82611092565b6001810190506110ab565b5050565b601f82111561110d576110de81610fb8565b6110e784610fca565b810160208510156110f6578190505b61110a61110285610fca565b8301826110aa565b50505b505050565b5f82821c905092915050565b5f61112d5f1984600802611112565b1980831691505092915050565b5f611145838361111e565b9150826002028217905092915050565b61115e82610c81565b67ffffffffffffffff81111561117757611176610af1565b5b6111818254610f88565b61118c8282856110cc565b5f60209050601f8311600181146111bd575f84156111ab578287015190505b6111b5858261113a565b86555061121c565b601f1984166111cb86610fb8565b5f5b828110156111f2578489015182556001820191506020850194506020810190506111cd565b8683101561120f578489015161120b601f89168261111e565b8355505b6001600288020188555050505b50505050505056fea2646970667358221220830944dcd9ee1f4d4d4cc626497771be44ec4ea7fd92b4389d49361adcf325ad64736f6c63430008150033a2646970667358221220b87b1e94aa4fe4e1520d79dc1876d71d31df352efde497a87e46d5072a29dd8564736f6c63430008150033","opcodes":"PUSH1 0x80 PUSH1 0x40 MSTORE CALLVALUE DUP1 ISZERO PUSH2 0xF JUMPI PUSH0 DUP1 REVERT JUMPDEST POP PUSH2 0x17F6 DUP1 PUSH2 0x1D PUSH0 CODECOPY PUSH0 RETURN INVALID PUSH1 0x80 PUSH1 0x40 MSTORE CALLVALUE DUP1 ISZERO PUSH2 0xF JUMPI PUSH0 DUP1 REVERT JUMPDEST POP PUSH1 0x4 CALLDATASIZE LT PUSH2 0x3F JUMPI PUSH0 CALLDATALOAD PUSH1 0xE0 SHR DUP1 PUSH4 0x4ACB9D4F EQ PUSH2 0x43 JUMPI DUP1 PUSH4 0x5D1C8599 EQ PUSH2 0x61 JUMPI DUP1 PUSH4 0x6FD75130 EQ PUSH2 0x91 JUMPI JUMPDEST PUSH0 DUP1 REVERT JUMPDEST PUSH2 0x4B PUSH2 0xAD JUMP JUMPDEST PUSH1 0x40 MLOAD PUSH2 0x58 SWAP2 SWAP1 PUSH2 0x2FE JUMP JUMPDEST PUSH1 0x40 MLOAD DUP1 SWAP2 SUB SWAP1 RETURN JUMPDEST PUSH2 0x7B PUSH1 0x4 DUP1 CALLDATASIZE SUB DUP2 ADD SWAP1 PUSH2 0x76 SWAP2 SWAP1 PUSH2 0x355 JUMP JUMPDEST PUSH2 0x137 JUMP JUMPDEST PUSH1 0x40 MLOAD PUSH2 0x88 SWAP2 SWAP1 PUSH2 0x38F JUMP JUMPDEST PUSH1 0x40 MLOAD DUP1 SWAP2 SUB SWAP1 RETURN JUMPDEST PUSH2 0xAB PUSH1 0x4 DUP1 CALLDATASIZE SUB DUP2 ADD SWAP1 PUSH2 0xA6 SWAP2 SWAP1 PUSH2 0x355 JUMP JUMPDEST PUSH2 0x171 JUMP JUMPDEST STOP JUMPDEST PUSH1 0x60 PUSH0 DUP1 SLOAD DUP1 PUSH1 0x20 MUL PUSH1 0x20 ADD PUSH1 0x40 MLOAD SWAP1 DUP2 ADD PUSH1 0x40 MSTORE DUP1 SWAP3 SWAP2 SWAP1 DUP2 DUP2 MSTORE PUSH1 0x20 ADD DUP3 DUP1 SLOAD DUP1 ISZERO PUSH2 0x12D JUMPI PUSH1 0x20 MUL DUP3 ADD SWAP2 SWAP1 PUSH0 MSTORE PUSH1 0x20 PUSH0 KECCAK256 SWAP1 JUMPDEST DUP2 PUSH0 SWAP1 SLOAD SWAP1 PUSH2 0x100 EXP SWAP1 DIV PUSH20 0xFFFFFFFFFFFFFFFFFFFFFFFFFFFFFFFFFFFFFFFF AND PUSH20 0xFFFFFFFFFFFFFFFFFFFFFFFFFFFFFFFFFFFFFFFF AND DUP2 MSTORE PUSH1 0x20 ADD SWAP1 PUSH1 0x1 ADD SWAP1 DUP1 DUP4 GT PUSH2 0xE4 JUMPI JUMPDEST POP POP POP POP POP SWAP1 POP SWAP1 JUMP JUMPDEST PUSH0 DUP2 DUP2 SLOAD DUP2 LT PUSH2 0x145 JUMPI PUSH0 DUP1 REVERT JUMPDEST SWAP1 PUSH0 MSTORE PUSH1 0x20 PUSH0 KECCAK256 ADD PUSH0 SWAP2 POP SLOAD SWAP1 PUSH2 0x100 EXP SWAP1 DIV PUSH20 0xFFFFFFFFFFFFFFFFFFFFFFFFFFFFFFFFFFFFFFFF AND DUP2 JUMP JUMPDEST PUSH0 DUP2 CALLER PUSH1 0x40 MLOAD PUSH2 0x180 SWAP1 PUSH2 0x20A JUMP JUMPDEST PUSH2 0x18B SWAP3 SWAP2 SWAP1 PUSH2 0x3B7 JUMP JUMPDEST PUSH1 0x40 MLOAD DUP1 SWAP2 SUB SWAP1 PUSH0 CREATE DUP1 ISZERO DUP1 ISZERO PUSH2 0x1A4 JUMPI RETURNDATASIZE PUSH0 DUP1 RETURNDATACOPY RETURNDATASIZE PUSH0 REVERT JUMPDEST POP SWAP1 POP PUSH0 DUP2 SWAP1 DUP1 PUSH1 0x1 DUP2 SLOAD ADD DUP1 DUP3 SSTORE DUP1 SWAP2 POP POP PUSH1 0x1 SWAP1 SUB SWAP1 PUSH0 MSTORE PUSH1 0x20 PUSH0 KECCAK256 ADD PUSH0 SWAP1 SWAP2 SWAP1 SWAP2 SWAP1 SWAP2 PUSH2 0x100 EXP DUP2 SLOAD DUP2 PUSH20 0xFFFFFFFFFFFFFFFFFFFFFFFFFFFFFFFFFFFFFFFF MUL NOT AND SWAP1 DUP4 PUSH20 0xFFFFFFFFFFFFFFFFFFFFFFFFFFFFFFFFFFFFFFFF AND MUL OR SWAP1 SSTORE POP POP POP JUMP JUMPDEST PUSH2 0x13E2 DUP1 PUSH2 0x3DF DUP4 CODECOPY ADD SWAP1 JUMP JUMPDEST PUSH0 DUP2 MLOAD SWAP1 POP SWAP2 SWAP1 POP JUMP JUMPDEST PUSH0 DUP3 DUP3 MSTORE PUSH1 0x20 DUP3 ADD SWAP1 POP SWAP3 SWAP2 POP POP JUMP JUMPDEST PUSH0 DUP2 SWAP1 POP PUSH1 0x20 DUP3 ADD SWAP1 POP SWAP2 SWAP1 POP JUMP JUMPDEST PUSH0 PUSH20 0xFFFFFFFFFFFFFFFFFFFFFFFFFFFFFFFFFFFFFFFF DUP3 AND SWAP1 POP SWAP2 SWAP1 POP JUMP JUMPDEST PUSH0 PUSH2 0x269 DUP3 PUSH2 0x240 JUMP JUMPDEST SWAP1 POP SWAP2 SWAP1 POP JUMP JUMPDEST PUSH2 0x279 DUP2 PUSH2 0x25F JUMP JUMPDEST DUP3 MSTORE POP POP JUMP JUMPDEST PUSH0 PUSH2 0x28A DUP4 DUP4 PUSH2 0x270 JUMP JUMPDEST PUSH1 0x20 DUP4 ADD SWAP1 POP SWAP3 SWAP2 POP POP JUMP JUMPDEST PUSH0 PUSH1 0x20 DUP3 ADD SWAP1 POP SWAP2 SWAP1 POP JUMP JUMPDEST PUSH0 PUSH2 0x2AC DUP3 PUSH2 0x217 JUMP JUMPDEST PUSH2 0x2B6 DUP2 DUP6 PUSH2 0x221 JUMP JUMPDEST SWAP4 POP PUSH2 0x2C1 DUP4 PUSH2 0x231 JUMP JUMPDEST DUP1 PUSH0 JUMPDEST DUP4 DUP2 LT ISZERO PUSH2 0x2F1 JUMPI DUP2 MLOAD PUSH2 0x2D8 DUP9 DUP3 PUSH2 0x27F JUMP JUMPDEST SWAP8 POP PUSH2 0x2E3 DUP4 PUSH2 0x296 JUMP JUMPDEST SWAP3 POP POP PUSH1 0x1 DUP2 ADD SWAP1 POP PUSH2 0x2C4 JUMP JUMPDEST POP DUP6 SWAP4 POP POP POP POP SWAP3 SWAP2 POP POP JUMP JUMPDEST PUSH0 PUSH1 0x20 DUP3 ADD SWAP1 POP DUP2 DUP2 SUB PUSH0 DUP4 ADD MSTORE PUSH2 0x316 DUP2 DUP5 PUSH2 0x2A2 JUMP JUMPDEST SWAP1 POP SWAP3 SWAP2 POP POP JUMP JUMPDEST PUSH0 DUP1 REVERT JUMPDEST PUSH0 DUP2 SWAP1 POP SWAP2 SWAP1 POP JUMP JUMPDEST PUSH2 0x334 DUP2 PUSH2 0x322 JUMP JUMPDEST DUP2 EQ PUSH2 0x33E JUMPI PUSH0 DUP1 REVERT JUMPDEST POP JUMP JUMPDEST PUSH0 DUP2 CALLDATALOAD SWAP1 POP PUSH2 0x34F DUP2 PUSH2 0x32B JUMP JUMPDEST SWAP3 SWAP2 POP POP JUMP JUMPDEST PUSH0 PUSH1 0x20 DUP3 DUP5 SUB SLT ISZERO PUSH2 0x36A JUMPI PUSH2 0x369 PUSH2 0x31E JUMP JUMPDEST JUMPDEST PUSH0 PUSH2 0x377 DUP5 DUP3 DUP6 ADD PUSH2 0x341 JUMP JUMPDEST SWAP2 POP POP SWAP3 SWAP2 POP POP JUMP JUMPDEST PUSH2 0x389 DUP2 PUSH2 0x25F JUMP JUMPDEST DUP3 MSTORE POP POP JUMP JUMPDEST PUSH0 PUSH1 0x20 DUP3 ADD SWAP1 POP PUSH2 0x3A2 PUSH0 DUP4 ADD DUP5 PUSH2 0x380 JUMP JUMPDEST SWAP3 SWAP2 POP POP JUMP JUMPDEST PUSH2 0x3B1 DUP2 PUSH2 0x322 JUMP JUMPDEST DUP3 MSTORE POP POP JUMP JUMPDEST PUSH0 PUSH1 0x40 DUP3 ADD SWAP1 POP PUSH2 0x3CA PUSH0 DUP4 ADD DUP6 PUSH2 0x3A8 JUMP JUMPDEST PUSH2 0x3D7 PUSH1 0x20 DUP4 ADD DUP5 PUSH2 0x380 JUMP JUMPDEST SWAP4 SWAP3 POP POP POP JUMP INVALID PUSH1 0xA0 PUSH1 0x40 MSTORE CALLVALUE DUP1 ISZERO PUSH3 0x10 JUMPI PUSH0 DUP1 REVERT JUMPDEST POP PUSH1 0x40 MLOAD PUSH3 0x13E2 CODESIZE SUB DUP1 PUSH3 0x13E2 DUP4 CODECOPY DUP2 DUP2 ADD PUSH1 0x40 MSTORE DUP2 ADD SWAP1 PUSH3 0x36 SWAP2 SWAP1 PUSH3 0x123 JUMP JUMPDEST DUP1 PUSH1 0x2 PUSH0 PUSH2 0x100 EXP DUP2 SLOAD DUP2 PUSH20 0xFFFFFFFFFFFFFFFFFFFFFFFFFFFFFFFFFFFFFFFF MUL NOT AND SWAP1 DUP4 PUSH20 0xFFFFFFFFFFFFFFFFFFFFFFFFFFFFFFFFFFFFFFFF AND MUL OR SWAP1 SSTORE POP DUP2 PUSH1 0x80 DUP2 DUP2 MSTORE POP POP POP POP PUSH3 0x168 JUMP JUMPDEST PUSH0 DUP1 REVERT JUMPDEST PUSH0 DUP2 SWAP1 POP SWAP2 SWAP1 POP JUMP JUMPDEST PUSH3 0x9E DUP2 PUSH3 0x8A JUMP JUMPDEST DUP2 EQ PUSH3 0xA9 JUMPI PUSH0 DUP1 REVERT JUMPDEST POP JUMP JUMPDEST PUSH0 DUP2 MLOAD SWAP1 POP PUSH3 0xBC DUP2 PUSH3 0x93 JUMP JUMPDEST SWAP3 SWAP2 POP POP JUMP JUMPDEST PUSH0 PUSH20 0xFFFFFFFFFFFFFFFFFFFFFFFFFFFFFFFFFFFFFFFF DUP3 AND SWAP1 POP SWAP2 SWAP1 POP JUMP JUMPDEST PUSH0 PUSH3 0xED DUP3 PUSH3 0xC2 JUMP JUMPDEST SWAP1 POP SWAP2 SWAP1 POP JUMP JUMPDEST PUSH3 0xFF DUP2 PUSH3 0xE1 JUMP JUMPDEST DUP2 EQ PUSH3 0x10A JUMPI PUSH0 DUP1 REVERT JUMPDEST POP JUMP JUMPDEST PUSH0 DUP2 MLOAD SWAP1 POP PUSH3 0x11D DUP2 PUSH3 0xF4 JUMP JUMPDEST SWAP3 SWAP2 POP POP JUMP JUMPDEST PUSH0 DUP1 PUSH1 0x40 DUP4 DUP6 SUB SLT ISZERO PUSH3 0x13C JUMPI PUSH3 0x13B PUSH3 0x86 JUMP JUMPDEST JUMPDEST PUSH0 PUSH3 0x14B DUP6 DUP3 DUP7 ADD PUSH3 0xAC JUMP JUMPDEST SWAP3 POP POP PUSH1 0x20 PUSH3 0x15E DUP6 DUP3 DUP7 ADD PUSH3 0x10D JUMP JUMPDEST SWAP2 POP POP SWAP3 POP SWAP3 SWAP1 POP JUMP JUMPDEST PUSH1 0x80 MLOAD PUSH2 0x125A PUSH3 0x188 PUSH0 CODECOPY PUSH0 DUP2 DUP2 PUSH2 0x6EA ADD MSTORE PUSH2 0x93E ADD MSTORE PUSH2 0x125A PUSH0 RETURN INVALID PUSH1 0x80 PUSH1 0x40 MSTORE PUSH1 0x4 CALLDATASIZE LT PUSH2 0x90 JUMPI PUSH0 CALLDATALOAD PUSH1 0xE0 SHR DUP1 PUSH4 0x9FB42B1F GT PUSH2 0x58 JUMPI DUP1 PUSH4 0x9FB42B1F EQ PUSH2 0x174 JUMPI DUP1 PUSH4 0xC58343EF EQ PUSH2 0x19E JUMPI DUP1 PUSH4 0xD7BB99BA EQ PUSH2 0x1DE JUMPI DUP1 PUSH4 0xD7D1BBDB EQ PUSH2 0x1E8 JUMPI DUP1 PUSH4 0xF84038B1 EQ PUSH2 0x210 JUMPI PUSH2 0x90 JUMP JUMPDEST DUP1 PUSH4 0x3441006 EQ PUSH2 0x94 JUMPI DUP1 PUSH4 0xA144391 EQ PUSH2 0xBC JUMPI DUP1 PUSH4 0x481C6A75 EQ PUSH2 0xF8 JUMPI DUP1 PUSH4 0x82FDE093 EQ PUSH2 0x122 JUMPI DUP1 PUSH4 0x8A9CFD55 EQ PUSH2 0x14C JUMPI JUMPDEST PUSH0 DUP1 REVERT JUMPDEST CALLVALUE DUP1 ISZERO PUSH2 0x9F JUMPI PUSH0 DUP1 REVERT JUMPDEST POP PUSH2 0xBA PUSH1 0x4 DUP1 CALLDATASIZE SUB DUP2 ADD SWAP1 PUSH2 0xB5 SWAP2 SWAP1 PUSH2 0x9A6 JUMP JUMPDEST PUSH2 0x23A JUMP JUMPDEST STOP JUMPDEST CALLVALUE DUP1 ISZERO PUSH2 0xC7 JUMPI PUSH0 DUP1 REVERT JUMPDEST POP PUSH2 0xE2 PUSH1 0x4 DUP1 CALLDATASIZE SUB DUP2 ADD SWAP1 PUSH2 0xDD SWAP2 SWAP1 PUSH2 0xA2B JUMP JUMPDEST PUSH2 0x462 JUMP JUMPDEST PUSH1 0x40 MLOAD PUSH2 0xEF SWAP2 SWAP1 PUSH2 0xA70 JUMP JUMPDEST PUSH1 0x40 MLOAD DUP1 SWAP2 SUB SWAP1 RETURN JUMPDEST CALLVALUE DUP1 ISZERO PUSH2 0x103 JUMPI PUSH0 DUP1 REVERT JUMPDEST POP PUSH2 0x10C PUSH2 0x47F JUMP JUMPDEST PUSH1 0x40 MLOAD PUSH2 0x119 SWAP2 SWAP1 PUSH2 0xA98 JUMP JUMPDEST PUSH1 0x40 MLOAD DUP1 SWAP2 SUB SWAP1 RETURN JUMPDEST CALLVALUE DUP1 ISZERO PUSH2 0x12D JUMPI PUSH0 DUP1 REVERT JUMPDEST POP PUSH2 0x136 PUSH2 0x4A4 JUMP JUMPDEST PUSH1 0x40 MLOAD PUSH2 0x143 SWAP2 SWAP1 PUSH2 0xAC0 JUMP JUMPDEST PUSH1 0x40 MLOAD DUP1 SWAP2 SUB SWAP1 RETURN JUMPDEST CALLVALUE DUP1 ISZERO PUSH2 0x157 JUMPI PUSH0 DUP1 REVERT JUMPDEST POP PUSH2 0x172 PUSH1 0x4 DUP1 CALLDATASIZE SUB DUP2 ADD SWAP1 PUSH2 0x16D SWAP2 SWAP1 PUSH2 0xC15 JUMP JUMPDEST PUSH2 0x4AA JUMP JUMPDEST STOP JUMPDEST CALLVALUE DUP1 ISZERO PUSH2 0x17F JUMPI PUSH0 DUP1 REVERT JUMPDEST POP PUSH2 0x188 PUSH2 0x5E8 JUMP JUMPDEST PUSH1 0x40 MLOAD PUSH2 0x195 SWAP2 SWAP1 PUSH2 0xAC0 JUMP JUMPDEST PUSH1 0x40 MLOAD DUP1 SWAP2 SUB SWAP1 RETURN JUMPDEST CALLVALUE DUP1 ISZERO PUSH2 0x1A9 JUMPI PUSH0 DUP1 REVERT JUMPDEST POP PUSH2 0x1C4 PUSH1 0x4 DUP1 CALLDATASIZE SUB DUP2 ADD SWAP1 PUSH2 0x1BF SWAP2 SWAP1 PUSH2 0x9A6 JUMP JUMPDEST PUSH2 0x5ED JUMP JUMPDEST PUSH1 0x40 MLOAD PUSH2 0x1D5 SWAP6 SWAP5 SWAP4 SWAP3 SWAP2 SWAP1 PUSH2 0xCFB JUMP JUMPDEST PUSH1 0x40 MLOAD DUP1 SWAP2 SUB SWAP1 RETURN JUMPDEST PUSH2 0x1E6 PUSH2 0x6E8 JUMP JUMPDEST STOP JUMPDEST CALLVALUE DUP1 ISZERO PUSH2 0x1F3 JUMPI PUSH0 DUP1 REVERT JUMPDEST POP PUSH2 0x20E PUSH1 0x4 DUP1 CALLDATASIZE SUB DUP2 ADD SWAP1 PUSH2 0x209 SWAP2 SWAP1 PUSH2 0x9A6 JUMP JUMPDEST PUSH2 0x7B0 JUMP JUMPDEST STOP JUMPDEST CALLVALUE DUP1 ISZERO PUSH2 0x21B JUMPI PUSH0 DUP1 REVERT JUMPDEST POP PUSH2 0x224 PUSH2 0x93B JUMP JUMPDEST PUSH1 0x40 MLOAD PUSH2 0x231 SWAP2 SWAP1 PUSH2 0xAC0 JUMP JUMPDEST PUSH1 0x40 MLOAD DUP1 SWAP2 SUB SWAP1 RETURN JUMPDEST PUSH1 0x2 PUSH0 SWAP1 SLOAD SWAP1 PUSH2 0x100 EXP SWAP1 DIV PUSH20 0xFFFFFFFFFFFFFFFFFFFFFFFFFFFFFFFFFFFFFFFF AND PUSH20 0xFFFFFFFFFFFFFFFFFFFFFFFFFFFFFFFFFFFFFFFF AND CALLER PUSH20 0xFFFFFFFFFFFFFFFFFFFFFFFFFFFFFFFFFFFFFFFF AND EQ PUSH2 0x2C9 JUMPI PUSH1 0x40 MLOAD PUSH32 0x8C379A000000000000000000000000000000000000000000000000000000000 DUP2 MSTORE PUSH1 0x4 ADD PUSH2 0x2C0 SWAP1 PUSH2 0xDC3 JUMP JUMPDEST PUSH1 0x40 MLOAD DUP1 SWAP2 SUB SWAP1 REVERT JUMPDEST PUSH0 PUSH1 0x1 PUSH0 DUP4 DUP2 MSTORE PUSH1 0x20 ADD SWAP1 DUP2 MSTORE PUSH1 0x20 ADD PUSH0 KECCAK256 SWAP1 POP DUP1 PUSH1 0x2 ADD PUSH1 0x14 SWAP1 SLOAD SWAP1 PUSH2 0x100 EXP SWAP1 DIV PUSH1 0xFF AND ISZERO PUSH2 0x326 JUMPI PUSH1 0x40 MLOAD PUSH32 0xBEF8947700000000000000000000000000000000000000000000000000000000 DUP2 MSTORE PUSH1 0x4 ADD PUSH1 0x40 MLOAD DUP1 SWAP2 SUB SWAP1 REVERT JUMPDEST PUSH1 0x2 PUSH1 0x4 SLOAD PUSH2 0x335 SWAP2 SWAP1 PUSH2 0xE3B JUMP JUMPDEST DUP2 PUSH1 0x3 ADD SLOAD GT PUSH2 0x371 JUMPI PUSH1 0x40 MLOAD PUSH32 0xE3DE2EB600000000000000000000000000000000000000000000000000000000 DUP2 MSTORE PUSH1 0x4 ADD PUSH1 0x40 MLOAD DUP1 SWAP2 SUB SWAP1 REVERT JUMPDEST PUSH0 DUP2 PUSH1 0x2 ADD PUSH0 SWAP1 SLOAD SWAP1 PUSH2 0x100 EXP SWAP1 DIV PUSH20 0xFFFFFFFFFFFFFFFFFFFFFFFFFFFFFFFFFFFFFFFF AND PUSH20 0xFFFFFFFFFFFFFFFFFFFFFFFFFFFFFFFFFFFFFFFF AND DUP3 PUSH1 0x1 ADD SLOAD PUSH1 0x40 MLOAD PUSH2 0x3BD SWAP1 PUSH2 0xE98 JUMP JUMPDEST PUSH0 PUSH1 0x40 MLOAD DUP1 DUP4 SUB DUP2 DUP6 DUP8 GAS CALL SWAP3 POP POP POP RETURNDATASIZE DUP1 PUSH0 DUP2 EQ PUSH2 0x3F7 JUMPI PUSH1 0x40 MLOAD SWAP2 POP PUSH1 0x1F NOT PUSH1 0x3F RETURNDATASIZE ADD AND DUP3 ADD PUSH1 0x40 MSTORE RETURNDATASIZE DUP3 MSTORE RETURNDATASIZE PUSH0 PUSH1 0x20 DUP5 ADD RETURNDATACOPY PUSH2 0x3FC JUMP JUMPDEST PUSH1 0x60 SWAP2 POP JUMPDEST POP POP SWAP1 POP DUP1 PUSH2 0x440 JUMPI PUSH1 0x40 MLOAD PUSH32 0x8C379A000000000000000000000000000000000000000000000000000000000 DUP2 MSTORE PUSH1 0x4 ADD PUSH2 0x437 SWAP1 PUSH2 0xEF6 JUMP JUMPDEST PUSH1 0x40 MLOAD DUP1 SWAP2 SUB SWAP1 REVERT JUMPDEST PUSH1 0x1 DUP3 PUSH1 0x2 ADD PUSH1 0x14 PUSH2 0x100 EXP DUP2 SLOAD DUP2 PUSH1 0xFF MUL NOT AND SWAP1 DUP4 ISZERO ISZERO MUL OR SWAP1 SSTORE POP POP POP POP JUMP JUMPDEST PUSH1 0x3 PUSH1 0x20 MSTORE DUP1 PUSH0 MSTORE PUSH1 0x40 PUSH0 KECCAK256 PUSH0 SWAP2 POP SLOAD SWAP1 PUSH2 0x100 EXP SWAP1 DIV PUSH1 0xFF AND DUP2 JUMP JUMPDEST PUSH1 0x2 PUSH0 SWAP1 SLOAD SWAP1 PUSH2 0x100 EXP SWAP1 DIV PUSH20 0xFFFFFFFFFFFFFFFFFFFFFFFFFFFFFFFFFFFFFFFF AND DUP2 JUMP JUMPDEST PUSH1 0x4 SLOAD DUP2 JUMP JUMPDEST PUSH1 0x2 PUSH0 SWAP1 SLOAD SWAP1 PUSH2 0x100 EXP SWAP1 DIV PUSH20 0xFFFFFFFFFFFFFFFFFFFFFFFFFFFFFFFFFFFFFFFF AND PUSH20 0xFFFFFFFFFFFFFFFFFFFFFFFFFFFFFFFFFFFFFFFF AND CALLER PUSH20 0xFFFFFFFFFFFFFFFFFFFFFFFFFFFFFFFFFFFFFFFF AND EQ PUSH2 0x539 JUMPI PUSH1 0x40 MLOAD PUSH32 0x8C379A000000000000000000000000000000000000000000000000000000000 DUP2 MSTORE PUSH1 0x4 ADD PUSH2 0x530 SWAP1 PUSH2 0xDC3 JUMP JUMPDEST PUSH1 0x40 MLOAD DUP1 SWAP2 SUB SWAP1 REVERT JUMPDEST PUSH0 PUSH1 0x1 PUSH0 DUP1 PUSH0 DUP2 SLOAD DUP1 SWAP3 SWAP2 SWAP1 PUSH2 0x54E SWAP1 PUSH2 0xF14 JUMP JUMPDEST SWAP2 SWAP1 POP SSTORE DUP2 MSTORE PUSH1 0x20 ADD SWAP1 DUP2 MSTORE PUSH1 0x20 ADD PUSH0 KECCAK256 SWAP1 POP DUP4 DUP2 PUSH0 ADD SWAP1 DUP2 PUSH2 0x571 SWAP2 SWAP1 PUSH2 0x1155 JUMP JUMPDEST POP DUP3 DUP2 PUSH1 0x1 ADD DUP2 SWAP1 SSTORE POP DUP2 DUP2 PUSH1 0x2 ADD PUSH0 PUSH2 0x100 EXP DUP2 SLOAD DUP2 PUSH20 0xFFFFFFFFFFFFFFFFFFFFFFFFFFFFFFFFFFFFFFFF MUL NOT AND SWAP1 DUP4 PUSH20 0xFFFFFFFFFFFFFFFFFFFFFFFFFFFFFFFFFFFFFFFF AND MUL OR SWAP1 SSTORE POP PUSH0 DUP2 PUSH1 0x2 ADD PUSH1 0x14 PUSH2 0x100 EXP DUP2 SLOAD DUP2 PUSH1 0xFF MUL NOT AND SWAP1 DUP4 ISZERO ISZERO MUL OR SWAP1 SSTORE POP PUSH0 DUP2 PUSH1 0x3 ADD DUP2 SWAP1 SSTORE POP POP POP POP POP JUMP JUMPDEST PUSH0 SLOAD DUP2 JUMP JUMPDEST PUSH1 0x60 PUSH0 DUP1 PUSH0 DUP1 PUSH0 PUSH1 0x1 PUSH0 DUP9 DUP2 MSTORE PUSH1 0x20 ADD SWAP1 DUP2 MSTORE PUSH1 0x20 ADD PUSH0 KECCAK256 SWAP1 POP DUP1 PUSH0 ADD DUP2 PUSH1 0x1 ADD SLOAD DUP3 PUSH1 0x2 ADD PUSH0 SWAP1 SLOAD SWAP1 PUSH2 0x100 EXP SWAP1 DIV PUSH20 0xFFFFFFFFFFFFFFFFFFFFFFFFFFFFFFFFFFFFFFFF AND DUP4 PUSH1 0x2 ADD PUSH1 0x14 SWAP1 SLOAD SWAP1 PUSH2 0x100 EXP SWAP1 DIV PUSH1 0xFF AND DUP5 PUSH1 0x3 ADD SLOAD DUP5 DUP1 SLOAD PUSH2 0x656 SWAP1 PUSH2 0xF88 JUMP JUMPDEST DUP1 PUSH1 0x1F ADD PUSH1 0x20 DUP1 SWAP2 DIV MUL PUSH1 0x20 ADD PUSH1 0x40 MLOAD SWAP1 DUP2 ADD PUSH1 0x40 MSTORE DUP1 SWAP3 SWAP2 SWAP1 DUP2 DUP2 MSTORE PUSH1 0x20 ADD DUP3 DUP1 SLOAD PUSH2 0x682 SWAP1 PUSH2 0xF88 JUMP JUMPDEST DUP1 ISZERO PUSH2 0x6CD JUMPI DUP1 PUSH1 0x1F LT PUSH2 0x6A4 JUMPI PUSH2 0x100 DUP1 DUP4 SLOAD DIV MUL DUP4 MSTORE SWAP2 PUSH1 0x20 ADD SWAP2 PUSH2 0x6CD JUMP JUMPDEST DUP3 ADD SWAP2 SWAP1 PUSH0 MSTORE PUSH1 0x20 PUSH0 KECCAK256 SWAP1 JUMPDEST DUP2 SLOAD DUP2 MSTORE SWAP1 PUSH1 0x1 ADD SWAP1 PUSH1 0x20 ADD DUP1 DUP4 GT PUSH2 0x6B0 JUMPI DUP3 SWAP1 SUB PUSH1 0x1F AND DUP3 ADD SWAP2 JUMPDEST POP POP POP POP POP SWAP5 POP SWAP6 POP SWAP6 POP SWAP6 POP SWAP6 POP SWAP6 POP POP SWAP2 SWAP4 SWAP6 SWAP1 SWAP3 SWAP5 POP JUMP JUMPDEST PUSH32 0x0 CALLVALUE LT ISZERO PUSH2 0x742 JUMPI PUSH1 0x40 MLOAD PUSH32 0x6F506F0700000000000000000000000000000000000000000000000000000000 DUP2 MSTORE PUSH1 0x4 ADD PUSH1 0x40 MLOAD DUP1 SWAP2 SUB SWAP1 REVERT JUMPDEST PUSH1 0x1 PUSH1 0x3 PUSH0 CALLER PUSH20 0xFFFFFFFFFFFFFFFFFFFFFFFFFFFFFFFFFFFFFFFF AND PUSH20 0xFFFFFFFFFFFFFFFFFFFFFFFFFFFFFFFFFFFFFFFF AND DUP2 MSTORE PUSH1 0x20 ADD SWAP1 DUP2 MSTORE PUSH1 0x20 ADD PUSH0 KECCAK256 PUSH0 PUSH2 0x100 EXP DUP2 SLOAD DUP2 PUSH1 0xFF MUL NOT AND SWAP1 DUP4 ISZERO ISZERO MUL OR SWAP1 SSTORE POP PUSH1 0x4 PUSH0 DUP2 SLOAD DUP1 SWAP3 SWAP2 SWAP1 PUSH2 0x7A9 SWAP1 PUSH2 0xF14 JUMP JUMPDEST SWAP2 SWAP1 POP SSTORE POP JUMP JUMPDEST PUSH0 PUSH1 0x1 PUSH0 DUP4 DUP2 MSTORE PUSH1 0x20 ADD SWAP1 DUP2 MSTORE PUSH1 0x20 ADD PUSH0 KECCAK256 SWAP1 POP PUSH1 0x3 PUSH0 CALLER PUSH20 0xFFFFFFFFFFFFFFFFFFFFFFFFFFFFFFFFFFFFFFFF AND PUSH20 0xFFFFFFFFFFFFFFFFFFFFFFFFFFFFFFFFFFFFFFFF AND DUP2 MSTORE PUSH1 0x20 ADD SWAP1 DUP2 MSTORE PUSH1 0x20 ADD PUSH0 KECCAK256 PUSH0 SWAP1 SLOAD SWAP1 PUSH2 0x100 EXP SWAP1 DIV PUSH1 0xFF AND PUSH2 0x844 JUMPI PUSH1 0x40 MLOAD PUSH32 0x2E4557C200000000000000000000000000000000000000000000000000000000 DUP2 MSTORE PUSH1 0x4 ADD PUSH1 0x40 MLOAD DUP1 SWAP2 SUB SWAP1 REVERT JUMPDEST DUP1 PUSH1 0x4 ADD PUSH0 CALLER PUSH20 0xFFFFFFFFFFFFFFFFFFFFFFFFFFFFFFFFFFFFFFFF AND PUSH20 0xFFFFFFFFFFFFFFFFFFFFFFFFFFFFFFFFFFFFFFFF AND DUP2 MSTORE PUSH1 0x20 ADD SWAP1 DUP2 MSTORE PUSH1 0x20 ADD PUSH0 KECCAK256 PUSH0 SWAP1 SLOAD SWAP1 PUSH2 0x100 EXP SWAP1 DIV PUSH1 0xFF AND ISZERO PUSH2 0x8C7 JUMPI PUSH1 0x40 MLOAD PUSH32 0x72E3D32300000000000000000000000000000000000000000000000000000000 DUP2 MSTORE PUSH1 0x4 ADD PUSH1 0x40 MLOAD DUP1 SWAP2 SUB SWAP1 REVERT JUMPDEST PUSH1 0x1 DUP2 PUSH1 0x4 ADD PUSH0 CALLER PUSH20 0xFFFFFFFFFFFFFFFFFFFFFFFFFFFFFFFFFFFFFFFF AND PUSH20 0xFFFFFFFFFFFFFFFFFFFFFFFFFFFFFFFFFFFFFFFF AND DUP2 MSTORE PUSH1 0x20 ADD SWAP1 DUP2 MSTORE PUSH1 0x20 ADD PUSH0 KECCAK256 PUSH0 PUSH2 0x100 EXP DUP2 SLOAD DUP2 PUSH1 0xFF MUL NOT AND SWAP1 DUP4 ISZERO ISZERO MUL OR SWAP1 SSTORE POP DUP1 PUSH1 0x3 ADD PUSH0 DUP2 SLOAD DUP1 SWAP3 SWAP2 SWAP1 PUSH2 0x932 SWAP1 PUSH2 0xF14 JUMP JUMPDEST SWAP2 SWAP1 POP SSTORE POP POP POP JUMP JUMPDEST PUSH0 PUSH32 0x0 SWAP1 POP SWAP1 JUMP JUMPDEST PUSH0 PUSH1 0x40 MLOAD SWAP1 POP SWAP1 JUMP JUMPDEST PUSH0 DUP1 REVERT JUMPDEST PUSH0 DUP1 REVERT JUMPDEST PUSH0 DUP2 SWAP1 POP SWAP2 SWAP1 POP JUMP JUMPDEST PUSH2 0x985 DUP2 PUSH2 0x973 JUMP JUMPDEST DUP2 EQ PUSH2 0x98F JUMPI PUSH0 DUP1 REVERT JUMPDEST POP JUMP JUMPDEST PUSH0 DUP2 CALLDATALOAD SWAP1 POP PUSH2 0x9A0 DUP2 PUSH2 0x97C JUMP JUMPDEST SWAP3 SWAP2 POP POP JUMP JUMPDEST PUSH0 PUSH1 0x20 DUP3 DUP5 SUB SLT ISZERO PUSH2 0x9BB JUMPI PUSH2 0x9BA PUSH2 0x96B JUMP JUMPDEST JUMPDEST PUSH0 PUSH2 0x9C8 DUP5 DUP3 DUP6 ADD PUSH2 0x992 JUMP JUMPDEST SWAP2 POP POP SWAP3 SWAP2 POP POP JUMP JUMPDEST PUSH0 PUSH20 0xFFFFFFFFFFFFFFFFFFFFFFFFFFFFFFFFFFFFFFFF DUP3 AND SWAP1 POP SWAP2 SWAP1 POP JUMP JUMPDEST PUSH0 PUSH2 0x9FA DUP3 PUSH2 0x9D1 JUMP JUMPDEST SWAP1 POP SWAP2 SWAP1 POP JUMP JUMPDEST PUSH2 0xA0A DUP2 PUSH2 0x9F0 JUMP JUMPDEST DUP2 EQ PUSH2 0xA14 JUMPI PUSH0 DUP1 REVERT JUMPDEST POP JUMP JUMPDEST PUSH0 DUP2 CALLDATALOAD SWAP1 POP PUSH2 0xA25 DUP2 PUSH2 0xA01 JUMP JUMPDEST SWAP3 SWAP2 POP POP JUMP JUMPDEST PUSH0 PUSH1 0x20 DUP3 DUP5 SUB SLT ISZERO PUSH2 0xA40 JUMPI PUSH2 0xA3F PUSH2 0x96B JUMP JUMPDEST JUMPDEST PUSH0 PUSH2 0xA4D DUP5 DUP3 DUP6 ADD PUSH2 0xA17 JUMP JUMPDEST SWAP2 POP POP SWAP3 SWAP2 POP POP JUMP JUMPDEST PUSH0 DUP2 ISZERO ISZERO SWAP1 POP SWAP2 SWAP1 POP JUMP JUMPDEST PUSH2 0xA6A DUP2 PUSH2 0xA56 JUMP JUMPDEST DUP3 MSTORE POP POP JUMP JUMPDEST PUSH0 PUSH1 0x20 DUP3 ADD SWAP1 POP PUSH2 0xA83 PUSH0 DUP4 ADD DUP5 PUSH2 0xA61 JUMP JUMPDEST SWAP3 SWAP2 POP POP JUMP JUMPDEST PUSH2 0xA92 DUP2 PUSH2 0x9F0 JUMP JUMPDEST DUP3 MSTORE POP POP JUMP JUMPDEST PUSH0 PUSH1 0x20 DUP3 ADD SWAP1 POP PUSH2 0xAAB PUSH0 DUP4 ADD DUP5 PUSH2 0xA89 JUMP JUMPDEST SWAP3 SWAP2 POP POP JUMP JUMPDEST PUSH2 0xABA DUP2 PUSH2 0x973 JUMP JUMPDEST DUP3 MSTORE POP POP JUMP JUMPDEST PUSH0 PUSH1 0x20 DUP3 ADD SWAP1 POP PUSH2 0xAD3 PUSH0 DUP4 ADD DUP5 PUSH2 0xAB1 JUMP JUMPDEST SWAP3 SWAP2 POP POP JUMP JUMPDEST PUSH0 DUP1 REVERT JUMPDEST PUSH0 DUP1 REVERT JUMPDEST PUSH0 PUSH1 0x1F NOT PUSH1 0x1F DUP4 ADD AND SWAP1 POP SWAP2 SWAP1 POP JUMP JUMPDEST PUSH32 0x4E487B7100000000000000000000000000000000000000000000000000000000 PUSH0 MSTORE PUSH1 0x41 PUSH1 0x4 MSTORE PUSH1 0x24 PUSH0 REVERT JUMPDEST PUSH2 0xB27 DUP3 PUSH2 0xAE1 JUMP JUMPDEST DUP2 ADD DUP2 DUP2 LT PUSH8 0xFFFFFFFFFFFFFFFF DUP3 GT OR ISZERO PUSH2 0xB46 JUMPI PUSH2 0xB45 PUSH2 0xAF1 JUMP JUMPDEST JUMPDEST DUP1 PUSH1 0x40 MSTORE POP POP POP JUMP JUMPDEST PUSH0 PUSH2 0xB58 PUSH2 0x962 JUMP JUMPDEST SWAP1 POP PUSH2 0xB64 DUP3 DUP3 PUSH2 0xB1E JUMP JUMPDEST SWAP2 SWAP1 POP JUMP JUMPDEST PUSH0 PUSH8 0xFFFFFFFFFFFFFFFF DUP3 GT ISZERO PUSH2 0xB83 JUMPI PUSH2 0xB82 PUSH2 0xAF1 JUMP JUMPDEST JUMPDEST PUSH2 0xB8C DUP3 PUSH2 0xAE1 JUMP JUMPDEST SWAP1 POP PUSH1 0x20 DUP2 ADD SWAP1 POP SWAP2 SWAP1 POP JUMP JUMPDEST DUP3 DUP2 DUP4 CALLDATACOPY PUSH0 DUP4 DUP4 ADD MSTORE POP POP POP JUMP JUMPDEST PUSH0 PUSH2 0xBB9 PUSH2 0xBB4 DUP5 PUSH2 0xB69 JUMP JUMPDEST PUSH2 0xB4F JUMP JUMPDEST SWAP1 POP DUP3 DUP2 MSTORE PUSH1 0x20 DUP2 ADD DUP5 DUP5 DUP5 ADD GT ISZERO PUSH2 0xBD5 JUMPI PUSH2 0xBD4 PUSH2 0xADD JUMP JUMPDEST JUMPDEST PUSH2 0xBE0 DUP5 DUP3 DUP6 PUSH2 0xB99 JUMP JUMPDEST POP SWAP4 SWAP3 POP POP POP JUMP JUMPDEST PUSH0 DUP3 PUSH1 0x1F DUP4 ADD SLT PUSH2 0xBFC JUMPI PUSH2 0xBFB PUSH2 0xAD9 JUMP JUMPDEST JUMPDEST DUP2 CALLDATALOAD PUSH2 0xC0C DUP5 DUP3 PUSH1 0x20 DUP7 ADD PUSH2 0xBA7 JUMP JUMPDEST SWAP2 POP POP SWAP3 SWAP2 POP POP JUMP JUMPDEST PUSH0 DUP1 PUSH0 PUSH1 0x60 DUP5 DUP7 SUB SLT ISZERO PUSH2 0xC2C JUMPI PUSH2 0xC2B PUSH2 0x96B JUMP JUMPDEST JUMPDEST PUSH0 DUP5 ADD CALLDATALOAD PUSH8 0xFFFFFFFFFFFFFFFF DUP2 GT ISZERO PUSH2 0xC49 JUMPI PUSH2 0xC48 PUSH2 0x96F JUMP JUMPDEST JUMPDEST PUSH2 0xC55 DUP7 DUP3 DUP8 ADD PUSH2 0xBE8 JUMP JUMPDEST SWAP4 POP POP PUSH1 0x20 PUSH2 0xC66 DUP7 DUP3 DUP8 ADD PUSH2 0x992 JUMP JUMPDEST SWAP3 POP POP PUSH1 0x40 PUSH2 0xC77 DUP7 DUP3 DUP8 ADD PUSH2 0xA17 JUMP JUMPDEST SWAP2 POP POP SWAP3 POP SWAP3 POP SWAP3 JUMP JUMPDEST PUSH0 DUP2 MLOAD SWAP1 POP SWAP2 SWAP1 POP JUMP JUMPDEST PUSH0 DUP3 DUP3 MSTORE PUSH1 0x20 DUP3 ADD SWAP1 POP SWAP3 SWAP2 POP POP JUMP JUMPDEST PUSH0 JUMPDEST DUP4 DUP2 LT ISZERO PUSH2 0xCB8 JUMPI DUP1 DUP3 ADD MLOAD DUP2 DUP5 ADD MSTORE PUSH1 0x20 DUP2 ADD SWAP1 POP PUSH2 0xC9D JUMP JUMPDEST PUSH0 DUP5 DUP5 ADD MSTORE POP POP POP POP JUMP JUMPDEST PUSH0 PUSH2 0xCCD DUP3 PUSH2 0xC81 JUMP JUMPDEST PUSH2 0xCD7 DUP2 DUP6 PUSH2 0xC8B JUMP JUMPDEST SWAP4 POP PUSH2 0xCE7 DUP2 DUP6 PUSH1 0x20 DUP7 ADD PUSH2 0xC9B JUMP JUMPDEST PUSH2 0xCF0 DUP2 PUSH2 0xAE1 JUMP JUMPDEST DUP5 ADD SWAP2 POP POP SWAP3 SWAP2 POP POP JUMP JUMPDEST PUSH0 PUSH1 0xA0 DUP3 ADD SWAP1 POP DUP2 DUP2 SUB PUSH0 DUP4 ADD MSTORE PUSH2 0xD13 DUP2 DUP9 PUSH2 0xCC3 JUMP JUMPDEST SWAP1 POP PUSH2 0xD22 PUSH1 0x20 DUP4 ADD DUP8 PUSH2 0xAB1 JUMP JUMPDEST PUSH2 0xD2F PUSH1 0x40 DUP4 ADD DUP7 PUSH2 0xA89 JUMP JUMPDEST PUSH2 0xD3C PUSH1 0x60 DUP4 ADD DUP6 PUSH2 0xA61 JUMP JUMPDEST PUSH2 0xD49 PUSH1 0x80 DUP4 ADD DUP5 PUSH2 0xAB1 JUMP JUMPDEST SWAP7 SWAP6 POP POP POP POP POP POP JUMP JUMPDEST PUSH32 0x4F6E6C79206D616E616765722063616E2063616C6C20746869732066756E6374 PUSH0 DUP3 ADD MSTORE PUSH32 0x696F6E2E00000000000000000000000000000000000000000000000000000000 PUSH1 0x20 DUP3 ADD MSTORE POP JUMP JUMPDEST PUSH0 PUSH2 0xDAD PUSH1 0x24 DUP4 PUSH2 0xC8B JUMP JUMPDEST SWAP2 POP PUSH2 0xDB8 DUP3 PUSH2 0xD53 JUMP JUMPDEST PUSH1 0x40 DUP3 ADD SWAP1 POP SWAP2 SWAP1 POP JUMP JUMPDEST PUSH0 PUSH1 0x20 DUP3 ADD SWAP1 POP DUP2 DUP2 SUB PUSH0 DUP4 ADD MSTORE PUSH2 0xDDA DUP2 PUSH2 0xDA1 JUMP JUMPDEST SWAP1 POP SWAP2 SWAP1 POP JUMP JUMPDEST PUSH32 0x4E487B7100000000000000000000000000000000000000000000000000000000 PUSH0 MSTORE PUSH1 0x12 PUSH1 0x4 MSTORE PUSH1 0x24 PUSH0 REVERT JUMPDEST PUSH32 0x4E487B7100000000000000000000000000000000000000000000000000000000 PUSH0 MSTORE PUSH1 0x11 PUSH1 0x4 MSTORE PUSH1 0x24 PUSH0 REVERT JUMPDEST PUSH0 PUSH2 0xE45 DUP3 PUSH2 0x973 JUMP JUMPDEST SWAP2 POP PUSH2 0xE50 DUP4 PUSH2 0x973 JUMP JUMPDEST SWAP3 POP DUP3 PUSH2 0xE60 JUMPI PUSH2 0xE5F PUSH2 0xDE1 JUMP JUMPDEST JUMPDEST DUP3 DUP3 DIV SWAP1 POP SWAP3 SWAP2 POP POP JUMP JUMPDEST PUSH0 DUP2 SWAP1 POP SWAP3 SWAP2 POP POP JUMP JUMPDEST POP JUMP JUMPDEST PUSH0 PUSH2 0xE83 PUSH0 DUP4 PUSH2 0xE6B JUMP JUMPDEST SWAP2 POP PUSH2 0xE8E DUP3 PUSH2 0xE75 JUMP JUMPDEST PUSH0 DUP3 ADD SWAP1 POP SWAP2 SWAP1 POP JUMP JUMPDEST PUSH0 PUSH2 0xEA2 DUP3 PUSH2 0xE78 JUMP JUMPDEST SWAP2 POP DUP2 SWAP1 POP SWAP2 SWAP1 POP JUMP JUMPDEST PUSH32 0x43616C6C206661696C65642E0000000000000000000000000000000000000000 PUSH0 DUP3 ADD MSTORE POP JUMP JUMPDEST PUSH0 PUSH2 0xEE0 PUSH1 0xC DUP4 PUSH2 0xC8B JUMP JUMPDEST SWAP2 POP PUSH2 0xEEB DUP3 PUSH2 0xEAC JUMP JUMPDEST PUSH1 0x20 DUP3 ADD SWAP1 POP SWAP2 SWAP1 POP JUMP JUMPDEST PUSH0 PUSH1 0x20 DUP3 ADD SWAP1 POP DUP2 DUP2 SUB PUSH0 DUP4 ADD MSTORE PUSH2 0xF0D DUP2 PUSH2 0xED4 JUMP JUMPDEST SWAP1 POP SWAP2 SWAP1 POP JUMP JUMPDEST PUSH0 PUSH2 0xF1E DUP3 PUSH2 0x973 JUMP JUMPDEST SWAP2 POP PUSH32 0xFFFFFFFFFFFFFFFFFFFFFFFFFFFFFFFFFFFFFFFFFFFFFFFFFFFFFFFFFFFFFFFF DUP3 SUB PUSH2 0xF50 JUMPI PUSH2 0xF4F PUSH2 0xE0E JUMP JUMPDEST JUMPDEST PUSH1 0x1 DUP3 ADD SWAP1 POP SWAP2 SWAP1 POP JUMP JUMPDEST PUSH32 0x4E487B7100000000000000000000000000000000000000000000000000000000 PUSH0 MSTORE PUSH1 0x22 PUSH1 0x4 MSTORE PUSH1 0x24 PUSH0 REVERT JUMPDEST PUSH0 PUSH1 0x2 DUP3 DIV SWAP1 POP PUSH1 0x1 DUP3 AND DUP1 PUSH2 0xF9F JUMPI PUSH1 0x7F DUP3 AND SWAP2 POP JUMPDEST PUSH1 0x20 DUP3 LT DUP2 SUB PUSH2 0xFB2 JUMPI PUSH2 0xFB1 PUSH2 0xF5B JUMP JUMPDEST JUMPDEST POP SWAP2 SWAP1 POP JUMP JUMPDEST PUSH0 DUP2 SWAP1 POP DUP2 PUSH0 MSTORE PUSH1 0x20 PUSH0 KECCAK256 SWAP1 POP SWAP2 SWAP1 POP JUMP JUMPDEST PUSH0 PUSH1 0x20 PUSH1 0x1F DUP4 ADD DIV SWAP1 POP SWAP2 SWAP1 POP JUMP JUMPDEST PUSH0 DUP3 DUP3 SHL SWAP1 POP SWAP3 SWAP2 POP POP JUMP JUMPDEST PUSH0 PUSH1 0x8 DUP4 MUL PUSH2 0x1014 PUSH32 0xFFFFFFFFFFFFFFFFFFFFFFFFFFFFFFFFFFFFFFFFFFFFFFFFFFFFFFFFFFFFFFFF DUP3 PUSH2 0xFD9 JUMP JUMPDEST PUSH2 0x101E DUP7 DUP4 PUSH2 0xFD9 JUMP JUMPDEST SWAP6 POP DUP1 NOT DUP5 AND SWAP4 POP DUP1 DUP7 AND DUP5 OR SWAP3 POP POP POP SWAP4 SWAP3 POP POP POP JUMP JUMPDEST PUSH0 DUP2 SWAP1 POP SWAP2 SWAP1 POP JUMP JUMPDEST PUSH0 PUSH2 0x1059 PUSH2 0x1054 PUSH2 0x104F DUP5 PUSH2 0x973 JUMP JUMPDEST PUSH2 0x1036 JUMP JUMPDEST PUSH2 0x973 JUMP JUMPDEST SWAP1 POP SWAP2 SWAP1 POP JUMP JUMPDEST PUSH0 DUP2 SWAP1 POP SWAP2 SWAP1 POP JUMP JUMPDEST PUSH2 0x1072 DUP4 PUSH2 0x103F JUMP JUMPDEST PUSH2 0x1086 PUSH2 0x107E DUP3 PUSH2 0x1060 JUMP JUMPDEST DUP5 DUP5 SLOAD PUSH2 0xFE5 JUMP JUMPDEST DUP3 SSTORE POP POP POP POP JUMP JUMPDEST PUSH0 SWAP1 JUMP JUMPDEST PUSH2 0x109A PUSH2 0x108E JUMP JUMPDEST PUSH2 0x10A5 DUP2 DUP5 DUP5 PUSH2 0x1069 JUMP JUMPDEST POP POP POP JUMP JUMPDEST JUMPDEST DUP2 DUP2 LT ISZERO PUSH2 0x10C8 JUMPI PUSH2 0x10BD PUSH0 DUP3 PUSH2 0x1092 JUMP JUMPDEST PUSH1 0x1 DUP2 ADD SWAP1 POP PUSH2 0x10AB JUMP JUMPDEST POP POP JUMP JUMPDEST PUSH1 0x1F DUP3 GT ISZERO PUSH2 0x110D JUMPI PUSH2 0x10DE DUP2 PUSH2 0xFB8 JUMP JUMPDEST PUSH2 0x10E7 DUP5 PUSH2 0xFCA JUMP JUMPDEST DUP2 ADD PUSH1 0x20 DUP6 LT ISZERO PUSH2 0x10F6 JUMPI DUP2 SWAP1 POP JUMPDEST PUSH2 0x110A PUSH2 0x1102 DUP6 PUSH2 0xFCA JUMP JUMPDEST DUP4 ADD DUP3 PUSH2 0x10AA JUMP JUMPDEST POP POP JUMPDEST POP POP POP JUMP JUMPDEST PUSH0 DUP3 DUP3 SHR SWAP1 POP SWAP3 SWAP2 POP POP JUMP JUMPDEST PUSH0 PUSH2 0x112D PUSH0 NOT DUP5 PUSH1 0x8 MUL PUSH2 0x1112 JUMP JUMPDEST NOT DUP1 DUP4 AND SWAP2 POP POP SWAP3 SWAP2 POP POP JUMP JUMPDEST PUSH0 PUSH2 0x1145 DUP4 DUP4 PUSH2 0x111E JUMP JUMPDEST SWAP2 POP DUP3 PUSH1 0x2 MUL DUP3 OR SWAP1 POP SWAP3 SWAP2 POP POP JUMP JUMPDEST PUSH2 0x115E DUP3 PUSH2 0xC81 JUMP JUMPDEST PUSH8 0xFFFFFFFFFFFFFFFF DUP2 GT ISZERO PUSH2 0x1177 JUMPI PUSH2 0x1176 PUSH2 0xAF1 JUMP JUMPDEST JUMPDEST PUSH2 0x1181 DUP3 SLOAD PUSH2 0xF88 JUMP JUMPDEST PUSH2 0x118C DUP3 DUP3 DUP6 PUSH2 0x10CC JUMP JUMPDEST PUSH0 PUSH1 0x20 SWAP1 POP PUSH1 0x1F DUP4 GT PUSH1 0x1 DUP2 EQ PUSH2 0x11BD JUMPI PUSH0 DUP5 ISZERO PUSH2 0x11AB JUMPI DUP3 DUP8 ADD MLOAD SWAP1 POP JUMPDEST PUSH2 0x11B5 DUP6 DUP3 PUSH2 0x113A JUMP JUMPDEST DUP7 SSTORE POP PUSH2 0x121C JUMP JUMPDEST PUSH1 0x1F NOT DUP5 AND PUSH2 0x11CB DUP7 PUSH2 0xFB8 JUMP JUMPDEST PUSH0 JUMPDEST DUP3 DUP2 LT ISZERO PUSH2 0x11F2 JUMPI DUP5 DUP10 ADD MLOAD DUP3 SSTORE PUSH1 0x1 DUP3 ADD SWAP2 POP PUSH1 0x20 DUP6 ADD SWAP5 POP PUSH1 0x20 DUP2 ADD SWAP1 POP PUSH2 0x11CD JUMP JUMPDEST DUP7 DUP4 LT ISZERO PUSH2 0x120F JUMPI DUP5 DUP10 ADD MLOAD PUSH2 0x120B PUSH1 0x1F DUP10 AND DUP3 PUSH2 0x111E JUMP JUMPDEST DUP4 SSTORE POP JUMPDEST PUSH1 0x1 PUSH1 0x2 DUP9 MUL ADD DUP9 SSTORE POP POP POP JUMPDEST POP POP POP POP POP POP JUMP INVALID LOG2 PUSH5 0x6970667358 0x22 SLT KECCAK256 DUP4 MULMOD PREVRANDAO 0xDC 0xD9 0xEE 0x1F 0x4D 0x4D 0x4C 0xC6 0x26 0x49 PUSH24 0x71BE44EC4EA7FD92B4389D49361ADCF325AD64736F6C6343 STOP ADDMOD ISZERO STOP CALLER LOG2 PUSH5 0x6970667358 0x22 SLT KECCAK256 0xB8 PUSH28 0x1E94AA4FE4E1520D79DC1876D71D31DF352EFDE497A87E46D5072A29 0xDD DUP6 PUSH5 0x736F6C6343 STOP ADDMOD ISZERO STOP CALLER "},"gasEstimates":{"creation":{"codeDepositCost":"1226800","executionCost":"1273","totalCost":"1228073"},"external":{"createCampaignContract(uint256)":"infinite","getDeployedCampaigns()":"infinite","listOfDeployedCampaignContracts(uint256)":"4943"}},"methodIdentifiers":{"createCampaignContract(uint256)":"6fd75130","getDeployedCampaigns()":"4acb9d4f","listOfDeployedCampaignContracts(uint256)":"5d1c8599"}},"storageLayout":{"storage":[{"astId":4,"contract":"Campaign.sol:CampaignFactory","label":"listOfDeployedCampaignContracts","offset":0,"slot":"0","type":"t_array(t_address)dyn_storage"}],"types":{"t_address":{"encoding":"inplace","label":"address","numberOfBytes":"20"},"t_array(t_address)dyn_storage":{"base":"t_address","encoding":"dynamic_array","label":"address[]","numberOfBytes":"32"}}},"userdoc":{"kind":"user","methods":{},"version":1}}