{"abi":[{"inputs":[{"internalType":"uint256","name":"minimum","type":"uint256"},{"internalType":"address","name":"creator","type":"address"}],"stateMutability":"nonpayable","type":"constructor"},{"inputs":[],"name":"Campaign__ApproverAlreadyVotedForThisRequest","type":"error"},{"inputs":[],"name":"Campaign__ApproverIsNotContributor","type":"error"},{"inputs":[],"name":"Campaign__NotEnoughEthSent","type":"error"},{"inputs":[],"name":"Campaign__RequestCanNotBeFinalizedAsNotEnoughApprovers","type":"error"},{"inputs":[],"name":"Campaign__RequestWasAlreadyFinalized","type":"error"},{"inputs":[{"internalType":"uint256","name":"requestIndex","type":"uint256"}],"name":"approveRequest","outputs":[],"stateMutability":"nonpayable","type":"function"},{"inputs":[{"internalType":"address","name":"","type":"address"}],"name":"approvers","outputs":[{"internalType":"bool","name":"","type":"bool"}],"stateMutability":"view","type":"function"},{"inputs":[],"name":"approversCount","outputs":[{"internalType":"uint256","name":"","type":"uint256"}],"stateMutability":"view","type":"function"},{"inputs":[],"name":"contribute","outputs":[],"stateMutability":"payable","type":"function"},{"inputs":[{"internalType":"string","name":"_requestDescription","type":"string"},{"internalType":"uint256","name":"_requestValue","type":"uint256"},{"internalType":"address","name":"_requestRecipient","type":"address"}],"name":"createRequest","outputs":[],"stateMutability":"nonpayable","type":"function"},{"inputs":[{"internalType":"uint256","name":"requestIndex","type":"uint256"}],"name":"finalizeRequest","outputs":[],"stateMutability":"nonpayable","type":"function"},{"inputs":[],"name":"getMinimumContribution","outputs":[{"internalType":"uint256","name":"","type":"uint256"}],"stateMutability":"view","type":"function"},{"inputs":[{"internalType":"uint256","name":"index","type":"uint256"}],"name":"getRequest","outputs":[{"internalType":"string","name":"","type":"string"},{"internalType":"uint256","name":"","type":"uint256"},{"internalType":"address","name":"","type":"address"},{"internalType":"bool","name":"","type":"bool"},{"internalType":"uint256","name":"","type":"uint256"}],"stateMutability":"view","type":"function"},{"inputs":[{"internalType":"address","name":"_address","type":"address"}],"name":"isApprover","outputs":[{"internalType":"bool","name":"","type":"bool"}],"stateMutability":"view","type":"function"},{"inputs":[],"name":"manager","outputs":[{"internalType":"address","name":"","type":"address"}],"stateMutability":"view","type":"function"},{"inputs":[],"name":"numRequests","outputs":[{"internalType":"uint256","name":"","type":"uint256"}],"stateMutability":"view","type":"function"}],"devdoc":{"kind":"dev","methods":{},"version":1},"evm":{"assembly":"    /* \"Campaign.sol\":1341:7603  contract Campaign {... */\n  mstore(0x40, 0xa0)\n    /* \"Campaign.sol\":3189:3441  constructor(uint256 minimum, address creator) {... */\n  callvalue\n  dup1\n  iszero\n  tag_1\n  jumpi\n  0x00\n  dup1\n  revert\ntag_1:\n  pop\n  mload(0x40)\n  sub(codesize, bytecodeSize)\n  dup1\n  bytecodeSize\n  dup4\n  codecopy\n  dup2\n  dup2\n  add\n  0x40\n  mstore\n  dup2\n  add\n  swap1\n  tag_2\n  swap2\n  swap1\n  tag_3\n  jump\t// in\ntag_2:\n    /* \"Campaign.sol\":3386:3393  creator */\n  dup1\n    /* \"Campaign.sol\":3376:3383  manager */\n  0x02\n  0x00\n    /* \"Campaign.sol\":3376:3393  manager = creator */\n  0x0100\n  exp\n  dup2\n  sload\n  dup2\n  0xffffffffffffffffffffffffffffffffffffffff\n  mul\n  not\n  and\n  swap1\n  dup4\n  0xffffffffffffffffffffffffffffffffffffffff\n  and\n  mul\n  or\n  swap1\n  sstore\n  pop\n    /* \"Campaign.sol\":3427:3434  minimum */\n  dup2\n    /* \"Campaign.sol\":3403:3434  i_minimumContribution = minimum */\n  0x80\n  dup2\n  dup2\n  mstore\n  pop\n  pop\n    /* \"Campaign.sol\":3189:3441  constructor(uint256 minimum, address creator) {... */\n  pop\n  pop\n    /* \"Campaign.sol\":1341:7603  contract Campaign {... */\n  jump(tag_6)\n    /* \"#utility.yul\":88:205   */\ntag_8:\n    /* \"#utility.yul\":197:198   */\n  0x00\n    /* \"#utility.yul\":194:195   */\n  dup1\n    /* \"#utility.yul\":187:199   */\n  revert\n    /* \"#utility.yul\":334:411   */\ntag_10:\n    /* \"#utility.yul\":371:378   */\n  0x00\n    /* \"#utility.yul\":400:405   */\n  dup2\n    /* \"#utility.yul\":389:405   */\n  swap1\n  pop\n    /* \"#utility.yul\":334:411   */\n  swap2\n  swap1\n  pop\n  jump\t// out\n    /* \"#utility.yul\":417:539   */\ntag_11:\n    /* \"#utility.yul\":490:514   */\n  tag_23\n    /* \"#utility.yul\":508:513   */\n  dup2\n    /* \"#utility.yul\":490:514   */\n  tag_10\n  jump\t// in\ntag_23:\n    /* \"#utility.yul\":483:488   */\n  dup2\n    /* \"#utility.yul\":480:515   */\n  eq\n    /* \"#utility.yul\":470:533   */\n  tag_24\n  jumpi\n    /* \"#utility.yul\":529:530   */\n  0x00\n    /* \"#utility.yul\":526:527   */\n  dup1\n    /* \"#utility.yul\":519:531   */\n  revert\n    /* \"#utility.yul\":470:533   */\ntag_24:\n    /* \"#utility.yul\":417:539   */\n  pop\n  jump\t// out\n    /* \"#utility.yul\":545:688   */\ntag_12:\n    /* \"#utility.yul\":602:607   */\n  0x00\n    /* \"#utility.yul\":633:639   */\n  dup2\n    /* \"#utility.yul\":627:640   */\n  mload\n    /* \"#utility.yul\":618:640   */\n  swap1\n  pop\n    /* \"#utility.yul\":649:682   */\n  tag_26\n    /* \"#utility.yul\":676:681   */\n  dup2\n    /* \"#utility.yul\":649:682   */\n  tag_11\n  jump\t// in\ntag_26:\n    /* \"#utility.yul\":545:688   */\n  swap3\n  swap2\n  pop\n  pop\n  jump\t// out\n    /* \"#utility.yul\":694:820   */\ntag_13:\n    /* \"#utility.yul\":731:738   */\n  0x00\n    /* \"#utility.yul\":771:813   */\n  0xffffffffffffffffffffffffffffffffffffffff\n    /* \"#utility.yul\":764:769   */\n  dup3\n    /* \"#utility.yul\":760:814   */\n  and\n    /* \"#utility.yul\":749:814   */\n  swap1\n  pop\n    /* \"#utility.yul\":694:820   */\n  swap2\n  swap1\n  pop\n  jump\t// out\n    /* \"#utility.yul\":826:922   */\ntag_14:\n    /* \"#utility.yul\":863:870   */\n  0x00\n    /* \"#utility.yul\":892:916   */\n  tag_29\n    /* \"#utility.yul\":910:915   */\n  dup3\n    /* \"#utility.yul\":892:916   */\n  tag_13\n  jump\t// in\ntag_29:\n    /* \"#utility.yul\":881:916   */\n  swap1\n  pop\n    /* \"#utility.yul\":826:922   */\n  swap2\n  swap1\n  pop\n  jump\t// out\n    /* \"#utility.yul\":928:1050   */\ntag_15:\n    /* \"#utility.yul\":1001:1025   */\n  tag_31\n    /* \"#utility.yul\":1019:1024   */\n  dup2\n    /* \"#utility.yul\":1001:1025   */\n  tag_14\n  jump\t// in\ntag_31:\n    /* \"#utility.yul\":994:999   */\n  dup2\n    /* \"#utility.yul\":991:1026   */\n  eq\n    /* \"#utility.yul\":981:1044   */\n  tag_32\n  jumpi\n    /* \"#utility.yul\":1040:1041   */\n  0x00\n    /* \"#utility.yul\":1037:1038   */\n  dup1\n    /* \"#utility.yul\":1030:1042   */\n  revert\n    /* \"#utility.yul\":981:1044   */\ntag_32:\n    /* \"#utility.yul\":928:1050   */\n  pop\n  jump\t// out\n    /* \"#utility.yul\":1056:1199   */\ntag_16:\n    /* \"#utility.yul\":1113:1118   */\n  0x00\n    /* \"#utility.yul\":1144:1150   */\n  dup2\n    /* \"#utility.yul\":1138:1151   */\n  mload\n    /* \"#utility.yul\":1129:1151   */\n  swap1\n  pop\n    /* \"#utility.yul\":1160:1193   */\n  tag_34\n    /* \"#utility.yul\":1187:1192   */\n  dup2\n    /* \"#utility.yul\":1160:1193   */\n  tag_15\n  jump\t// in\ntag_34:\n    /* \"#utility.yul\":1056:1199   */\n  swap3\n  swap2\n  pop\n  pop\n  jump\t// out\n    /* \"#utility.yul\":1205:1712   */\ntag_3:\n    /* \"#utility.yul\":1284:1290   */\n  0x00\n    /* \"#utility.yul\":1292:1298   */\n  dup1\n    /* \"#utility.yul\":1341:1343   */\n  0x40\n    /* \"#utility.yul\":1329:1338   */\n  dup4\n    /* \"#utility.yul\":1320:1327   */\n  dup6\n    /* \"#utility.yul\":1316:1339   */\n  sub\n    /* \"#utility.yul\":1312:1344   */\n  slt\n    /* \"#utility.yul\":1309:1428   */\n  iszero\n  tag_36\n  jumpi\n    /* \"#utility.yul\":1347:1426   */\n  tag_37\n  tag_8\n  jump\t// in\ntag_37:\n    /* \"#utility.yul\":1309:1428   */\ntag_36:\n    /* \"#utility.yul\":1467:1468   */\n  0x00\n    /* \"#utility.yul\":1492:1556   */\n  tag_38\n    /* \"#utility.yul\":1548:1555   */\n  dup6\n    /* \"#utility.yul\":1539:1545   */\n  dup3\n    /* \"#utility.yul\":1528:1537   */\n  dup7\n    /* \"#utility.yul\":1524:1546   */\n  add\n    /* \"#utility.yul\":1492:1556   */\n  tag_12\n  jump\t// in\ntag_38:\n    /* \"#utility.yul\":1482:1556   */\n  swap3\n  pop\n    /* \"#utility.yul\":1438:1566   */\n  pop\n    /* \"#utility.yul\":1605:1607   */\n  0x20\n    /* \"#utility.yul\":1631:1695   */\n  tag_39\n    /* \"#utility.yul\":1687:1694   */\n  dup6\n    /* \"#utility.yul\":1678:1684   */\n  dup3\n    /* \"#utility.yul\":1667:1676   */\n  dup7\n    /* \"#utility.yul\":1663:1685   */\n  add\n    /* \"#utility.yul\":1631:1695   */\n  tag_16\n  jump\t// in\ntag_39:\n    /* \"#utility.yul\":1621:1695   */\n  swap2\n  pop\n    /* \"#utility.yul\":1576:1705   */\n  pop\n    /* \"#utility.yul\":1205:1712   */\n  swap3\n  pop\n  swap3\n  swap1\n  pop\n  jump\t// out\n    /* \"Campaign.sol\":1341:7603  contract Campaign {... */\ntag_6:\n  mload(0x80)\n  codecopy(0x00, dataOffset(sub_0), dataSize(sub_0))\n  0x00\n  assignImmutable(\"0x63867b8d5e748cf93e24f7b381d92337d037805bfc271d6d67e0e86772662677\")\n  return(0x00, dataSize(sub_0))\nstop\n\nsub_0: assembly {\n        /* \"Campaign.sol\":1341:7603  contract Campaign {... */\n      mstore(0x40, 0x80)\n      jumpi(tag_1, lt(calldatasize, 0x04))\n      shr(0xe0, calldataload(0x00))\n      dup1\n      0x8a9cfd55\n      gt\n      tag_13\n      jumpi\n      dup1\n      0x8a9cfd55\n      eq\n      tag_7\n      jumpi\n      dup1\n      0x9fb42b1f\n      eq\n      tag_8\n      jumpi\n      dup1\n      0xc58343ef\n      eq\n      tag_9\n      jumpi\n      dup1\n      0xd7bb99ba\n      eq\n      tag_10\n      jumpi\n      dup1\n      0xd7d1bbdb\n      eq\n      tag_11\n      jumpi\n      dup1\n      0xf84038b1\n      eq\n      tag_12\n      jumpi\n      jump(tag_1)\n    tag_13:\n      dup1\n      0x03441006\n      eq\n      tag_2\n      jumpi\n      dup1\n      0x0a144391\n      eq\n      tag_3\n      jumpi\n      dup1\n      0x481c6a75\n      eq\n      tag_4\n      jumpi\n      dup1\n      0x6d218e48\n      eq\n      tag_5\n      jumpi\n      dup1\n      0x82fde093\n      eq\n      tag_6\n      jumpi\n    tag_1:\n      0x00\n      dup1\n      revert\n        /* \"Campaign.sol\":5828:6957  function finalizeRequest(uint256 requestIndex) public onlyManager {... */\n    tag_2:\n      callvalue\n      dup1\n      iszero\n      tag_14\n      jumpi\n      0x00\n      dup1\n      revert\n    tag_14:\n      pop\n      tag_15\n      0x04\n      dup1\n      calldatasize\n      sub\n      dup2\n      add\n      swap1\n      tag_16\n      swap2\n      swap1\n      tag_17\n      jump\t// in\n    tag_16:\n      tag_18\n      jump\t// in\n    tag_15:\n      stop\n        /* \"Campaign.sol\":2668:2709  mapping(address => bool) public approvers */\n    tag_3:\n      callvalue\n      dup1\n      iszero\n      tag_19\n      jumpi\n      0x00\n      dup1\n      revert\n    tag_19:\n      pop\n      tag_20\n      0x04\n      dup1\n      calldatasize\n      sub\n      dup2\n      add\n      swap1\n      tag_21\n      swap2\n      swap1\n      tag_22\n      jump\t// in\n    tag_21:\n      tag_23\n      jump\t// in\n    tag_20:\n      mload(0x40)\n      tag_24\n      swap2\n      swap1\n      tag_25\n      jump\t// in\n    tag_24:\n      mload(0x40)\n      dup1\n      swap2\n      sub\n      swap1\n      return\n        /* \"Campaign.sol\":2460:2482  address public manager */\n    tag_4:\n      callvalue\n      dup1\n      iszero\n      tag_26\n      jumpi\n      0x00\n      dup1\n      revert\n    tag_26:\n      pop\n      tag_27\n      tag_28\n      jump\t// in\n    tag_27:\n      mload(0x40)\n      tag_29\n      swap2\n      swap1\n      tag_30\n      jump\t// in\n    tag_29:\n      mload(0x40)\n      dup1\n      swap2\n      sub\n      swap1\n      return\n        /* \"Campaign.sol\":7493:7601  function isApprover(address _address) public view returns (bool) {... */\n    tag_5:\n      callvalue\n      dup1\n      iszero\n      tag_31\n      jumpi\n      0x00\n      dup1\n      revert\n    tag_31:\n      pop\n      tag_32\n      0x04\n      dup1\n      calldatasize\n      sub\n      dup2\n      add\n      swap1\n      tag_33\n      swap2\n      swap1\n      tag_22\n      jump\t// in\n    tag_33:\n      tag_34\n      jump\t// in\n    tag_32:\n      mload(0x40)\n      tag_35\n      swap2\n      swap1\n      tag_25\n      jump\t// in\n    tag_35:\n      mload(0x40)\n      dup1\n      swap2\n      sub\n      swap1\n      return\n        /* \"Campaign.sol\":2775:2804  uint256 public approversCount */\n    tag_6:\n      callvalue\n      dup1\n      iszero\n      tag_36\n      jumpi\n      0x00\n      dup1\n      revert\n    tag_36:\n      pop\n      tag_37\n      tag_38\n      jump\t// in\n    tag_37:\n      mload(0x40)\n      tag_39\n      swap2\n      swap1\n      tag_40\n      jump\t// in\n    tag_39:\n      mload(0x40)\n      dup1\n      swap2\n      sub\n      swap1\n      return\n        /* \"Campaign.sol\":3917:4385  function createRequest(... */\n    tag_7:\n      callvalue\n      dup1\n      iszero\n      tag_41\n      jumpi\n      0x00\n      dup1\n      revert\n    tag_41:\n      pop\n      tag_42\n      0x04\n      dup1\n      calldatasize\n      sub\n      dup2\n      add\n      swap1\n      tag_43\n      swap2\n      swap1\n      tag_44\n      jump\t// in\n    tag_43:\n      tag_45\n      jump\t// in\n    tag_42:\n      stop\n        /* \"Campaign.sol\":2303:2329  uint256 public numRequests */\n    tag_8:\n      callvalue\n      dup1\n      iszero\n      tag_46\n      jumpi\n      0x00\n      dup1\n      revert\n    tag_46:\n      pop\n      tag_47\n      tag_48\n      jump\t// in\n    tag_47:\n      mload(0x40)\n      tag_49\n      swap2\n      swap1\n      tag_40\n      jump\t// in\n    tag_49:\n      mload(0x40)\n      dup1\n      swap2\n      sub\n      swap1\n      return\n        /* \"Campaign.sol\":7106:7487  function getRequest(... */\n    tag_9:\n      callvalue\n      dup1\n      iszero\n      tag_50\n      jumpi\n      0x00\n      dup1\n      revert\n    tag_50:\n      pop\n      tag_51\n      0x04\n      dup1\n      calldatasize\n      sub\n      dup2\n      add\n      swap1\n      tag_52\n      swap2\n      swap1\n      tag_17\n      jump\t// in\n    tag_52:\n      tag_53\n      jump\t// in\n    tag_51:\n      mload(0x40)\n      tag_54\n      swap6\n      swap5\n      swap4\n      swap3\n      swap2\n      swap1\n      tag_55\n      jump\t// in\n    tag_54:\n      mload(0x40)\n      dup1\n      swap2\n      sub\n      swap1\n      return\n        /* \"Campaign.sol\":3528:3834  function contribute() public payable {... */\n    tag_10:\n      tag_56\n      tag_57\n      jump\t// in\n    tag_56:\n      stop\n        /* \"Campaign.sol\":4862:5697  function approveRequest(uint256 requestIndex) public {... */\n    tag_11:\n      callvalue\n      dup1\n      iszero\n      tag_58\n      jumpi\n      0x00\n      dup1\n      revert\n    tag_58:\n      pop\n      tag_59\n      0x04\n      dup1\n      calldatasize\n      sub\n      dup2\n      add\n      swap1\n      tag_60\n      swap2\n      swap1\n      tag_17\n      jump\t// in\n    tag_60:\n      tag_61\n      jump\t// in\n    tag_59:\n      stop\n        /* \"Campaign.sol\":6989:7100  function getMinimumContribution() external view returns (uint256) {... */\n    tag_12:\n      callvalue\n      dup1\n      iszero\n      tag_62\n      jumpi\n      0x00\n      dup1\n      revert\n    tag_62:\n      pop\n      tag_63\n      tag_64\n      jump\t// in\n    tag_63:\n      mload(0x40)\n      tag_65\n      swap2\n      swap1\n      tag_40\n      jump\t// in\n    tag_65:\n      mload(0x40)\n      dup1\n      swap2\n      sub\n      swap1\n      return\n        /* \"Campaign.sol\":5828:6957  function finalizeRequest(uint256 requestIndex) public onlyManager {... */\n    tag_18:\n        /* \"Campaign.sol\":2992:2999  manager */\n      0x02\n      0x00\n      swap1\n      sload\n      swap1\n      0x0100\n      exp\n      swap1\n      div\n      0xffffffffffffffffffffffffffffffffffffffff\n      and\n        /* \"Campaign.sol\":2978:2999  msg.sender == manager */\n      0xffffffffffffffffffffffffffffffffffffffff\n      and\n        /* \"Campaign.sol\":2978:2988  msg.sender */\n      caller\n        /* \"Campaign.sol\":2978:2999  msg.sender == manager */\n      0xffffffffffffffffffffffffffffffffffffffff\n      and\n      eq\n        /* \"Campaign.sol\":2970:3040  require(msg.sender == manager, \"Only manager can call this function.\") */\n      tag_67\n      jumpi\n      mload(0x40)\n      0x08c379a000000000000000000000000000000000000000000000000000000000\n      dup2\n      mstore\n      0x04\n      add\n      tag_68\n      swap1\n      tag_69\n      jump\t// in\n    tag_68:\n      mload(0x40)\n      dup1\n      swap2\n      sub\n      swap1\n      revert\n    tag_67:\n        /* \"Campaign.sol\":5984:6007  Request storage request */\n      0x00\n        /* \"Campaign.sol\":6010:6018  requests */\n      0x01\n        /* \"Campaign.sol\":6010:6032  requests[requestIndex] */\n      0x00\n        /* \"Campaign.sol\":6019:6031  requestIndex */\n      dup4\n        /* \"Campaign.sol\":6010:6032  requests[requestIndex] */\n      dup2\n      mstore\n      0x20\n      add\n      swap1\n      dup2\n      mstore\n      0x20\n      add\n      0x00\n      keccak256\n        /* \"Campaign.sol\":5984:6032  Request storage request = requests[requestIndex] */\n      swap1\n      pop\n        /* \"Campaign.sol\":6108:6115  request */\n      dup1\n        /* \"Campaign.sol\":6108:6124  request.complete */\n      0x02\n      add\n      0x14\n      swap1\n      sload\n      swap1\n      0x0100\n      exp\n      swap1\n      div\n      0xff\n      and\n        /* \"Campaign.sol\":6104:6196  if (request.complete) {... */\n      iszero\n      tag_71\n      jumpi\n        /* \"Campaign.sol\":6147:6185  Campaign__RequestWasAlreadyFinalized() */\n      mload(0x40)\n      0xbef8947700000000000000000000000000000000000000000000000000000000\n      dup2\n      mstore\n      0x04\n      add\n      mload(0x40)\n      dup1\n      swap2\n      sub\n      swap1\n      revert\n        /* \"Campaign.sol\":6104:6196  if (request.complete) {... */\n    tag_71:\n        /* \"Campaign.sol\":6391:6392  2 */\n      0x02\n        /* \"Campaign.sol\":6374:6388  approversCount */\n      sload(0x04)\n        /* \"Campaign.sol\":6374:6392  approversCount / 2 */\n      tag_72\n      swap2\n      swap1\n      tag_73\n      jump\t// in\n    tag_72:\n        /* \"Campaign.sol\":6349:6356  request */\n      dup2\n        /* \"Campaign.sol\":6349:6370  request.approvalCount */\n      0x03\n      add\n      sload\n        /* \"Campaign.sol\":6349:6393  request.approvalCount > (approversCount / 2) */\n      gt\n        /* \"Campaign.sol\":6343:6484  if (!(request.approvalCount > (approversCount / 2))) {... */\n      tag_74\n      jumpi\n        /* \"Campaign.sol\":6417:6473  Campaign__RequestCanNotBeFinalizedAsNotEnoughApprovers() */\n      mload(0x40)\n      0xe3de2eb600000000000000000000000000000000000000000000000000000000\n      dup2\n      mstore\n      0x04\n      add\n      mload(0x40)\n      dup1\n      swap2\n      sub\n      swap1\n      revert\n        /* \"Campaign.sol\":6343:6484  if (!(request.approvalCount > (approversCount / 2))) {... */\n    tag_74:\n        /* \"Campaign.sol\":6684:6700  bool callSuccess */\n      0x00\n        /* \"Campaign.sol\":6757:6764  request */\n      dup2\n        /* \"Campaign.sol\":6757:6781  request.requestRecipient */\n      0x02\n      add\n      0x00\n      swap1\n      sload\n      swap1\n      0x0100\n      exp\n      swap1\n      div\n      0xffffffffffffffffffffffffffffffffffffffff\n      and\n        /* \"Campaign.sol\":6736:6796  payable(... */\n      0xffffffffffffffffffffffffffffffffffffffff\n      and\n        /* \"Campaign.sol\":6804:6811  request */\n      dup3\n        /* \"Campaign.sol\":6804:6824  request.requestValue */\n      0x01\n      add\n      sload\n        /* \"Campaign.sol\":6736:6829  payable(... */\n      mload(0x40)\n      tag_75\n      swap1\n      tag_76\n      jump\t// in\n    tag_75:\n      0x00\n      mload(0x40)\n      dup1\n      dup4\n      sub\n      dup2\n      dup6\n      dup8\n      gas\n      call\n      swap3\n      pop\n      pop\n      pop\n      returndatasize\n      dup1\n      0x00\n      dup2\n      eq\n      tag_79\n      jumpi\n      mload(0x40)\n      swap2\n      pop\n      and(add(returndatasize, 0x3f), not(0x1f))\n      dup3\n      add\n      0x40\n      mstore\n      returndatasize\n      dup3\n      mstore\n      returndatasize\n      0x00\n      0x20\n      dup5\n      add\n      returndatacopy\n      jump(tag_78)\n    tag_79:\n      0x60\n      swap2\n      pop\n    tag_78:\n      pop\n        /* \"Campaign.sol\":6683:6829  (bool callSuccess /*bytes memory dataReturned*/, ) = payable(... */\n      pop\n      swap1\n      pop\n        /* \"Campaign.sol\":6847:6858  callSuccess */\n      dup1\n        /* \"Campaign.sol\":6839:6875  require(callSuccess, \"Call failed.\") */\n      tag_80\n      jumpi\n      mload(0x40)\n      0x08c379a000000000000000000000000000000000000000000000000000000000\n      dup2\n      mstore\n      0x04\n      add\n      tag_81\n      swap1\n      tag_82\n      jump\t// in\n    tag_81:\n      mload(0x40)\n      dup1\n      swap2\n      sub\n      swap1\n      revert\n    tag_80:\n        /* \"Campaign.sol\":6946:6950  true */\n      0x01\n        /* \"Campaign.sol\":6927:6934  request */\n      dup3\n        /* \"Campaign.sol\":6927:6943  request.complete */\n      0x02\n      add\n      0x14\n        /* \"Campaign.sol\":6927:6950  request.complete = true */\n      0x0100\n      exp\n      dup2\n      sload\n      dup2\n      0xff\n      mul\n      not\n      and\n      swap1\n      dup4\n      iszero\n      iszero\n      mul\n      or\n      swap1\n      sstore\n      pop\n        /* \"Campaign.sol\":5894:6957  {... */\n      pop\n      pop\n        /* \"Campaign.sol\":5828:6957  function finalizeRequest(uint256 requestIndex) public onlyManager {... */\n      pop\n      jump\t// out\n        /* \"Campaign.sol\":2668:2709  mapping(address => bool) public approvers */\n    tag_23:\n      mstore(0x20, 0x03)\n      dup1\n      0x00\n      mstore\n      keccak256(0x00, 0x40)\n      0x00\n      swap2\n      pop\n      sload\n      swap1\n      0x0100\n      exp\n      swap1\n      div\n      0xff\n      and\n      dup2\n      jump\t// out\n        /* \"Campaign.sol\":2460:2482  address public manager */\n    tag_28:\n      0x02\n      0x00\n      swap1\n      sload\n      swap1\n      0x0100\n      exp\n      swap1\n      div\n      0xffffffffffffffffffffffffffffffffffffffff\n      and\n      dup2\n      jump\t// out\n        /* \"Campaign.sol\":7493:7601  function isApprover(address _address) public view returns (bool) {... */\n    tag_34:\n        /* \"Campaign.sol\":7552:7556  bool */\n      0x00\n        /* \"Campaign.sol\":7575:7584  approvers */\n      0x03\n        /* \"Campaign.sol\":7575:7594  approvers[_address] */\n      0x00\n        /* \"Campaign.sol\":7585:7593  _address */\n      dup4\n        /* \"Campaign.sol\":7575:7594  approvers[_address] */\n      0xffffffffffffffffffffffffffffffffffffffff\n      and\n      0xffffffffffffffffffffffffffffffffffffffff\n      and\n      dup2\n      mstore\n      0x20\n      add\n      swap1\n      dup2\n      mstore\n      0x20\n      add\n      0x00\n      keccak256\n      0x00\n      swap1\n      sload\n      swap1\n      0x0100\n      exp\n      swap1\n      div\n      0xff\n      and\n        /* \"Campaign.sol\":7568:7594  return approvers[_address] */\n      swap1\n      pop\n        /* \"Campaign.sol\":7493:7601  function isApprover(address _address) public view returns (bool) {... */\n      swap2\n      swap1\n      pop\n      jump\t// out\n        /* \"Campaign.sol\":2775:2804  uint256 public approversCount */\n    tag_38:\n      sload(0x04)\n      dup2\n      jump\t// out\n        /* \"Campaign.sol\":3917:4385  function createRequest(... */\n    tag_45:\n        /* \"Campaign.sol\":2992:2999  manager */\n      0x02\n      0x00\n      swap1\n      sload\n      swap1\n      0x0100\n      exp\n      swap1\n      div\n      0xffffffffffffffffffffffffffffffffffffffff\n      and\n        /* \"Campaign.sol\":2978:2999  msg.sender == manager */\n      0xffffffffffffffffffffffffffffffffffffffff\n      and\n        /* \"Campaign.sol\":2978:2988  msg.sender */\n      caller\n        /* \"Campaign.sol\":2978:2999  msg.sender == manager */\n      0xffffffffffffffffffffffffffffffffffffffff\n      and\n      eq\n        /* \"Campaign.sol\":2970:3040  require(msg.sender == manager, \"Only manager can call this function.\") */\n      tag_85\n      jumpi\n      mload(0x40)\n      0x08c379a000000000000000000000000000000000000000000000000000000000\n      dup2\n      mstore\n      0x04\n      add\n      tag_86\n      swap1\n      tag_69\n      jump\t// in\n    tag_86:\n      mload(0x40)\n      dup1\n      swap2\n      sub\n      swap1\n      revert\n    tag_85:\n        /* \"Campaign.sol\":4084:4110  Request storage newRequest */\n      0x00\n        /* \"Campaign.sol\":4113:4121  requests */\n      0x01\n        /* \"Campaign.sol\":4113:4136  requests[numRequests++] */\n      0x00\n        /* \"Campaign.sol\":4122:4133  numRequests */\n      dup1\n      0x00\n        /* \"Campaign.sol\":4122:4135  numRequests++ */\n      dup2\n      sload\n      dup1\n      swap3\n      swap2\n      swap1\n      tag_88\n      swap1\n      tag_89\n      jump\t// in\n    tag_88:\n      swap2\n      swap1\n      pop\n      sstore\n        /* \"Campaign.sol\":4113:4136  requests[numRequests++] */\n      dup2\n      mstore\n      0x20\n      add\n      swap1\n      dup2\n      mstore\n      0x20\n      add\n      0x00\n      keccak256\n        /* \"Campaign.sol\":4084:4136  Request storage newRequest = requests[numRequests++] */\n      swap1\n      pop\n        /* \"Campaign.sol\":4178:4197  _requestDescription */\n      dup4\n        /* \"Campaign.sol\":4146:4156  newRequest */\n      dup2\n        /* \"Campaign.sol\":4146:4175  newRequest.requestDescription */\n      0x00\n      add\n        /* \"Campaign.sol\":4146:4197  newRequest.requestDescription = _requestDescription */\n      swap1\n      dup2\n      tag_90\n      swap2\n      swap1\n      tag_91\n      jump\t// in\n    tag_90:\n      pop\n        /* \"Campaign.sol\":4233:4246  _requestValue */\n      dup3\n        /* \"Campaign.sol\":4207:4217  newRequest */\n      dup2\n        /* \"Campaign.sol\":4207:4230  newRequest.requestValue */\n      0x01\n      add\n        /* \"Campaign.sol\":4207:4246  newRequest.requestValue = _requestValue */\n      dup2\n      swap1\n      sstore\n      pop\n        /* \"Campaign.sol\":4286:4303  _requestRecipient */\n      dup2\n        /* \"Campaign.sol\":4256:4266  newRequest */\n      dup2\n        /* \"Campaign.sol\":4256:4283  newRequest.requestRecipient */\n      0x02\n      add\n      0x00\n        /* \"Campaign.sol\":4256:4303  newRequest.requestRecipient = _requestRecipient */\n      0x0100\n      exp\n      dup2\n      sload\n      dup2\n      0xffffffffffffffffffffffffffffffffffffffff\n      mul\n      not\n      and\n      swap1\n      dup4\n      0xffffffffffffffffffffffffffffffffffffffff\n      and\n      mul\n      or\n      swap1\n      sstore\n      pop\n        /* \"Campaign.sol\":4335:4340  false */\n      0x00\n        /* \"Campaign.sol\":4313:4323  newRequest */\n      dup2\n        /* \"Campaign.sol\":4313:4332  newRequest.complete */\n      0x02\n      add\n      0x14\n        /* \"Campaign.sol\":4313:4340  newRequest.complete = false */\n      0x0100\n      exp\n      dup2\n      sload\n      dup2\n      0xff\n      mul\n      not\n      and\n      swap1\n      dup4\n      iszero\n      iszero\n      mul\n      or\n      swap1\n      sstore\n      pop\n        /* \"Campaign.sol\":4377:4378  0 */\n      0x00\n        /* \"Campaign.sol\":4350:4360  newRequest */\n      dup2\n        /* \"Campaign.sol\":4350:4374  newRequest.approvalCount */\n      0x03\n      add\n        /* \"Campaign.sol\":4350:4378  newRequest.approvalCount = 0 */\n      dup2\n      swap1\n      sstore\n      pop\n        /* \"Campaign.sol\":4074:4385  {... */\n      pop\n        /* \"Campaign.sol\":3917:4385  function createRequest(... */\n      pop\n      pop\n      pop\n      jump\t// out\n        /* \"Campaign.sol\":2303:2329  uint256 public numRequests */\n    tag_48:\n      sload(0x00)\n      dup2\n      jump\t// out\n        /* \"Campaign.sol\":7106:7487  function getRequest(... */\n    tag_53:\n        /* \"Campaign.sol\":7176:7189  string memory */\n      0x60\n        /* \"Campaign.sol\":7191:7198  uint256 */\n      0x00\n        /* \"Campaign.sol\":7200:7207  address */\n      dup1\n        /* \"Campaign.sol\":7209:7213  bool */\n      0x00\n        /* \"Campaign.sol\":7215:7222  uint256 */\n      dup1\n        /* \"Campaign.sol\":7234:7257  Request storage request */\n      0x00\n        /* \"Campaign.sol\":7260:7268  requests */\n      0x01\n        /* \"Campaign.sol\":7260:7275  requests[index] */\n      0x00\n        /* \"Campaign.sol\":7269:7274  index */\n      dup9\n        /* \"Campaign.sol\":7260:7275  requests[index] */\n      dup2\n      mstore\n      0x20\n      add\n      swap1\n      dup2\n      mstore\n      0x20\n      add\n      0x00\n      keccak256\n        /* \"Campaign.sol\":7234:7275  Request storage request = requests[index] */\n      swap1\n      pop\n        /* \"Campaign.sol\":7307:7314  request */\n      dup1\n        /* \"Campaign.sol\":7307:7333  request.requestDescription */\n      0x00\n      add\n        /* \"Campaign.sol\":7347:7354  request */\n      dup2\n        /* \"Campaign.sol\":7347:7367  request.requestValue */\n      0x01\n      add\n      sload\n        /* \"Campaign.sol\":7381:7388  request */\n      dup3\n        /* \"Campaign.sol\":7381:7405  request.requestRecipient */\n      0x02\n      add\n      0x00\n      swap1\n      sload\n      swap1\n      0x0100\n      exp\n      swap1\n      div\n      0xffffffffffffffffffffffffffffffffffffffff\n      and\n        /* \"Campaign.sol\":7419:7426  request */\n      dup4\n        /* \"Campaign.sol\":7419:7435  request.complete */\n      0x02\n      add\n      0x14\n      swap1\n      sload\n      swap1\n      0x0100\n      exp\n      swap1\n      div\n      0xff\n      and\n        /* \"Campaign.sol\":7449:7456  request */\n      dup5\n        /* \"Campaign.sol\":7449:7470  request.approvalCount */\n      0x03\n      add\n      sload\n        /* \"Campaign.sol\":7286:7480  return (... */\n      dup5\n      dup1\n      sload\n      tag_93\n      swap1\n      tag_94\n      jump\t// in\n    tag_93:\n      dup1\n      0x1f\n      add\n      0x20\n      dup1\n      swap2\n      div\n      mul\n      0x20\n      add\n      mload(0x40)\n      swap1\n      dup2\n      add\n      0x40\n      mstore\n      dup1\n      swap3\n      swap2\n      swap1\n      dup2\n      dup2\n      mstore\n      0x20\n      add\n      dup3\n      dup1\n      sload\n      tag_95\n      swap1\n      tag_94\n      jump\t// in\n    tag_95:\n      dup1\n      iszero\n      tag_96\n      jumpi\n      dup1\n      0x1f\n      lt\n      tag_97\n      jumpi\n      0x0100\n      dup1\n      dup4\n      sload\n      div\n      mul\n      dup4\n      mstore\n      swap2\n      0x20\n      add\n      swap2\n      jump(tag_96)\n    tag_97:\n      dup3\n      add\n      swap2\n      swap1\n      0x00\n      mstore\n      keccak256(0x00, 0x20)\n      swap1\n    tag_98:\n      dup2\n      sload\n      dup2\n      mstore\n      swap1\n      0x01\n      add\n      swap1\n      0x20\n      add\n      dup1\n      dup4\n      gt\n      tag_98\n      jumpi\n      dup3\n      swap1\n      sub\n      0x1f\n      and\n      dup3\n      add\n      swap2\n    tag_96:\n      pop\n      pop\n      pop\n      pop\n      pop\n      swap5\n      pop\n      swap6\n      pop\n      swap6\n      pop\n      swap6\n      pop\n      swap6\n      pop\n      swap6\n      pop\n      pop\n        /* \"Campaign.sol\":7106:7487  function getRequest(... */\n      swap2\n      swap4\n      swap6\n      swap1\n      swap3\n      swap5\n      pop\n      jump\t// out\n        /* \"Campaign.sol\":3528:3834  function contribute() public payable {... */\n    tag_57:\n        /* \"Campaign.sol\":3591:3612  i_minimumContribution */\n      immutable(\"0x63867b8d5e748cf93e24f7b381d92337d037805bfc271d6d67e0e86772662677\")\n        /* \"Campaign.sol\":3579:3588  msg.value */\n      callvalue\n        /* \"Campaign.sol\":3579:3612  msg.value < i_minimumContribution */\n      lt\n        /* \"Campaign.sol\":3575:3674  if (msg.value < i_minimumContribution) {... */\n      iszero\n      tag_100\n      jumpi\n        /* \"Campaign.sol\":3635:3663  Campaign__NotEnoughEthSent() */\n      mload(0x40)\n      0x6f506f0700000000000000000000000000000000000000000000000000000000\n      dup2\n      mstore\n      0x04\n      add\n      mload(0x40)\n      dup1\n      swap2\n      sub\n      swap1\n      revert\n        /* \"Campaign.sol\":3575:3674  if (msg.value < i_minimumContribution) {... */\n    tag_100:\n        /* \"Campaign.sol\":3745:3749  true */\n      0x01\n        /* \"Campaign.sol\":3721:3730  approvers */\n      0x03\n        /* \"Campaign.sol\":3721:3742  approvers[msg.sender] */\n      0x00\n        /* \"Campaign.sol\":3731:3741  msg.sender */\n      caller\n        /* \"Campaign.sol\":3721:3742  approvers[msg.sender] */\n      0xffffffffffffffffffffffffffffffffffffffff\n      and\n      0xffffffffffffffffffffffffffffffffffffffff\n      and\n      dup2\n      mstore\n      0x20\n      add\n      swap1\n      dup2\n      mstore\n      0x20\n      add\n      0x00\n      keccak256\n      0x00\n        /* \"Campaign.sol\":3721:3749  approvers[msg.sender] = true */\n      0x0100\n      exp\n      dup2\n      sload\n      dup2\n      0xff\n      mul\n      not\n      and\n      swap1\n      dup4\n      iszero\n      iszero\n      mul\n      or\n      swap1\n      sstore\n      pop\n        /* \"Campaign.sol\":3811:3825  approversCount */\n      0x04\n      0x00\n        /* \"Campaign.sol\":3811:3827  approversCount++ */\n      dup2\n      sload\n      dup1\n      swap3\n      swap2\n      swap1\n      tag_101\n      swap1\n      tag_89\n      jump\t// in\n    tag_101:\n      swap2\n      swap1\n      pop\n      sstore\n      pop\n        /* \"Campaign.sol\":3528:3834  function contribute() public payable {... */\n      jump\t// out\n        /* \"Campaign.sol\":4862:5697  function approveRequest(uint256 requestIndex) public {... */\n    tag_61:\n        /* \"Campaign.sol\":5005:5028  Request storage request */\n      0x00\n        /* \"Campaign.sol\":5031:5039  requests */\n      0x01\n        /* \"Campaign.sol\":5031:5053  requests[requestIndex] */\n      0x00\n        /* \"Campaign.sol\":5040:5052  requestIndex */\n      dup4\n        /* \"Campaign.sol\":5031:5053  requests[requestIndex] */\n      dup2\n      mstore\n      0x20\n      add\n      swap1\n      dup2\n      mstore\n      0x20\n      add\n      0x00\n      keccak256\n        /* \"Campaign.sol\":5005:5053  Request storage request = requests[requestIndex] */\n      swap1\n      pop\n        /* \"Campaign.sol\":5179:5188  approvers */\n      0x03\n        /* \"Campaign.sol\":5179:5200  approvers[msg.sender] */\n      0x00\n        /* \"Campaign.sol\":5189:5199  msg.sender */\n      caller\n        /* \"Campaign.sol\":5179:5200  approvers[msg.sender] */\n      0xffffffffffffffffffffffffffffffffffffffff\n      and\n      0xffffffffffffffffffffffffffffffffffffffff\n      and\n      dup2\n      mstore\n      0x20\n      add\n      swap1\n      dup2\n      mstore\n      0x20\n      add\n      0x00\n      keccak256\n      0x00\n      swap1\n      sload\n      swap1\n      0x0100\n      exp\n      swap1\n      div\n      0xff\n      and\n        /* \"Campaign.sol\":5174:5270  if (!approvers[msg.sender]) {... */\n      tag_103\n      jumpi\n        /* \"Campaign.sol\":5223:5259  Campaign__ApproverIsNotContributor() */\n      mload(0x40)\n      0x2e4557c200000000000000000000000000000000000000000000000000000000\n      dup2\n      mstore\n      0x04\n      add\n      mload(0x40)\n      dup1\n      swap2\n      sub\n      swap1\n      revert\n        /* \"Campaign.sol\":5174:5270  if (!approvers[msg.sender]) {... */\n    tag_103:\n        /* \"Campaign.sol\":5381:5388  request */\n      dup1\n        /* \"Campaign.sol\":5381:5398  request.approvals */\n      0x04\n      add\n        /* \"Campaign.sol\":5381:5410  request.approvals[msg.sender] */\n      0x00\n        /* \"Campaign.sol\":5399:5409  msg.sender */\n      caller\n        /* \"Campaign.sol\":5381:5410  request.approvals[msg.sender] */\n      0xffffffffffffffffffffffffffffffffffffffff\n      and\n      0xffffffffffffffffffffffffffffffffffffffff\n      and\n      dup2\n      mstore\n      0x20\n      add\n      swap1\n      dup2\n      mstore\n      0x20\n      add\n      0x00\n      keccak256\n      0x00\n      swap1\n      sload\n      swap1\n      0x0100\n      exp\n      swap1\n      div\n      0xff\n      and\n        /* \"Campaign.sol\":5377:5490  if (request.approvals[msg.sender]) {... */\n      iszero\n      tag_104\n      jumpi\n        /* \"Campaign.sol\":5433:5479  Campaign__ApproverAlreadyVotedForThisRequest() */\n      mload(0x40)\n      0x72e3d32300000000000000000000000000000000000000000000000000000000\n      dup2\n      mstore\n      0x04\n      add\n      mload(0x40)\n      dup1\n      swap2\n      sub\n      swap1\n      revert\n        /* \"Campaign.sol\":5377:5490  if (request.approvals[msg.sender]) {... */\n    tag_104:\n        /* \"Campaign.sol\":5653:5657  true */\n      0x01\n        /* \"Campaign.sol\":5621:5628  request */\n      dup2\n        /* \"Campaign.sol\":5621:5638  request.approvals */\n      0x04\n      add\n        /* \"Campaign.sol\":5621:5650  request.approvals[msg.sender] */\n      0x00\n        /* \"Campaign.sol\":5639:5649  msg.sender */\n      caller\n        /* \"Campaign.sol\":5621:5650  request.approvals[msg.sender] */\n      0xffffffffffffffffffffffffffffffffffffffff\n      and\n      0xffffffffffffffffffffffffffffffffffffffff\n      and\n      dup2\n      mstore\n      0x20\n      add\n      swap1\n      dup2\n      mstore\n      0x20\n      add\n      0x00\n      keccak256\n      0x00\n        /* \"Campaign.sol\":5621:5657  request.approvals[msg.sender] = true */\n      0x0100\n      exp\n      dup2\n      sload\n      dup2\n      0xff\n      mul\n      not\n      and\n      swap1\n      dup4\n      iszero\n      iszero\n      mul\n      or\n      swap1\n      sstore\n      pop\n        /* \"Campaign.sol\":5667:5674  request */\n      dup1\n        /* \"Campaign.sol\":5667:5688  request.approvalCount */\n      0x03\n      add\n      0x00\n        /* \"Campaign.sol\":5667:5690  request.approvalCount++ */\n      dup2\n      sload\n      dup1\n      swap3\n      swap2\n      swap1\n      tag_105\n      swap1\n      tag_89\n      jump\t// in\n    tag_105:\n      swap2\n      swap1\n      pop\n      sstore\n      pop\n        /* \"Campaign.sol\":4915:5697  {... */\n      pop\n        /* \"Campaign.sol\":4862:5697  function approveRequest(uint256 requestIndex) public {... */\n      pop\n      jump\t// out\n        /* \"Campaign.sol\":6989:7100  function getMinimumContribution() external view returns (uint256) {... */\n    tag_64:\n        /* \"Campaign.sol\":7046:7053  uint256 */\n      0x00\n        /* \"Campaign.sol\":7072:7093  i_minimumContribution */\n      immutable(\"0x63867b8d5e748cf93e24f7b381d92337d037805bfc271d6d67e0e86772662677\")\n        /* \"Campaign.sol\":7065:7093  return i_minimumContribution */\n      swap1\n      pop\n        /* \"Campaign.sol\":6989:7100  function getMinimumContribution() external view returns (uint256) {... */\n      swap1\n      jump\t// out\n        /* \"#utility.yul\":7:82   */\n    tag_107:\n        /* \"#utility.yul\":40:46   */\n      0x00\n        /* \"#utility.yul\":73:75   */\n      0x40\n        /* \"#utility.yul\":67:76   */\n      mload\n        /* \"#utility.yul\":57:76   */\n      swap1\n      pop\n        /* \"#utility.yul\":7:82   */\n      swap1\n      jump\t// out\n        /* \"#utility.yul\":88:205   */\n    tag_108:\n        /* \"#utility.yul\":197:198   */\n      0x00\n        /* \"#utility.yul\":194:195   */\n      dup1\n        /* \"#utility.yul\":187:199   */\n      revert\n        /* \"#utility.yul\":211:328   */\n    tag_109:\n        /* \"#utility.yul\":320:321   */\n      0x00\n        /* \"#utility.yul\":317:318   */\n      dup1\n        /* \"#utility.yul\":310:322   */\n      revert\n        /* \"#utility.yul\":334:411   */\n    tag_110:\n        /* \"#utility.yul\":371:378   */\n      0x00\n        /* \"#utility.yul\":400:405   */\n      dup2\n        /* \"#utility.yul\":389:405   */\n      swap1\n      pop\n        /* \"#utility.yul\":334:411   */\n      swap2\n      swap1\n      pop\n      jump\t// out\n        /* \"#utility.yul\":417:539   */\n    tag_111:\n        /* \"#utility.yul\":490:514   */\n      tag_166\n        /* \"#utility.yul\":508:513   */\n      dup2\n        /* \"#utility.yul\":490:514   */\n      tag_110\n      jump\t// in\n    tag_166:\n        /* \"#utility.yul\":483:488   */\n      dup2\n        /* \"#utility.yul\":480:515   */\n      eq\n        /* \"#utility.yul\":470:533   */\n      tag_167\n      jumpi\n        /* \"#utility.yul\":529:530   */\n      0x00\n        /* \"#utility.yul\":526:527   */\n      dup1\n        /* \"#utility.yul\":519:531   */\n      revert\n        /* \"#utility.yul\":470:533   */\n    tag_167:\n        /* \"#utility.yul\":417:539   */\n      pop\n      jump\t// out\n        /* \"#utility.yul\":545:684   */\n    tag_112:\n        /* \"#utility.yul\":591:596   */\n      0x00\n        /* \"#utility.yul\":629:635   */\n      dup2\n        /* \"#utility.yul\":616:636   */\n      calldataload\n        /* \"#utility.yul\":607:636   */\n      swap1\n      pop\n        /* \"#utility.yul\":645:678   */\n      tag_169\n        /* \"#utility.yul\":672:677   */\n      dup2\n        /* \"#utility.yul\":645:678   */\n      tag_111\n      jump\t// in\n    tag_169:\n        /* \"#utility.yul\":545:684   */\n      swap3\n      swap2\n      pop\n      pop\n      jump\t// out\n        /* \"#utility.yul\":690:1019   */\n    tag_17:\n        /* \"#utility.yul\":749:755   */\n      0x00\n        /* \"#utility.yul\":798:800   */\n      0x20\n        /* \"#utility.yul\":786:795   */\n      dup3\n        /* \"#utility.yul\":777:784   */\n      dup5\n        /* \"#utility.yul\":773:796   */\n      sub\n        /* \"#utility.yul\":769:801   */\n      slt\n        /* \"#utility.yul\":766:885   */\n      iszero\n      tag_171\n      jumpi\n        /* \"#utility.yul\":804:883   */\n      tag_172\n      tag_108\n      jump\t// in\n    tag_172:\n        /* \"#utility.yul\":766:885   */\n    tag_171:\n        /* \"#utility.yul\":924:925   */\n      0x00\n        /* \"#utility.yul\":949:1002   */\n      tag_173\n        /* \"#utility.yul\":994:1001   */\n      dup5\n        /* \"#utility.yul\":985:991   */\n      dup3\n        /* \"#utility.yul\":974:983   */\n      dup6\n        /* \"#utility.yul\":970:992   */\n      add\n        /* \"#utility.yul\":949:1002   */\n      tag_112\n      jump\t// in\n    tag_173:\n        /* \"#utility.yul\":939:1002   */\n      swap2\n      pop\n        /* \"#utility.yul\":895:1012   */\n      pop\n        /* \"#utility.yul\":690:1019   */\n      swap3\n      swap2\n      pop\n      pop\n      jump\t// out\n        /* \"#utility.yul\":1025:1151   */\n    tag_113:\n        /* \"#utility.yul\":1062:1069   */\n      0x00\n        /* \"#utility.yul\":1102:1144   */\n      0xffffffffffffffffffffffffffffffffffffffff\n        /* \"#utility.yul\":1095:1100   */\n      dup3\n        /* \"#utility.yul\":1091:1145   */\n      and\n        /* \"#utility.yul\":1080:1145   */\n      swap1\n      pop\n        /* \"#utility.yul\":1025:1151   */\n      swap2\n      swap1\n      pop\n      jump\t// out\n        /* \"#utility.yul\":1157:1253   */\n    tag_114:\n        /* \"#utility.yul\":1194:1201   */\n      0x00\n        /* \"#utility.yul\":1223:1247   */\n      tag_176\n        /* \"#utility.yul\":1241:1246   */\n      dup3\n        /* \"#utility.yul\":1223:1247   */\n      tag_113\n      jump\t// in\n    tag_176:\n        /* \"#utility.yul\":1212:1247   */\n      swap1\n      pop\n        /* \"#utility.yul\":1157:1253   */\n      swap2\n      swap1\n      pop\n      jump\t// out\n        /* \"#utility.yul\":1259:1381   */\n    tag_115:\n        /* \"#utility.yul\":1332:1356   */\n      tag_178\n        /* \"#utility.yul\":1350:1355   */\n      dup2\n        /* \"#utility.yul\":1332:1356   */\n      tag_114\n      jump\t// in\n    tag_178:\n        /* \"#utility.yul\":1325:1330   */\n      dup2\n        /* \"#utility.yul\":1322:1357   */\n      eq\n        /* \"#utility.yul\":1312:1375   */\n      tag_179\n      jumpi\n        /* \"#utility.yul\":1371:1372   */\n      0x00\n        /* \"#utility.yul\":1368:1369   */\n      dup1\n        /* \"#utility.yul\":1361:1373   */\n      revert\n        /* \"#utility.yul\":1312:1375   */\n    tag_179:\n        /* \"#utility.yul\":1259:1381   */\n      pop\n      jump\t// out\n        /* \"#utility.yul\":1387:1526   */\n    tag_116:\n        /* \"#utility.yul\":1433:1438   */\n      0x00\n        /* \"#utility.yul\":1471:1477   */\n      dup2\n        /* \"#utility.yul\":1458:1478   */\n      calldataload\n        /* \"#utility.yul\":1449:1478   */\n      swap1\n      pop\n        /* \"#utility.yul\":1487:1520   */\n      tag_181\n        /* \"#utility.yul\":1514:1519   */\n      dup2\n        /* \"#utility.yul\":1487:1520   */\n      tag_115\n      jump\t// in\n    tag_181:\n        /* \"#utility.yul\":1387:1526   */\n      swap3\n      swap2\n      pop\n      pop\n      jump\t// out\n        /* \"#utility.yul\":1532:1861   */\n    tag_22:\n        /* \"#utility.yul\":1591:1597   */\n      0x00\n        /* \"#utility.yul\":1640:1642   */\n      0x20\n        /* \"#utility.yul\":1628:1637   */\n      dup3\n        /* \"#utility.yul\":1619:1626   */\n      dup5\n        /* \"#utility.yul\":1615:1638   */\n      sub\n        /* \"#utility.yul\":1611:1643   */\n      slt\n        /* \"#utility.yul\":1608:1727   */\n      iszero\n      tag_183\n      jumpi\n        /* \"#utility.yul\":1646:1725   */\n      tag_184\n      tag_108\n      jump\t// in\n    tag_184:\n        /* \"#utility.yul\":1608:1727   */\n    tag_183:\n        /* \"#utility.yul\":1766:1767   */\n      0x00\n        /* \"#utility.yul\":1791:1844   */\n      tag_185\n        /* \"#utility.yul\":1836:1843   */\n      dup5\n        /* \"#utility.yul\":1827:1833   */\n      dup3\n        /* \"#utility.yul\":1816:1825   */\n      dup6\n        /* \"#utility.yul\":1812:1834   */\n      add\n        /* \"#utility.yul\":1791:1844   */\n      tag_116\n      jump\t// in\n    tag_185:\n        /* \"#utility.yul\":1781:1844   */\n      swap2\n      pop\n        /* \"#utility.yul\":1737:1854   */\n      pop\n        /* \"#utility.yul\":1532:1861   */\n      swap3\n      swap2\n      pop\n      pop\n      jump\t// out\n        /* \"#utility.yul\":1867:1957   */\n    tag_117:\n        /* \"#utility.yul\":1901:1908   */\n      0x00\n        /* \"#utility.yul\":1944:1949   */\n      dup2\n        /* \"#utility.yul\":1937:1950   */\n      iszero\n        /* \"#utility.yul\":1930:1951   */\n      iszero\n        /* \"#utility.yul\":1919:1951   */\n      swap1\n      pop\n        /* \"#utility.yul\":1867:1957   */\n      swap2\n      swap1\n      pop\n      jump\t// out\n        /* \"#utility.yul\":1963:2072   */\n    tag_118:\n        /* \"#utility.yul\":2044:2065   */\n      tag_188\n        /* \"#utility.yul\":2059:2064   */\n      dup2\n        /* \"#utility.yul\":2044:2065   */\n      tag_117\n      jump\t// in\n    tag_188:\n        /* \"#utility.yul\":2039:2042   */\n      dup3\n        /* \"#utility.yul\":2032:2066   */\n      mstore\n        /* \"#utility.yul\":1963:2072   */\n      pop\n      pop\n      jump\t// out\n        /* \"#utility.yul\":2078:2288   */\n    tag_25:\n        /* \"#utility.yul\":2165:2169   */\n      0x00\n        /* \"#utility.yul\":2203:2205   */\n      0x20\n        /* \"#utility.yul\":2192:2201   */\n      dup3\n        /* \"#utility.yul\":2188:2206   */\n      add\n        /* \"#utility.yul\":2180:2206   */\n      swap1\n      pop\n        /* \"#utility.yul\":2216:2281   */\n      tag_190\n        /* \"#utility.yul\":2278:2279   */\n      0x00\n        /* \"#utility.yul\":2267:2276   */\n      dup4\n        /* \"#utility.yul\":2263:2280   */\n      add\n        /* \"#utility.yul\":2254:2260   */\n      dup5\n        /* \"#utility.yul\":2216:2281   */\n      tag_118\n      jump\t// in\n    tag_190:\n        /* \"#utility.yul\":2078:2288   */\n      swap3\n      swap2\n      pop\n      pop\n      jump\t// out\n        /* \"#utility.yul\":2294:2412   */\n    tag_119:\n        /* \"#utility.yul\":2381:2405   */\n      tag_192\n        /* \"#utility.yul\":2399:2404   */\n      dup2\n        /* \"#utility.yul\":2381:2405   */\n      tag_114\n      jump\t// in\n    tag_192:\n        /* \"#utility.yul\":2376:2379   */\n      dup3\n        /* \"#utility.yul\":2369:2406   */\n      mstore\n        /* \"#utility.yul\":2294:2412   */\n      pop\n      pop\n      jump\t// out\n        /* \"#utility.yul\":2418:2640   */\n    tag_30:\n        /* \"#utility.yul\":2511:2515   */\n      0x00\n        /* \"#utility.yul\":2549:2551   */\n      0x20\n        /* \"#utility.yul\":2538:2547   */\n      dup3\n        /* \"#utility.yul\":2534:2552   */\n      add\n        /* \"#utility.yul\":2526:2552   */\n      swap1\n      pop\n        /* \"#utility.yul\":2562:2633   */\n      tag_194\n        /* \"#utility.yul\":2630:2631   */\n      0x00\n        /* \"#utility.yul\":2619:2628   */\n      dup4\n        /* \"#utility.yul\":2615:2632   */\n      add\n        /* \"#utility.yul\":2606:2612   */\n      dup5\n        /* \"#utility.yul\":2562:2633   */\n      tag_119\n      jump\t// in\n    tag_194:\n        /* \"#utility.yul\":2418:2640   */\n      swap3\n      swap2\n      pop\n      pop\n      jump\t// out\n        /* \"#utility.yul\":2646:2764   */\n    tag_120:\n        /* \"#utility.yul\":2733:2757   */\n      tag_196\n        /* \"#utility.yul\":2751:2756   */\n      dup2\n        /* \"#utility.yul\":2733:2757   */\n      tag_110\n      jump\t// in\n    tag_196:\n        /* \"#utility.yul\":2728:2731   */\n      dup3\n        /* \"#utility.yul\":2721:2758   */\n      mstore\n        /* \"#utility.yul\":2646:2764   */\n      pop\n      pop\n      jump\t// out\n        /* \"#utility.yul\":2770:2992   */\n    tag_40:\n        /* \"#utility.yul\":2863:2867   */\n      0x00\n        /* \"#utility.yul\":2901:2903   */\n      0x20\n        /* \"#utility.yul\":2890:2899   */\n      dup3\n        /* \"#utility.yul\":2886:2904   */\n      add\n        /* \"#utility.yul\":2878:2904   */\n      swap1\n      pop\n        /* \"#utility.yul\":2914:2985   */\n      tag_198\n        /* \"#utility.yul\":2982:2983   */\n      0x00\n        /* \"#utility.yul\":2971:2980   */\n      dup4\n        /* \"#utility.yul\":2967:2984   */\n      add\n        /* \"#utility.yul\":2958:2964   */\n      dup5\n        /* \"#utility.yul\":2914:2985   */\n      tag_120\n      jump\t// in\n    tag_198:\n        /* \"#utility.yul\":2770:2992   */\n      swap3\n      swap2\n      pop\n      pop\n      jump\t// out\n        /* \"#utility.yul\":2998:3115   */\n    tag_121:\n        /* \"#utility.yul\":3107:3108   */\n      0x00\n        /* \"#utility.yul\":3104:3105   */\n      dup1\n        /* \"#utility.yul\":3097:3109   */\n      revert\n        /* \"#utility.yul\":3121:3238   */\n    tag_122:\n        /* \"#utility.yul\":3230:3231   */\n      0x00\n        /* \"#utility.yul\":3227:3228   */\n      dup1\n        /* \"#utility.yul\":3220:3232   */\n      revert\n        /* \"#utility.yul\":3244:3346   */\n    tag_123:\n        /* \"#utility.yul\":3285:3291   */\n      0x00\n        /* \"#utility.yul\":3336:3338   */\n      0x1f\n        /* \"#utility.yul\":3332:3339   */\n      not\n        /* \"#utility.yul\":3327:3329   */\n      0x1f\n        /* \"#utility.yul\":3320:3325   */\n      dup4\n        /* \"#utility.yul\":3316:3330   */\n      add\n        /* \"#utility.yul\":3312:3340   */\n      and\n        /* \"#utility.yul\":3302:3340   */\n      swap1\n      pop\n        /* \"#utility.yul\":3244:3346   */\n      swap2\n      swap1\n      pop\n      jump\t// out\n        /* \"#utility.yul\":3352:3532   */\n    tag_124:\n        /* \"#utility.yul\":3400:3477   */\n      0x4e487b7100000000000000000000000000000000000000000000000000000000\n        /* \"#utility.yul\":3397:3398   */\n      0x00\n        /* \"#utility.yul\":3390:3478   */\n      mstore\n        /* \"#utility.yul\":3497:3501   */\n      0x41\n        /* \"#utility.yul\":3494:3495   */\n      0x04\n        /* \"#utility.yul\":3487:3502   */\n      mstore\n        /* \"#utility.yul\":3521:3525   */\n      0x24\n        /* \"#utility.yul\":3518:3519   */\n      0x00\n        /* \"#utility.yul\":3511:3526   */\n      revert\n        /* \"#utility.yul\":3538:3819   */\n    tag_125:\n        /* \"#utility.yul\":3621:3648   */\n      tag_204\n        /* \"#utility.yul\":3643:3647   */\n      dup3\n        /* \"#utility.yul\":3621:3648   */\n      tag_123\n      jump\t// in\n    tag_204:\n        /* \"#utility.yul\":3613:3619   */\n      dup2\n        /* \"#utility.yul\":3609:3649   */\n      add\n        /* \"#utility.yul\":3751:3757   */\n      dup2\n        /* \"#utility.yul\":3739:3749   */\n      dup2\n        /* \"#utility.yul\":3736:3758   */\n      lt\n        /* \"#utility.yul\":3715:3733   */\n      0xffffffffffffffff\n        /* \"#utility.yul\":3703:3713   */\n      dup3\n        /* \"#utility.yul\":3700:3734   */\n      gt\n        /* \"#utility.yul\":3697:3759   */\n      or\n        /* \"#utility.yul\":3694:3782   */\n      iszero\n      tag_205\n      jumpi\n        /* \"#utility.yul\":3762:3780   */\n      tag_206\n      tag_124\n      jump\t// in\n    tag_206:\n        /* \"#utility.yul\":3694:3782   */\n    tag_205:\n        /* \"#utility.yul\":3802:3812   */\n      dup1\n        /* \"#utility.yul\":3798:3800   */\n      0x40\n        /* \"#utility.yul\":3791:3813   */\n      mstore\n        /* \"#utility.yul\":3581:3819   */\n      pop\n        /* \"#utility.yul\":3538:3819   */\n      pop\n      pop\n      jump\t// out\n        /* \"#utility.yul\":3825:3954   */\n    tag_126:\n        /* \"#utility.yul\":3859:3865   */\n      0x00\n        /* \"#utility.yul\":3886:3906   */\n      tag_208\n      tag_107\n      jump\t// in\n    tag_208:\n        /* \"#utility.yul\":3876:3906   */\n      swap1\n      pop\n        /* \"#utility.yul\":3915:3948   */\n      tag_209\n        /* \"#utility.yul\":3943:3947   */\n      dup3\n        /* \"#utility.yul\":3935:3941   */\n      dup3\n        /* \"#utility.yul\":3915:3948   */\n      tag_125\n      jump\t// in\n    tag_209:\n        /* \"#utility.yul\":3825:3954   */\n      swap2\n      swap1\n      pop\n      jump\t// out\n        /* \"#utility.yul\":3960:4268   */\n    tag_127:\n        /* \"#utility.yul\":4022:4026   */\n      0x00\n        /* \"#utility.yul\":4112:4130   */\n      0xffffffffffffffff\n        /* \"#utility.yul\":4104:4110   */\n      dup3\n        /* \"#utility.yul\":4101:4131   */\n      gt\n        /* \"#utility.yul\":4098:4154   */\n      iszero\n      tag_211\n      jumpi\n        /* \"#utility.yul\":4134:4152   */\n      tag_212\n      tag_124\n      jump\t// in\n    tag_212:\n        /* \"#utility.yul\":4098:4154   */\n    tag_211:\n        /* \"#utility.yul\":4172:4201   */\n      tag_213\n        /* \"#utility.yul\":4194:4200   */\n      dup3\n        /* \"#utility.yul\":4172:4201   */\n      tag_123\n      jump\t// in\n    tag_213:\n        /* \"#utility.yul\":4164:4201   */\n      swap1\n      pop\n        /* \"#utility.yul\":4256:4260   */\n      0x20\n        /* \"#utility.yul\":4250:4254   */\n      dup2\n        /* \"#utility.yul\":4246:4261   */\n      add\n        /* \"#utility.yul\":4238:4261   */\n      swap1\n      pop\n        /* \"#utility.yul\":3960:4268   */\n      swap2\n      swap1\n      pop\n      jump\t// out\n        /* \"#utility.yul\":4274:4420   */\n    tag_128:\n        /* \"#utility.yul\":4371:4377   */\n      dup3\n        /* \"#utility.yul\":4366:4369   */\n      dup2\n        /* \"#utility.yul\":4361:4364   */\n      dup4\n        /* \"#utility.yul\":4348:4378   */\n      calldatacopy\n        /* \"#utility.yul\":4412:4413   */\n      0x00\n        /* \"#utility.yul\":4403:4409   */\n      dup4\n        /* \"#utility.yul\":4398:4401   */\n      dup4\n        /* \"#utility.yul\":4394:4410   */\n      add\n        /* \"#utility.yul\":4387:4414   */\n      mstore\n        /* \"#utility.yul\":4274:4420   */\n      pop\n      pop\n      pop\n      jump\t// out\n        /* \"#utility.yul\":4426:4851   */\n    tag_129:\n        /* \"#utility.yul\":4504:4509   */\n      0x00\n        /* \"#utility.yul\":4529:4595   */\n      tag_216\n        /* \"#utility.yul\":4545:4594   */\n      tag_217\n        /* \"#utility.yul\":4587:4593   */\n      dup5\n        /* \"#utility.yul\":4545:4594   */\n      tag_127\n      jump\t// in\n    tag_217:\n        /* \"#utility.yul\":4529:4595   */\n      tag_126\n      jump\t// in\n    tag_216:\n        /* \"#utility.yul\":4520:4595   */\n      swap1\n      pop\n        /* \"#utility.yul\":4618:4624   */\n      dup3\n        /* \"#utility.yul\":4611:4616   */\n      dup2\n        /* \"#utility.yul\":4604:4625   */\n      mstore\n        /* \"#utility.yul\":4656:4660   */\n      0x20\n        /* \"#utility.yul\":4649:4654   */\n      dup2\n        /* \"#utility.yul\":4645:4661   */\n      add\n        /* \"#utility.yul\":4694:4697   */\n      dup5\n        /* \"#utility.yul\":4685:4691   */\n      dup5\n        /* \"#utility.yul\":4680:4683   */\n      dup5\n        /* \"#utility.yul\":4676:4692   */\n      add\n        /* \"#utility.yul\":4673:4698   */\n      gt\n        /* \"#utility.yul\":4670:4782   */\n      iszero\n      tag_218\n      jumpi\n        /* \"#utility.yul\":4701:4780   */\n      tag_219\n      tag_122\n      jump\t// in\n    tag_219:\n        /* \"#utility.yul\":4670:4782   */\n    tag_218:\n        /* \"#utility.yul\":4791:4845   */\n      tag_220\n        /* \"#utility.yul\":4838:4844   */\n      dup5\n        /* \"#utility.yul\":4833:4836   */\n      dup3\n        /* \"#utility.yul\":4828:4831   */\n      dup6\n        /* \"#utility.yul\":4791:4845   */\n      tag_128\n      jump\t// in\n    tag_220:\n        /* \"#utility.yul\":4510:4851   */\n      pop\n        /* \"#utility.yul\":4426:4851   */\n      swap4\n      swap3\n      pop\n      pop\n      pop\n      jump\t// out\n        /* \"#utility.yul\":4871:5211   */\n    tag_130:\n        /* \"#utility.yul\":4927:4932   */\n      0x00\n        /* \"#utility.yul\":4976:4979   */\n      dup3\n        /* \"#utility.yul\":4969:4973   */\n      0x1f\n        /* \"#utility.yul\":4961:4967   */\n      dup4\n        /* \"#utility.yul\":4957:4974   */\n      add\n        /* \"#utility.yul\":4953:4980   */\n      slt\n        /* \"#utility.yul\":4943:5065   */\n      tag_222\n      jumpi\n        /* \"#utility.yul\":4984:5063   */\n      tag_223\n      tag_121\n      jump\t// in\n    tag_223:\n        /* \"#utility.yul\":4943:5065   */\n    tag_222:\n        /* \"#utility.yul\":5101:5107   */\n      dup2\n        /* \"#utility.yul\":5088:5108   */\n      calldataload\n        /* \"#utility.yul\":5126:5205   */\n      tag_224\n        /* \"#utility.yul\":5201:5204   */\n      dup5\n        /* \"#utility.yul\":5193:5199   */\n      dup3\n        /* \"#utility.yul\":5186:5190   */\n      0x20\n        /* \"#utility.yul\":5178:5184   */\n      dup7\n        /* \"#utility.yul\":5174:5191   */\n      add\n        /* \"#utility.yul\":5126:5205   */\n      tag_129\n      jump\t// in\n    tag_224:\n        /* \"#utility.yul\":5117:5205   */\n      swap2\n      pop\n        /* \"#utility.yul\":4933:5211   */\n      pop\n        /* \"#utility.yul\":4871:5211   */\n      swap3\n      swap2\n      pop\n      pop\n      jump\t// out\n        /* \"#utility.yul\":5217:6016   */\n    tag_44:\n        /* \"#utility.yul\":5304:5310   */\n      0x00\n        /* \"#utility.yul\":5312:5318   */\n      dup1\n        /* \"#utility.yul\":5320:5326   */\n      0x00\n        /* \"#utility.yul\":5369:5371   */\n      0x60\n        /* \"#utility.yul\":5357:5366   */\n      dup5\n        /* \"#utility.yul\":5348:5355   */\n      dup7\n        /* \"#utility.yul\":5344:5367   */\n      sub\n        /* \"#utility.yul\":5340:5372   */\n      slt\n        /* \"#utility.yul\":5337:5456   */\n      iszero\n      tag_226\n      jumpi\n        /* \"#utility.yul\":5375:5454   */\n      tag_227\n      tag_108\n      jump\t// in\n    tag_227:\n        /* \"#utility.yul\":5337:5456   */\n    tag_226:\n        /* \"#utility.yul\":5523:5524   */\n      0x00\n        /* \"#utility.yul\":5512:5521   */\n      dup5\n        /* \"#utility.yul\":5508:5525   */\n      add\n        /* \"#utility.yul\":5495:5526   */\n      calldataload\n        /* \"#utility.yul\":5553:5571   */\n      0xffffffffffffffff\n        /* \"#utility.yul\":5545:5551   */\n      dup2\n        /* \"#utility.yul\":5542:5572   */\n      gt\n        /* \"#utility.yul\":5539:5656   */\n      iszero\n      tag_228\n      jumpi\n        /* \"#utility.yul\":5575:5654   */\n      tag_229\n      tag_109\n      jump\t// in\n    tag_229:\n        /* \"#utility.yul\":5539:5656   */\n    tag_228:\n        /* \"#utility.yul\":5680:5743   */\n      tag_230\n        /* \"#utility.yul\":5735:5742   */\n      dup7\n        /* \"#utility.yul\":5726:5732   */\n      dup3\n        /* \"#utility.yul\":5715:5724   */\n      dup8\n        /* \"#utility.yul\":5711:5733   */\n      add\n        /* \"#utility.yul\":5680:5743   */\n      tag_130\n      jump\t// in\n    tag_230:\n        /* \"#utility.yul\":5670:5743   */\n      swap4\n      pop\n        /* \"#utility.yul\":5466:5753   */\n      pop\n        /* \"#utility.yul\":5792:5794   */\n      0x20\n        /* \"#utility.yul\":5818:5871   */\n      tag_231\n        /* \"#utility.yul\":5863:5870   */\n      dup7\n        /* \"#utility.yul\":5854:5860   */\n      dup3\n        /* \"#utility.yul\":5843:5852   */\n      dup8\n        /* \"#utility.yul\":5839:5861   */\n      add\n        /* \"#utility.yul\":5818:5871   */\n      tag_112\n      jump\t// in\n    tag_231:\n        /* \"#utility.yul\":5808:5871   */\n      swap3\n      pop\n        /* \"#utility.yul\":5763:5881   */\n      pop\n        /* \"#utility.yul\":5920:5922   */\n      0x40\n        /* \"#utility.yul\":5946:5999   */\n      tag_232\n        /* \"#utility.yul\":5991:5998   */\n      dup7\n        /* \"#utility.yul\":5982:5988   */\n      dup3\n        /* \"#utility.yul\":5971:5980   */\n      dup8\n        /* \"#utility.yul\":5967:5989   */\n      add\n        /* \"#utility.yul\":5946:5999   */\n      tag_116\n      jump\t// in\n    tag_232:\n        /* \"#utility.yul\":5936:5999   */\n      swap2\n      pop\n        /* \"#utility.yul\":5891:6009   */\n      pop\n        /* \"#utility.yul\":5217:6016   */\n      swap3\n      pop\n      swap3\n      pop\n      swap3\n      jump\t// out\n        /* \"#utility.yul\":6022:6121   */\n    tag_131:\n        /* \"#utility.yul\":6074:6080   */\n      0x00\n        /* \"#utility.yul\":6108:6113   */\n      dup2\n        /* \"#utility.yul\":6102:6114   */\n      mload\n        /* \"#utility.yul\":6092:6114   */\n      swap1\n      pop\n        /* \"#utility.yul\":6022:6121   */\n      swap2\n      swap1\n      pop\n      jump\t// out\n        /* \"#utility.yul\":6127:6296   */\n    tag_132:\n        /* \"#utility.yul\":6211:6222   */\n      0x00\n        /* \"#utility.yul\":6245:6251   */\n      dup3\n        /* \"#utility.yul\":6240:6243   */\n      dup3\n        /* \"#utility.yul\":6233:6252   */\n      mstore\n        /* \"#utility.yul\":6285:6289   */\n      0x20\n        /* \"#utility.yul\":6280:6283   */\n      dup3\n        /* \"#utility.yul\":6276:6290   */\n      add\n        /* \"#utility.yul\":6261:6290   */\n      swap1\n      pop\n        /* \"#utility.yul\":6127:6296   */\n      swap3\n      swap2\n      pop\n      pop\n      jump\t// out\n        /* \"#utility.yul\":6302:6548   */\n    tag_133:\n        /* \"#utility.yul\":6383:6384   */\n      0x00\n        /* \"#utility.yul\":6393:6506   */\n    tag_236:\n        /* \"#utility.yul\":6407:6413   */\n      dup4\n        /* \"#utility.yul\":6404:6405   */\n      dup2\n        /* \"#utility.yul\":6401:6414   */\n      lt\n        /* \"#utility.yul\":6393:6506   */\n      iszero\n      tag_238\n      jumpi\n        /* \"#utility.yul\":6492:6493   */\n      dup1\n        /* \"#utility.yul\":6487:6490   */\n      dup3\n        /* \"#utility.yul\":6483:6494   */\n      add\n        /* \"#utility.yul\":6477:6495   */\n      mload\n        /* \"#utility.yul\":6473:6474   */\n      dup2\n        /* \"#utility.yul\":6468:6471   */\n      dup5\n        /* \"#utility.yul\":6464:6475   */\n      add\n        /* \"#utility.yul\":6457:6496   */\n      mstore\n        /* \"#utility.yul\":6429:6431   */\n      0x20\n        /* \"#utility.yul\":6426:6427   */\n      dup2\n        /* \"#utility.yul\":6422:6432   */\n      add\n        /* \"#utility.yul\":6417:6432   */\n      swap1\n      pop\n        /* \"#utility.yul\":6393:6506   */\n      jump(tag_236)\n    tag_238:\n        /* \"#utility.yul\":6540:6541   */\n      0x00\n        /* \"#utility.yul\":6531:6537   */\n      dup5\n        /* \"#utility.yul\":6526:6529   */\n      dup5\n        /* \"#utility.yul\":6522:6538   */\n      add\n        /* \"#utility.yul\":6515:6542   */\n      mstore\n        /* \"#utility.yul\":6364:6548   */\n      pop\n        /* \"#utility.yul\":6302:6548   */\n      pop\n      pop\n      pop\n      jump\t// out\n        /* \"#utility.yul\":6554:6931   */\n    tag_134:\n        /* \"#utility.yul\":6642:6645   */\n      0x00\n        /* \"#utility.yul\":6670:6709   */\n      tag_240\n        /* \"#utility.yul\":6703:6708   */\n      dup3\n        /* \"#utility.yul\":6670:6709   */\n      tag_131\n      jump\t// in\n    tag_240:\n        /* \"#utility.yul\":6725:6796   */\n      tag_241\n        /* \"#utility.yul\":6789:6795   */\n      dup2\n        /* \"#utility.yul\":6784:6787   */\n      dup6\n        /* \"#utility.yul\":6725:6796   */\n      tag_132\n      jump\t// in\n    tag_241:\n        /* \"#utility.yul\":6718:6796   */\n      swap4\n      pop\n        /* \"#utility.yul\":6805:6870   */\n      tag_242\n        /* \"#utility.yul\":6863:6869   */\n      dup2\n        /* \"#utility.yul\":6858:6861   */\n      dup6\n        /* \"#utility.yul\":6851:6855   */\n      0x20\n        /* \"#utility.yul\":6844:6849   */\n      dup7\n        /* \"#utility.yul\":6840:6856   */\n      add\n        /* \"#utility.yul\":6805:6870   */\n      tag_133\n      jump\t// in\n    tag_242:\n        /* \"#utility.yul\":6895:6924   */\n      tag_243\n        /* \"#utility.yul\":6917:6923   */\n      dup2\n        /* \"#utility.yul\":6895:6924   */\n      tag_123\n      jump\t// in\n    tag_243:\n        /* \"#utility.yul\":6890:6893   */\n      dup5\n        /* \"#utility.yul\":6886:6925   */\n      add\n        /* \"#utility.yul\":6879:6925   */\n      swap2\n      pop\n        /* \"#utility.yul\":6646:6931   */\n      pop\n        /* \"#utility.yul\":6554:6931   */\n      swap3\n      swap2\n      pop\n      pop\n      jump\t// out\n        /* \"#utility.yul\":6937:7680   */\n    tag_55:\n        /* \"#utility.yul\":7156:7160   */\n      0x00\n        /* \"#utility.yul\":7194:7197   */\n      0xa0\n        /* \"#utility.yul\":7183:7192   */\n      dup3\n        /* \"#utility.yul\":7179:7198   */\n      add\n        /* \"#utility.yul\":7171:7198   */\n      swap1\n      pop\n        /* \"#utility.yul\":7244:7253   */\n      dup2\n        /* \"#utility.yul\":7238:7242   */\n      dup2\n        /* \"#utility.yul\":7234:7254   */\n      sub\n        /* \"#utility.yul\":7230:7231   */\n      0x00\n        /* \"#utility.yul\":7219:7228   */\n      dup4\n        /* \"#utility.yul\":7215:7232   */\n      add\n        /* \"#utility.yul\":7208:7255   */\n      mstore\n        /* \"#utility.yul\":7272:7350   */\n      tag_245\n        /* \"#utility.yul\":7345:7349   */\n      dup2\n        /* \"#utility.yul\":7336:7342   */\n      dup9\n        /* \"#utility.yul\":7272:7350   */\n      tag_134\n      jump\t// in\n    tag_245:\n        /* \"#utility.yul\":7264:7350   */\n      swap1\n      pop\n        /* \"#utility.yul\":7360:7432   */\n      tag_246\n        /* \"#utility.yul\":7428:7430   */\n      0x20\n        /* \"#utility.yul\":7417:7426   */\n      dup4\n        /* \"#utility.yul\":7413:7431   */\n      add\n        /* \"#utility.yul\":7404:7410   */\n      dup8\n        /* \"#utility.yul\":7360:7432   */\n      tag_120\n      jump\t// in\n    tag_246:\n        /* \"#utility.yul\":7442:7514   */\n      tag_247\n        /* \"#utility.yul\":7510:7512   */\n      0x40\n        /* \"#utility.yul\":7499:7508   */\n      dup4\n        /* \"#utility.yul\":7495:7513   */\n      add\n        /* \"#utility.yul\":7486:7492   */\n      dup7\n        /* \"#utility.yul\":7442:7514   */\n      tag_119\n      jump\t// in\n    tag_247:\n        /* \"#utility.yul\":7524:7590   */\n      tag_248\n        /* \"#utility.yul\":7586:7588   */\n      0x60\n        /* \"#utility.yul\":7575:7584   */\n      dup4\n        /* \"#utility.yul\":7571:7589   */\n      add\n        /* \"#utility.yul\":7562:7568   */\n      dup6\n        /* \"#utility.yul\":7524:7590   */\n      tag_118\n      jump\t// in\n    tag_248:\n        /* \"#utility.yul\":7600:7673   */\n      tag_249\n        /* \"#utility.yul\":7668:7671   */\n      0x80\n        /* \"#utility.yul\":7657:7666   */\n      dup4\n        /* \"#utility.yul\":7653:7672   */\n      add\n        /* \"#utility.yul\":7644:7650   */\n      dup5\n        /* \"#utility.yul\":7600:7673   */\n      tag_120\n      jump\t// in\n    tag_249:\n        /* \"#utility.yul\":6937:7680   */\n      swap7\n      swap6\n      pop\n      pop\n      pop\n      pop\n      pop\n      pop\n      jump\t// out\n        /* \"#utility.yul\":7686:7909   */\n    tag_135:\n        /* \"#utility.yul\":7826:7860   */\n      0x4f6e6c79206d616e616765722063616e2063616c6c20746869732066756e6374\n        /* \"#utility.yul\":7822:7823   */\n      0x00\n        /* \"#utility.yul\":7814:7820   */\n      dup3\n        /* \"#utility.yul\":7810:7824   */\n      add\n        /* \"#utility.yul\":7803:7861   */\n      mstore\n        /* \"#utility.yul\":7895:7901   */\n      0x696f6e2e00000000000000000000000000000000000000000000000000000000\n        /* \"#utility.yul\":7890:7892   */\n      0x20\n        /* \"#utility.yul\":7882:7888   */\n      dup3\n        /* \"#utility.yul\":7878:7893   */\n      add\n        /* \"#utility.yul\":7871:7902   */\n      mstore\n        /* \"#utility.yul\":7686:7909   */\n      pop\n      jump\t// out\n        /* \"#utility.yul\":7915:8281   */\n    tag_136:\n        /* \"#utility.yul\":8057:8060   */\n      0x00\n        /* \"#utility.yul\":8078:8145   */\n      tag_252\n        /* \"#utility.yul\":8142:8144   */\n      0x24\n        /* \"#utility.yul\":8137:8140   */\n      dup4\n        /* \"#utility.yul\":8078:8145   */\n      tag_132\n      jump\t// in\n    tag_252:\n        /* \"#utility.yul\":8071:8145   */\n      swap2\n      pop\n        /* \"#utility.yul\":8154:8247   */\n      tag_253\n        /* \"#utility.yul\":8243:8246   */\n      dup3\n        /* \"#utility.yul\":8154:8247   */\n      tag_135\n      jump\t// in\n    tag_253:\n        /* \"#utility.yul\":8272:8274   */\n      0x40\n        /* \"#utility.yul\":8267:8270   */\n      dup3\n        /* \"#utility.yul\":8263:8275   */\n      add\n        /* \"#utility.yul\":8256:8275   */\n      swap1\n      pop\n        /* \"#utility.yul\":7915:8281   */\n      swap2\n      swap1\n      pop\n      jump\t// out\n        /* \"#utility.yul\":8287:8706   */\n    tag_69:\n        /* \"#utility.yul\":8453:8457   */\n      0x00\n        /* \"#utility.yul\":8491:8493   */\n      0x20\n        /* \"#utility.yul\":8480:8489   */\n      dup3\n        /* \"#utility.yul\":8476:8494   */\n      add\n        /* \"#utility.yul\":8468:8494   */\n      swap1\n      pop\n        /* \"#utility.yul\":8540:8549   */\n      dup2\n        /* \"#utility.yul\":8534:8538   */\n      dup2\n        /* \"#utility.yul\":8530:8550   */\n      sub\n        /* \"#utility.yul\":8526:8527   */\n      0x00\n        /* \"#utility.yul\":8515:8524   */\n      dup4\n        /* \"#utility.yul\":8511:8528   */\n      add\n        /* \"#utility.yul\":8504:8551   */\n      mstore\n        /* \"#utility.yul\":8568:8699   */\n      tag_255\n        /* \"#utility.yul\":8694:8698   */\n      dup2\n        /* \"#utility.yul\":8568:8699   */\n      tag_136\n      jump\t// in\n    tag_255:\n        /* \"#utility.yul\":8560:8699   */\n      swap1\n      pop\n        /* \"#utility.yul\":8287:8706   */\n      swap2\n      swap1\n      pop\n      jump\t// out\n        /* \"#utility.yul\":8712:8892   */\n    tag_137:\n        /* \"#utility.yul\":8760:8837   */\n      0x4e487b7100000000000000000000000000000000000000000000000000000000\n        /* \"#utility.yul\":8757:8758   */\n      0x00\n        /* \"#utility.yul\":8750:8838   */\n      mstore\n        /* \"#utility.yul\":8857:8861   */\n      0x12\n        /* \"#utility.yul\":8854:8855   */\n      0x04\n        /* \"#utility.yul\":8847:8862   */\n      mstore\n        /* \"#utility.yul\":8881:8885   */\n      0x24\n        /* \"#utility.yul\":8878:8879   */\n      0x00\n        /* \"#utility.yul\":8871:8886   */\n      revert\n        /* \"#utility.yul\":8898:9078   */\n    tag_138:\n        /* \"#utility.yul\":8946:9023   */\n      0x4e487b7100000000000000000000000000000000000000000000000000000000\n        /* \"#utility.yul\":8943:8944   */\n      0x00\n        /* \"#utility.yul\":8936:9024   */\n      mstore\n        /* \"#utility.yul\":9043:9047   */\n      0x11\n        /* \"#utility.yul\":9040:9041   */\n      0x04\n        /* \"#utility.yul\":9033:9048   */\n      mstore\n        /* \"#utility.yul\":9067:9071   */\n      0x24\n        /* \"#utility.yul\":9064:9065   */\n      0x00\n        /* \"#utility.yul\":9057:9072   */\n      revert\n        /* \"#utility.yul\":9084:9269   */\n    tag_73:\n        /* \"#utility.yul\":9124:9125   */\n      0x00\n        /* \"#utility.yul\":9141:9161   */\n      tag_259\n        /* \"#utility.yul\":9159:9160   */\n      dup3\n        /* \"#utility.yul\":9141:9161   */\n      tag_110\n      jump\t// in\n    tag_259:\n        /* \"#utility.yul\":9136:9161   */\n      swap2\n      pop\n        /* \"#utility.yul\":9175:9195   */\n      tag_260\n        /* \"#utility.yul\":9193:9194   */\n      dup4\n        /* \"#utility.yul\":9175:9195   */\n      tag_110\n      jump\t// in\n    tag_260:\n        /* \"#utility.yul\":9170:9195   */\n      swap3\n      pop\n        /* \"#utility.yul\":9214:9215   */\n      dup3\n        /* \"#utility.yul\":9204:9239   */\n      tag_261\n      jumpi\n        /* \"#utility.yul\":9219:9237   */\n      tag_262\n      tag_137\n      jump\t// in\n    tag_262:\n        /* \"#utility.yul\":9204:9239   */\n    tag_261:\n        /* \"#utility.yul\":9261:9262   */\n      dup3\n        /* \"#utility.yul\":9258:9259   */\n      dup3\n        /* \"#utility.yul\":9254:9263   */\n      div\n        /* \"#utility.yul\":9249:9263   */\n      swap1\n      pop\n        /* \"#utility.yul\":9084:9269   */\n      swap3\n      swap2\n      pop\n      pop\n      jump\t// out\n        /* \"#utility.yul\":9275:9422   */\n    tag_139:\n        /* \"#utility.yul\":9376:9387   */\n      0x00\n        /* \"#utility.yul\":9413:9416   */\n      dup2\n        /* \"#utility.yul\":9398:9416   */\n      swap1\n      pop\n        /* \"#utility.yul\":9275:9422   */\n      swap3\n      swap2\n      pop\n      pop\n      jump\t// out\n        /* \"#utility.yul\":9428:9542   */\n    tag_140:\n      pop\n      jump\t// out\n        /* \"#utility.yul\":9548:9946   */\n    tag_141:\n        /* \"#utility.yul\":9707:9710   */\n      0x00\n        /* \"#utility.yul\":9728:9811   */\n      tag_266\n        /* \"#utility.yul\":9809:9810   */\n      0x00\n        /* \"#utility.yul\":9804:9807   */\n      dup4\n        /* \"#utility.yul\":9728:9811   */\n      tag_139\n      jump\t// in\n    tag_266:\n        /* \"#utility.yul\":9721:9811   */\n      swap2\n      pop\n        /* \"#utility.yul\":9820:9913   */\n      tag_267\n        /* \"#utility.yul\":9909:9912   */\n      dup3\n        /* \"#utility.yul\":9820:9913   */\n      tag_140\n      jump\t// in\n    tag_267:\n        /* \"#utility.yul\":9938:9939   */\n      0x00\n        /* \"#utility.yul\":9933:9936   */\n      dup3\n        /* \"#utility.yul\":9929:9940   */\n      add\n        /* \"#utility.yul\":9922:9940   */\n      swap1\n      pop\n        /* \"#utility.yul\":9548:9946   */\n      swap2\n      swap1\n      pop\n      jump\t// out\n        /* \"#utility.yul\":9952:10331   */\n    tag_76:\n        /* \"#utility.yul\":10136:10139   */\n      0x00\n        /* \"#utility.yul\":10158:10305   */\n      tag_269\n        /* \"#utility.yul\":10301:10304   */\n      dup3\n        /* \"#utility.yul\":10158:10305   */\n      tag_141\n      jump\t// in\n    tag_269:\n        /* \"#utility.yul\":10151:10305   */\n      swap2\n      pop\n        /* \"#utility.yul\":10322:10325   */\n      dup2\n        /* \"#utility.yul\":10315:10325   */\n      swap1\n      pop\n        /* \"#utility.yul\":9952:10331   */\n      swap2\n      swap1\n      pop\n      jump\t// out\n        /* \"#utility.yul\":10337:10499   */\n    tag_142:\n        /* \"#utility.yul\":10477:10491   */\n      0x43616c6c206661696c65642e0000000000000000000000000000000000000000\n        /* \"#utility.yul\":10473:10474   */\n      0x00\n        /* \"#utility.yul\":10465:10471   */\n      dup3\n        /* \"#utility.yul\":10461:10475   */\n      add\n        /* \"#utility.yul\":10454:10492   */\n      mstore\n        /* \"#utility.yul\":10337:10499   */\n      pop\n      jump\t// out\n        /* \"#utility.yul\":10505:10871   */\n    tag_143:\n        /* \"#utility.yul\":10647:10650   */\n      0x00\n        /* \"#utility.yul\":10668:10735   */\n      tag_272\n        /* \"#utility.yul\":10732:10734   */\n      0x0c\n        /* \"#utility.yul\":10727:10730   */\n      dup4\n        /* \"#utility.yul\":10668:10735   */\n      tag_132\n      jump\t// in\n    tag_272:\n        /* \"#utility.yul\":10661:10735   */\n      swap2\n      pop\n        /* \"#utility.yul\":10744:10837   */\n      tag_273\n        /* \"#utility.yul\":10833:10836   */\n      dup3\n        /* \"#utility.yul\":10744:10837   */\n      tag_142\n      jump\t// in\n    tag_273:\n        /* \"#utility.yul\":10862:10864   */\n      0x20\n        /* \"#utility.yul\":10857:10860   */\n      dup3\n        /* \"#utility.yul\":10853:10865   */\n      add\n        /* \"#utility.yul\":10846:10865   */\n      swap1\n      pop\n        /* \"#utility.yul\":10505:10871   */\n      swap2\n      swap1\n      pop\n      jump\t// out\n        /* \"#utility.yul\":10877:11296   */\n    tag_82:\n        /* \"#utility.yul\":11043:11047   */\n      0x00\n        /* \"#utility.yul\":11081:11083   */\n      0x20\n        /* \"#utility.yul\":11070:11079   */\n      dup3\n        /* \"#utility.yul\":11066:11084   */\n      add\n        /* \"#utility.yul\":11058:11084   */\n      swap1\n      pop\n        /* \"#utility.yul\":11130:11139   */\n      dup2\n        /* \"#utility.yul\":11124:11128   */\n      dup2\n        /* \"#utility.yul\":11120:11140   */\n      sub\n        /* \"#utility.yul\":11116:11117   */\n      0x00\n        /* \"#utility.yul\":11105:11114   */\n      dup4\n        /* \"#utility.yul\":11101:11118   */\n      add\n        /* \"#utility.yul\":11094:11141   */\n      mstore\n        /* \"#utility.yul\":11158:11289   */\n      tag_275\n        /* \"#utility.yul\":11284:11288   */\n      dup2\n        /* \"#utility.yul\":11158:11289   */\n      tag_143\n      jump\t// in\n    tag_275:\n        /* \"#utility.yul\":11150:11289   */\n      swap1\n      pop\n        /* \"#utility.yul\":10877:11296   */\n      swap2\n      swap1\n      pop\n      jump\t// out\n        /* \"#utility.yul\":11302:11535   */\n    tag_89:\n        /* \"#utility.yul\":11341:11344   */\n      0x00\n        /* \"#utility.yul\":11364:11388   */\n      tag_277\n        /* \"#utility.yul\":11382:11387   */\n      dup3\n        /* \"#utility.yul\":11364:11388   */\n      tag_110\n      jump\t// in\n    tag_277:\n        /* \"#utility.yul\":11355:11388   */\n      swap2\n      pop\n        /* \"#utility.yul\":11410:11476   */\n      0xffffffffffffffffffffffffffffffffffffffffffffffffffffffffffffffff\n        /* \"#utility.yul\":11403:11408   */\n      dup3\n        /* \"#utility.yul\":11400:11477   */\n      sub\n        /* \"#utility.yul\":11397:11500   */\n      tag_278\n      jumpi\n        /* \"#utility.yul\":11480:11498   */\n      tag_279\n      tag_138\n      jump\t// in\n    tag_279:\n        /* \"#utility.yul\":11397:11500   */\n    tag_278:\n        /* \"#utility.yul\":11527:11528   */\n      0x01\n        /* \"#utility.yul\":11520:11525   */\n      dup3\n        /* \"#utility.yul\":11516:11529   */\n      add\n        /* \"#utility.yul\":11509:11529   */\n      swap1\n      pop\n        /* \"#utility.yul\":11302:11535   */\n      swap2\n      swap1\n      pop\n      jump\t// out\n        /* \"#utility.yul\":11541:11721   */\n    tag_144:\n        /* \"#utility.yul\":11589:11666   */\n      0x4e487b7100000000000000000000000000000000000000000000000000000000\n        /* \"#utility.yul\":11586:11587   */\n      0x00\n        /* \"#utility.yul\":11579:11667   */\n      mstore\n        /* \"#utility.yul\":11686:11690   */\n      0x22\n        /* \"#utility.yul\":11683:11684   */\n      0x04\n        /* \"#utility.yul\":11676:11691   */\n      mstore\n        /* \"#utility.yul\":11710:11714   */\n      0x24\n        /* \"#utility.yul\":11707:11708   */\n      0x00\n        /* \"#utility.yul\":11700:11715   */\n      revert\n        /* \"#utility.yul\":11727:12047   */\n    tag_94:\n        /* \"#utility.yul\":11771:11777   */\n      0x00\n        /* \"#utility.yul\":11808:11809   */\n      0x02\n        /* \"#utility.yul\":11802:11806   */\n      dup3\n        /* \"#utility.yul\":11798:11810   */\n      div\n        /* \"#utility.yul\":11788:11810   */\n      swap1\n      pop\n        /* \"#utility.yul\":11855:11856   */\n      0x01\n        /* \"#utility.yul\":11849:11853   */\n      dup3\n        /* \"#utility.yul\":11845:11857   */\n      and\n        /* \"#utility.yul\":11876:11894   */\n      dup1\n        /* \"#utility.yul\":11866:11947   */\n      tag_282\n      jumpi\n        /* \"#utility.yul\":11932:11936   */\n      0x7f\n        /* \"#utility.yul\":11924:11930   */\n      dup3\n        /* \"#utility.yul\":11920:11937   */\n      and\n        /* \"#utility.yul\":11910:11937   */\n      swap2\n      pop\n        /* \"#utility.yul\":11866:11947   */\n    tag_282:\n        /* \"#utility.yul\":11994:11996   */\n      0x20\n        /* \"#utility.yul\":11986:11992   */\n      dup3\n        /* \"#utility.yul\":11983:11997   */\n      lt\n        /* \"#utility.yul\":11963:11981   */\n      dup2\n        /* \"#utility.yul\":11960:11998   */\n      sub\n        /* \"#utility.yul\":11957:12041   */\n      tag_283\n      jumpi\n        /* \"#utility.yul\":12013:12031   */\n      tag_284\n      tag_144\n      jump\t// in\n    tag_284:\n        /* \"#utility.yul\":11957:12041   */\n    tag_283:\n        /* \"#utility.yul\":11778:12047   */\n      pop\n        /* \"#utility.yul\":11727:12047   */\n      swap2\n      swap1\n      pop\n      jump\t// out\n        /* \"#utility.yul\":12053:12194   */\n    tag_145:\n        /* \"#utility.yul\":12102:12106   */\n      0x00\n        /* \"#utility.yul\":12125:12128   */\n      dup2\n        /* \"#utility.yul\":12117:12128   */\n      swap1\n      pop\n        /* \"#utility.yul\":12148:12151   */\n      dup2\n        /* \"#utility.yul\":12145:12146   */\n      0x00\n        /* \"#utility.yul\":12138:12152   */\n      mstore\n        /* \"#utility.yul\":12182:12186   */\n      0x20\n        /* \"#utility.yul\":12179:12180   */\n      0x00\n        /* \"#utility.yul\":12169:12187   */\n      keccak256\n        /* \"#utility.yul\":12161:12187   */\n      swap1\n      pop\n        /* \"#utility.yul\":12053:12194   */\n      swap2\n      swap1\n      pop\n      jump\t// out\n        /* \"#utility.yul\":12200:12293   */\n    tag_146:\n        /* \"#utility.yul\":12237:12243   */\n      0x00\n        /* \"#utility.yul\":12284:12286   */\n      0x20\n        /* \"#utility.yul\":12279:12281   */\n      0x1f\n        /* \"#utility.yul\":12272:12277   */\n      dup4\n        /* \"#utility.yul\":12268:12282   */\n      add\n        /* \"#utility.yul\":12264:12287   */\n      div\n        /* \"#utility.yul\":12254:12287   */\n      swap1\n      pop\n        /* \"#utility.yul\":12200:12293   */\n      swap2\n      swap1\n      pop\n      jump\t// out\n        /* \"#utility.yul\":12299:12406   */\n    tag_147:\n        /* \"#utility.yul\":12343:12351   */\n      0x00\n        /* \"#utility.yul\":12393:12398   */\n      dup3\n        /* \"#utility.yul\":12387:12391   */\n      dup3\n        /* \"#utility.yul\":12383:12399   */\n      shl\n        /* \"#utility.yul\":12362:12399   */\n      swap1\n      pop\n        /* \"#utility.yul\":12299:12406   */\n      swap3\n      swap2\n      pop\n      pop\n      jump\t// out\n        /* \"#utility.yul\":12412:12805   */\n    tag_148:\n        /* \"#utility.yul\":12481:12487   */\n      0x00\n        /* \"#utility.yul\":12531:12532   */\n      0x08\n        /* \"#utility.yul\":12519:12529   */\n      dup4\n        /* \"#utility.yul\":12515:12533   */\n      mul\n        /* \"#utility.yul\":12554:12651   */\n      tag_289\n        /* \"#utility.yul\":12584:12650   */\n      0xffffffffffffffffffffffffffffffffffffffffffffffffffffffffffffffff\n        /* \"#utility.yul\":12573:12582   */\n      dup3\n        /* \"#utility.yul\":12554:12651   */\n      tag_147\n      jump\t// in\n    tag_289:\n        /* \"#utility.yul\":12672:12711   */\n      tag_290\n        /* \"#utility.yul\":12702:12710   */\n      dup7\n        /* \"#utility.yul\":12691:12700   */\n      dup4\n        /* \"#utility.yul\":12672:12711   */\n      tag_147\n      jump\t// in\n    tag_290:\n        /* \"#utility.yul\":12660:12711   */\n      swap6\n      pop\n        /* \"#utility.yul\":12744:12748   */\n      dup1\n        /* \"#utility.yul\":12740:12749   */\n      not\n        /* \"#utility.yul\":12733:12738   */\n      dup5\n        /* \"#utility.yul\":12729:12750   */\n      and\n        /* \"#utility.yul\":12720:12750   */\n      swap4\n      pop\n        /* \"#utility.yul\":12793:12797   */\n      dup1\n        /* \"#utility.yul\":12783:12791   */\n      dup7\n        /* \"#utility.yul\":12779:12798   */\n      and\n        /* \"#utility.yul\":12772:12777   */\n      dup5\n        /* \"#utility.yul\":12769:12799   */\n      or\n        /* \"#utility.yul\":12759:12799   */\n      swap3\n      pop\n        /* \"#utility.yul\":12488:12805   */\n      pop\n      pop\n        /* \"#utility.yul\":12412:12805   */\n      swap4\n      swap3\n      pop\n      pop\n      pop\n      jump\t// out\n        /* \"#utility.yul\":12811:12871   */\n    tag_149:\n        /* \"#utility.yul\":12839:12842   */\n      0x00\n        /* \"#utility.yul\":12860:12865   */\n      dup2\n        /* \"#utility.yul\":12853:12865   */\n      swap1\n      pop\n        /* \"#utility.yul\":12811:12871   */\n      swap2\n      swap1\n      pop\n      jump\t// out\n        /* \"#utility.yul\":12877:13019   */\n    tag_150:\n        /* \"#utility.yul\":12927:12936   */\n      0x00\n        /* \"#utility.yul\":12960:13013   */\n      tag_293\n        /* \"#utility.yul\":12978:13012   */\n      tag_294\n        /* \"#utility.yul\":12987:13011   */\n      tag_295\n        /* \"#utility.yul\":13005:13010   */\n      dup5\n        /* \"#utility.yul\":12987:13011   */\n      tag_110\n      jump\t// in\n    tag_295:\n        /* \"#utility.yul\":12978:13012   */\n      tag_149\n      jump\t// in\n    tag_294:\n        /* \"#utility.yul\":12960:13013   */\n      tag_110\n      jump\t// in\n    tag_293:\n        /* \"#utility.yul\":12947:13013   */\n      swap1\n      pop\n        /* \"#utility.yul\":12877:13019   */\n      swap2\n      swap1\n      pop\n      jump\t// out\n        /* \"#utility.yul\":13025:13100   */\n    tag_151:\n        /* \"#utility.yul\":13068:13071   */\n      0x00\n        /* \"#utility.yul\":13089:13094   */\n      dup2\n        /* \"#utility.yul\":13082:13094   */\n      swap1\n      pop\n        /* \"#utility.yul\":13025:13100   */\n      swap2\n      swap1\n      pop\n      jump\t// out\n        /* \"#utility.yul\":13106:13375   */\n    tag_152:\n        /* \"#utility.yul\":13216:13255   */\n      tag_298\n        /* \"#utility.yul\":13247:13254   */\n      dup4\n        /* \"#utility.yul\":13216:13255   */\n      tag_150\n      jump\t// in\n    tag_298:\n        /* \"#utility.yul\":13277:13368   */\n      tag_299\n        /* \"#utility.yul\":13326:13367   */\n      tag_300\n        /* \"#utility.yul\":13350:13366   */\n      dup3\n        /* \"#utility.yul\":13326:13367   */\n      tag_151\n      jump\t// in\n    tag_300:\n        /* \"#utility.yul\":13318:13324   */\n      dup5\n        /* \"#utility.yul\":13311:13315   */\n      dup5\n        /* \"#utility.yul\":13305:13316   */\n      sload\n        /* \"#utility.yul\":13277:13368   */\n      tag_148\n      jump\t// in\n    tag_299:\n        /* \"#utility.yul\":13271:13275   */\n      dup3\n        /* \"#utility.yul\":13264:13369   */\n      sstore\n        /* \"#utility.yul\":13182:13375   */\n      pop\n        /* \"#utility.yul\":13106:13375   */\n      pop\n      pop\n      pop\n      jump\t// out\n        /* \"#utility.yul\":13381:13454   */\n    tag_153:\n        /* \"#utility.yul\":13426:13429   */\n      0x00\n        /* \"#utility.yul\":13381:13454   */\n      swap1\n      jump\t// out\n        /* \"#utility.yul\":13460:13649   */\n    tag_154:\n        /* \"#utility.yul\":13537:13569   */\n      tag_303\n      tag_153\n      jump\t// in\n    tag_303:\n        /* \"#utility.yul\":13578:13643   */\n      tag_304\n        /* \"#utility.yul\":13636:13642   */\n      dup2\n        /* \"#utility.yul\":13628:13634   */\n      dup5\n        /* \"#utility.yul\":13622:13626   */\n      dup5\n        /* \"#utility.yul\":13578:13643   */\n      tag_152\n      jump\t// in\n    tag_304:\n        /* \"#utility.yul\":13513:13649   */\n      pop\n        /* \"#utility.yul\":13460:13649   */\n      pop\n      pop\n      jump\t// out\n        /* \"#utility.yul\":13655:13841   */\n    tag_155:\n        /* \"#utility.yul\":13715:13835   */\n    tag_306:\n        /* \"#utility.yul\":13732:13735   */\n      dup2\n        /* \"#utility.yul\":13725:13730   */\n      dup2\n        /* \"#utility.yul\":13722:13736   */\n      lt\n        /* \"#utility.yul\":13715:13835   */\n      iszero\n      tag_308\n      jumpi\n        /* \"#utility.yul\":13786:13825   */\n      tag_309\n        /* \"#utility.yul\":13823:13824   */\n      0x00\n        /* \"#utility.yul\":13816:13821   */\n      dup3\n        /* \"#utility.yul\":13786:13825   */\n      tag_154\n      jump\t// in\n    tag_309:\n        /* \"#utility.yul\":13759:13760   */\n      0x01\n        /* \"#utility.yul\":13752:13757   */\n      dup2\n        /* \"#utility.yul\":13748:13761   */\n      add\n        /* \"#utility.yul\":13739:13761   */\n      swap1\n      pop\n        /* \"#utility.yul\":13715:13835   */\n      jump(tag_306)\n    tag_308:\n        /* \"#utility.yul\":13655:13841   */\n      pop\n      pop\n      jump\t// out\n        /* \"#utility.yul\":13847:14390   */\n    tag_156:\n        /* \"#utility.yul\":13948:13950   */\n      0x1f\n        /* \"#utility.yul\":13943:13946   */\n      dup3\n        /* \"#utility.yul\":13940:13951   */\n      gt\n        /* \"#utility.yul\":13937:14383   */\n      iszero\n      tag_311\n      jumpi\n        /* \"#utility.yul\":13982:14020   */\n      tag_312\n        /* \"#utility.yul\":14014:14019   */\n      dup2\n        /* \"#utility.yul\":13982:14020   */\n      tag_145\n      jump\t// in\n    tag_312:\n        /* \"#utility.yul\":14066:14095   */\n      tag_313\n        /* \"#utility.yul\":14084:14094   */\n      dup5\n        /* \"#utility.yul\":14066:14095   */\n      tag_146\n      jump\t// in\n    tag_313:\n        /* \"#utility.yul\":14056:14064   */\n      dup2\n        /* \"#utility.yul\":14052:14096   */\n      add\n        /* \"#utility.yul\":14249:14251   */\n      0x20\n        /* \"#utility.yul\":14237:14247   */\n      dup6\n        /* \"#utility.yul\":14234:14252   */\n      lt\n        /* \"#utility.yul\":14231:14280   */\n      iszero\n      tag_314\n      jumpi\n        /* \"#utility.yul\":14270:14278   */\n      dup2\n        /* \"#utility.yul\":14255:14278   */\n      swap1\n      pop\n        /* \"#utility.yul\":14231:14280   */\n    tag_314:\n        /* \"#utility.yul\":14293:14373   */\n      tag_315\n        /* \"#utility.yul\":14349:14371   */\n      tag_316\n        /* \"#utility.yul\":14367:14370   */\n      dup6\n        /* \"#utility.yul\":14349:14371   */\n      tag_146\n      jump\t// in\n    tag_316:\n        /* \"#utility.yul\":14339:14347   */\n      dup4\n        /* \"#utility.yul\":14335:14372   */\n      add\n        /* \"#utility.yul\":14322:14333   */\n      dup3\n        /* \"#utility.yul\":14293:14373   */\n      tag_155\n      jump\t// in\n    tag_315:\n        /* \"#utility.yul\":13952:14383   */\n      pop\n      pop\n        /* \"#utility.yul\":13937:14383   */\n    tag_311:\n        /* \"#utility.yul\":13847:14390   */\n      pop\n      pop\n      pop\n      jump\t// out\n        /* \"#utility.yul\":14396:14513   */\n    tag_157:\n        /* \"#utility.yul\":14450:14458   */\n      0x00\n        /* \"#utility.yul\":14500:14505   */\n      dup3\n        /* \"#utility.yul\":14494:14498   */\n      dup3\n        /* \"#utility.yul\":14490:14506   */\n      shr\n        /* \"#utility.yul\":14469:14506   */\n      swap1\n      pop\n        /* \"#utility.yul\":14396:14513   */\n      swap3\n      swap2\n      pop\n      pop\n      jump\t// out\n        /* \"#utility.yul\":14519:14688   */\n    tag_158:\n        /* \"#utility.yul\":14563:14569   */\n      0x00\n        /* \"#utility.yul\":14596:14647   */\n      tag_319\n        /* \"#utility.yul\":14644:14645   */\n      0x00\n        /* \"#utility.yul\":14640:14646   */\n      not\n        /* \"#utility.yul\":14632:14637   */\n      dup5\n        /* \"#utility.yul\":14629:14630   */\n      0x08\n        /* \"#utility.yul\":14625:14638   */\n      mul\n        /* \"#utility.yul\":14596:14647   */\n      tag_157\n      jump\t// in\n    tag_319:\n        /* \"#utility.yul\":14592:14648   */\n      not\n        /* \"#utility.yul\":14677:14681   */\n      dup1\n        /* \"#utility.yul\":14671:14675   */\n      dup4\n        /* \"#utility.yul\":14667:14682   */\n      and\n        /* \"#utility.yul\":14657:14682   */\n      swap2\n      pop\n        /* \"#utility.yul\":14570:14688   */\n      pop\n        /* \"#utility.yul\":14519:14688   */\n      swap3\n      swap2\n      pop\n      pop\n      jump\t// out\n        /* \"#utility.yul\":14693:14988   */\n    tag_159:\n        /* \"#utility.yul\":14769:14773   */\n      0x00\n        /* \"#utility.yul\":14915:14944   */\n      tag_321\n        /* \"#utility.yul\":14940:14943   */\n      dup4\n        /* \"#utility.yul\":14934:14938   */\n      dup4\n        /* \"#utility.yul\":14915:14944   */\n      tag_158\n      jump\t// in\n    tag_321:\n        /* \"#utility.yul\":14907:14944   */\n      swap2\n      pop\n        /* \"#utility.yul\":14977:14980   */\n      dup3\n        /* \"#utility.yul\":14974:14975   */\n      0x02\n        /* \"#utility.yul\":14970:14981   */\n      mul\n        /* \"#utility.yul\":14964:14968   */\n      dup3\n        /* \"#utility.yul\":14961:14982   */\n      or\n        /* \"#utility.yul\":14953:14982   */\n      swap1\n      pop\n        /* \"#utility.yul\":14693:14988   */\n      swap3\n      swap2\n      pop\n      pop\n      jump\t// out\n        /* \"#utility.yul\":14993:16388   */\n    tag_91:\n        /* \"#utility.yul\":15110:15147   */\n      tag_323\n        /* \"#utility.yul\":15143:15146   */\n      dup3\n        /* \"#utility.yul\":15110:15147   */\n      tag_131\n      jump\t// in\n    tag_323:\n        /* \"#utility.yul\":15212:15230   */\n      0xffffffffffffffff\n        /* \"#utility.yul\":15204:15210   */\n      dup2\n        /* \"#utility.yul\":15201:15231   */\n      gt\n        /* \"#utility.yul\":15198:15254   */\n      iszero\n      tag_324\n      jumpi\n        /* \"#utility.yul\":15234:15252   */\n      tag_325\n      tag_124\n      jump\t// in\n    tag_325:\n        /* \"#utility.yul\":15198:15254   */\n    tag_324:\n        /* \"#utility.yul\":15278:15316   */\n      tag_326\n        /* \"#utility.yul\":15310:15314   */\n      dup3\n        /* \"#utility.yul\":15304:15315   */\n      sload\n        /* \"#utility.yul\":15278:15316   */\n      tag_94\n      jump\t// in\n    tag_326:\n        /* \"#utility.yul\":15363:15430   */\n      tag_327\n        /* \"#utility.yul\":15423:15429   */\n      dup3\n        /* \"#utility.yul\":15415:15421   */\n      dup3\n        /* \"#utility.yul\":15409:15413   */\n      dup6\n        /* \"#utility.yul\":15363:15430   */\n      tag_156\n      jump\t// in\n    tag_327:\n        /* \"#utility.yul\":15457:15458   */\n      0x00\n        /* \"#utility.yul\":15481:15485   */\n      0x20\n        /* \"#utility.yul\":15468:15485   */\n      swap1\n      pop\n        /* \"#utility.yul\":15513:15515   */\n      0x1f\n        /* \"#utility.yul\":15505:15511   */\n      dup4\n        /* \"#utility.yul\":15502:15516   */\n      gt\n        /* \"#utility.yul\":15530:15531   */\n      0x01\n        /* \"#utility.yul\":15525:16143   */\n      dup2\n      eq\n      tag_329\n      jumpi\n        /* \"#utility.yul\":16187:16188   */\n      0x00\n        /* \"#utility.yul\":16204:16210   */\n      dup5\n        /* \"#utility.yul\":16201:16278   */\n      iszero\n      tag_330\n      jumpi\n        /* \"#utility.yul\":16253:16262   */\n      dup3\n        /* \"#utility.yul\":16248:16251   */\n      dup8\n        /* \"#utility.yul\":16244:16263   */\n      add\n        /* \"#utility.yul\":16238:16264   */\n      mload\n        /* \"#utility.yul\":16229:16264   */\n      swap1\n      pop\n        /* \"#utility.yul\":16201:16278   */\n    tag_330:\n        /* \"#utility.yul\":16304:16371   */\n      tag_331\n        /* \"#utility.yul\":16364:16370   */\n      dup6\n        /* \"#utility.yul\":16357:16362   */\n      dup3\n        /* \"#utility.yul\":16304:16371   */\n      tag_159\n      jump\t// in\n    tag_331:\n        /* \"#utility.yul\":16298:16302   */\n      dup7\n        /* \"#utility.yul\":16291:16372   */\n      sstore\n        /* \"#utility.yul\":16160:16382   */\n      pop\n        /* \"#utility.yul\":15495:16382   */\n      jump(tag_328)\n        /* \"#utility.yul\":15525:16143   */\n    tag_329:\n        /* \"#utility.yul\":15577:15581   */\n      0x1f\n        /* \"#utility.yul\":15573:15582   */\n      not\n        /* \"#utility.yul\":15565:15571   */\n      dup5\n        /* \"#utility.yul\":15561:15583   */\n      and\n        /* \"#utility.yul\":15611:15648   */\n      tag_332\n        /* \"#utility.yul\":15643:15647   */\n      dup7\n        /* \"#utility.yul\":15611:15648   */\n      tag_145\n      jump\t// in\n    tag_332:\n        /* \"#utility.yul\":15670:15671   */\n      0x00\n        /* \"#utility.yul\":15684:15892   */\n    tag_333:\n        /* \"#utility.yul\":15698:15705   */\n      dup3\n        /* \"#utility.yul\":15695:15696   */\n      dup2\n        /* \"#utility.yul\":15692:15706   */\n      lt\n        /* \"#utility.yul\":15684:15892   */\n      iszero\n      tag_335\n      jumpi\n        /* \"#utility.yul\":15777:15786   */\n      dup5\n        /* \"#utility.yul\":15772:15775   */\n      dup10\n        /* \"#utility.yul\":15768:15787   */\n      add\n        /* \"#utility.yul\":15762:15788   */\n      mload\n        /* \"#utility.yul\":15754:15760   */\n      dup3\n        /* \"#utility.yul\":15747:15789   */\n      sstore\n        /* \"#utility.yul\":15828:15829   */\n      0x01\n        /* \"#utility.yul\":15820:15826   */\n      dup3\n        /* \"#utility.yul\":15816:15830   */\n      add\n        /* \"#utility.yul\":15806:15830   */\n      swap2\n      pop\n        /* \"#utility.yul\":15875:15877   */\n      0x20\n        /* \"#utility.yul\":15864:15873   */\n      dup6\n        /* \"#utility.yul\":15860:15878   */\n      add\n        /* \"#utility.yul\":15847:15878   */\n      swap5\n      pop\n        /* \"#utility.yul\":15721:15725   */\n      0x20\n        /* \"#utility.yul\":15718:15719   */\n      dup2\n        /* \"#utility.yul\":15714:15726   */\n      add\n        /* \"#utility.yul\":15709:15726   */\n      swap1\n      pop\n        /* \"#utility.yul\":15684:15892   */\n      jump(tag_333)\n    tag_335:\n        /* \"#utility.yul\":15920:15926   */\n      dup7\n        /* \"#utility.yul\":15911:15918   */\n      dup4\n        /* \"#utility.yul\":15908:15927   */\n      lt\n        /* \"#utility.yul\":15905:16084   */\n      iszero\n      tag_336\n      jumpi\n        /* \"#utility.yul\":15978:15987   */\n      dup5\n        /* \"#utility.yul\":15973:15976   */\n      dup10\n        /* \"#utility.yul\":15969:15988   */\n      add\n        /* \"#utility.yul\":15963:15989   */\n      mload\n        /* \"#utility.yul\":16021:16069   */\n      tag_337\n        /* \"#utility.yul\":16063:16067   */\n      0x1f\n        /* \"#utility.yul\":16055:16061   */\n      dup10\n        /* \"#utility.yul\":16051:16068   */\n      and\n        /* \"#utility.yul\":16040:16049   */\n      dup3\n        /* \"#utility.yul\":16021:16069   */\n      tag_158\n      jump\t// in\n    tag_337:\n        /* \"#utility.yul\":16013:16019   */\n      dup4\n        /* \"#utility.yul\":16006:16070   */\n      sstore\n        /* \"#utility.yul\":15928:16084   */\n      pop\n        /* \"#utility.yul\":15905:16084   */\n    tag_336:\n        /* \"#utility.yul\":16130:16131   */\n      0x01\n        /* \"#utility.yul\":16126:16127   */\n      0x02\n        /* \"#utility.yul\":16118:16124   */\n      dup9\n        /* \"#utility.yul\":16114:16128   */\n      mul\n        /* \"#utility.yul\":16110:16132   */\n      add\n        /* \"#utility.yul\":16104:16108   */\n      dup9\n        /* \"#utility.yul\":16097:16133   */\n      sstore\n        /* \"#utility.yul\":15532:16143   */\n      pop\n      pop\n      pop\n        /* \"#utility.yul\":15495:16382   */\n    tag_328:\n      pop\n        /* \"#utility.yul\":15085:16388   */\n      pop\n      pop\n      pop\n        /* \"#utility.yul\":14993:16388   */\n      pop\n      pop\n      jump\t// out\n\n    auxdata: 0xa2646970667358221220dcdb920e47c1f5e9549a7d583c7060db9f6badaefeedfc2b72f9822b86a433d264736f6c63430008150033\n}\n","bytecode":{"linkReferences":{},"object":"60a060405234801562000010575f80fd5b506040516200147b3803806200147b833981810160405281019062000036919062000123565b8060025f6101000a81548173ffffffffffffffffffffffffffffffffffffffff021916908373ffffffffffffffffffffffffffffffffffffffff1602179055508160808181525050505062000168565b5f80fd5b5f819050919050565b6200009e816200008a565b8114620000a9575f80fd5b50565b5f81519050620000bc8162000093565b92915050565b5f73ffffffffffffffffffffffffffffffffffffffff82169050919050565b5f620000ed82620000c2565b9050919050565b620000ff81620000e1565b81146200010a575f80fd5b50565b5f815190506200011d81620000f4565b92915050565b5f80604083850312156200013c576200013b62000086565b5b5f6200014b85828601620000ac565b92505060206200015e858286016200010d565b9150509250929050565b6080516112f3620001885f395f818161078301526109d701526112f35ff3fe60806040526004361061009b575f3560e01c80638a9cfd55116100635780638a9cfd55146101935780639fb42b1f146101bb578063c58343ef146101e5578063d7bb99ba14610225578063d7d1bbdb1461022f578063f84038b1146102575761009b565b8063034410061461009f5780630a144391146100c7578063481c6a75146101035780636d218e481461012d57806382fde09314610169575b5f80fd5b3480156100aa575f80fd5b506100c560048036038101906100c09190610a3f565b610281565b005b3480156100d2575f80fd5b506100ed60048036038101906100e89190610ac4565b6104a9565b6040516100fa9190610b09565b60405180910390f35b34801561010e575f80fd5b506101176104c6565b6040516101249190610b31565b60405180910390f35b348015610138575f80fd5b50610153600480360381019061014e9190610ac4565b6104eb565b6040516101609190610b09565b60405180910390f35b348015610174575f80fd5b5061017d61053d565b60405161018a9190610b59565b60405180910390f35b34801561019e575f80fd5b506101b960048036038101906101b49190610cae565b610543565b005b3480156101c6575f80fd5b506101cf610681565b6040516101dc9190610b59565b60405180910390f35b3480156101f0575f80fd5b5061020b60048036038101906102069190610a3f565b610686565b60405161021c959493929190610d94565b60405180910390f35b61022d610781565b005b34801561023a575f80fd5b5061025560048036038101906102509190610a3f565b610849565b005b348015610262575f80fd5b5061026b6109d4565b6040516102789190610b59565b60405180910390f35b60025f9054906101000a900473ffffffffffffffffffffffffffffffffffffffff1673ffffffffffffffffffffffffffffffffffffffff163373ffffffffffffffffffffffffffffffffffffffff1614610310576040517f08c379a000000000000000000000000000000000000000000000000000000000815260040161030790610e5c565b60405180910390fd5b5f60015f8381526020019081526020015f2090508060020160149054906101000a900460ff161561036d576040517fbef8947700000000000000000000000000000000000000000000000000000000815260040160405180910390fd5b600260045461037c9190610ed4565b8160030154116103b8576040517fe3de2eb600000000000000000000000000000000000000000000000000000000815260040160405180910390fd5b5f816002015f9054906101000a900473ffffffffffffffffffffffffffffffffffffffff1673ffffffffffffffffffffffffffffffffffffffff16826001015460405161040490610f31565b5f6040518083038185875af1925050503d805f811461043e576040519150601f19603f3d011682016040523d82523d5f602084013e610443565b606091505b5050905080610487576040517f08c379a000000000000000000000000000000000000000000000000000000000815260040161047e90610f8f565b60405180910390fd5b60018260020160146101000a81548160ff021916908315150217905550505050565b6003602052805f5260405f205f915054906101000a900460ff1681565b60025f9054906101000a900473ffffffffffffffffffffffffffffffffffffffff1681565b5f60035f8373ffffffffffffffffffffffffffffffffffffffff1673ffffffffffffffffffffffffffffffffffffffff1681526020019081526020015f205f9054906101000a900460ff169050919050565b60045481565b60025f9054906101000a900473ffffffffffffffffffffffffffffffffffffffff1673ffffffffffffffffffffffffffffffffffffffff163373ffffffffffffffffffffffffffffffffffffffff16146105d2576040517f08c379a00000000000000000000000000000000000000000000000000000000081526004016105c990610e5c565b60405180910390fd5b5f60015f805f8154809291906105e790610fad565b9190505581526020019081526020015f20905083815f01908161060a91906111ee565b5082816001018190555081816002015f6101000a81548173ffffffffffffffffffffffffffffffffffffffff021916908373ffffffffffffffffffffffffffffffffffffffff1602179055505f8160020160146101000a81548160ff0219169083151502179055505f816003018190555050505050565b5f5481565b60605f805f805f60015f8881526020019081526020015f209050805f018160010154826002015f9054906101000a900473ffffffffffffffffffffffffffffffffffffffff168360020160149054906101000a900460ff1684600301548480546106ef90611021565b80601f016020809104026020016040519081016040528092919081815260200182805461071b90611021565b80156107665780601f1061073d57610100808354040283529160200191610766565b820191905f5260205f20905b81548152906001019060200180831161074957829003601f168201915b50505050509450955095509550955095505091939590929450565b7f00000000000000000000000000000000000000000000000000000000000000003410156107db576040517f6f506f0700000000000000000000000000000000000000000000000000000000815260040160405180910390fd5b600160035f3373ffffffffffffffffffffffffffffffffffffffff1673ffffffffffffffffffffffffffffffffffffffff1681526020019081526020015f205f6101000a81548160ff02191690831515021790555060045f81548092919061084290610fad565b9190505550565b5f60015f8381526020019081526020015f20905060035f3373ffffffffffffffffffffffffffffffffffffffff1673ffffffffffffffffffffffffffffffffffffffff1681526020019081526020015f205f9054906101000a900460ff166108dd576040517f2e4557c200000000000000000000000000000000000000000000000000000000815260040160405180910390fd5b806004015f3373ffffffffffffffffffffffffffffffffffffffff1673ffffffffffffffffffffffffffffffffffffffff1681526020019081526020015f205f9054906101000a900460ff1615610960576040517f72e3d32300000000000000000000000000000000000000000000000000000000815260040160405180910390fd5b6001816004015f3373ffffffffffffffffffffffffffffffffffffffff1673ffffffffffffffffffffffffffffffffffffffff1681526020019081526020015f205f6101000a81548160ff021916908315150217905550806003015f8154809291906109cb90610fad565b91905055505050565b5f7f0000000000000000000000000000000000000000000000000000000000000000905090565b5f604051905090565b5f80fd5b5f80fd5b5f819050919050565b610a1e81610a0c565b8114610a28575f80fd5b50565b5f81359050610a3981610a15565b92915050565b5f60208284031215610a5457610a53610a04565b5b5f610a6184828501610a2b565b91505092915050565b5f73ffffffffffffffffffffffffffffffffffffffff82169050919050565b5f610a9382610a6a565b9050919050565b610aa381610a89565b8114610aad575f80fd5b50565b5f81359050610abe81610a9a565b92915050565b5f60208284031215610ad957610ad8610a04565b5b5f610ae684828501610ab0565b91505092915050565b5f8115159050919050565b610b0381610aef565b82525050565b5f602082019050610b1c5f830184610afa565b92915050565b610b2b81610a89565b82525050565b5f602082019050610b445f830184610b22565b92915050565b610b5381610a0c565b82525050565b5f602082019050610b6c5f830184610b4a565b92915050565b5f80fd5b5f80fd5b5f601f19601f8301169050919050565b7f4e487b71000000000000000000000000000000000000000000000000000000005f52604160045260245ffd5b610bc082610b7a565b810181811067ffffffffffffffff82111715610bdf57610bde610b8a565b5b80604052505050565b5f610bf16109fb565b9050610bfd8282610bb7565b919050565b5f67ffffffffffffffff821115610c1c57610c1b610b8a565b5b610c2582610b7a565b9050602081019050919050565b828183375f83830152505050565b5f610c52610c4d84610c02565b610be8565b905082815260208101848484011115610c6e57610c6d610b76565b5b610c79848285610c32565b509392505050565b5f82601f830112610c9557610c94610b72565b5b8135610ca5848260208601610c40565b91505092915050565b5f805f60608486031215610cc557610cc4610a04565b5b5f84013567ffffffffffffffff811115610ce257610ce1610a08565b5b610cee86828701610c81565b9350506020610cff86828701610a2b565b9250506040610d1086828701610ab0565b9150509250925092565b5f81519050919050565b5f82825260208201905092915050565b5f5b83811015610d51578082015181840152602081019050610d36565b5f8484015250505050565b5f610d6682610d1a565b610d708185610d24565b9350610d80818560208601610d34565b610d8981610b7a565b840191505092915050565b5f60a0820190508181035f830152610dac8188610d5c565b9050610dbb6020830187610b4a565b610dc86040830186610b22565b610dd56060830185610afa565b610de26080830184610b4a565b9695505050505050565b7f4f6e6c79206d616e616765722063616e2063616c6c20746869732066756e63745f8201527f696f6e2e00000000000000000000000000000000000000000000000000000000602082015250565b5f610e46602483610d24565b9150610e5182610dec565b604082019050919050565b5f6020820190508181035f830152610e7381610e3a565b9050919050565b7f4e487b71000000000000000000000000000000000000000000000000000000005f52601260045260245ffd5b7f4e487b71000000000000000000000000000000000000000000000000000000005f52601160045260245ffd5b5f610ede82610a0c565b9150610ee983610a0c565b925082610ef957610ef8610e7a565b5b828204905092915050565b5f81905092915050565b50565b5f610f1c5f83610f04565b9150610f2782610f0e565b5f82019050919050565b5f610f3b82610f11565b9150819050919050565b7f43616c6c206661696c65642e00000000000000000000000000000000000000005f82015250565b5f610f79600c83610d24565b9150610f8482610f45565b602082019050919050565b5f6020820190508181035f830152610fa681610f6d565b9050919050565b5f610fb782610a0c565b91507fffffffffffffffffffffffffffffffffffffffffffffffffffffffffffffffff8203610fe957610fe8610ea7565b5b600182019050919050565b7f4e487b71000000000000000000000000000000000000000000000000000000005f52602260045260245ffd5b5f600282049050600182168061103857607f821691505b60208210810361104b5761104a610ff4565b5b50919050565b5f819050815f5260205f209050919050565b5f6020601f8301049050919050565b5f82821b905092915050565b5f600883026110ad7fffffffffffffffffffffffffffffffffffffffffffffffffffffffffffffffff82611072565b6110b78683611072565b95508019841693508086168417925050509392505050565b5f819050919050565b5f6110f26110ed6110e884610a0c565b6110cf565b610a0c565b9050919050565b5f819050919050565b61110b836110d8565b61111f611117826110f9565b84845461107e565b825550505050565b5f90565b611133611127565b61113e818484611102565b505050565b5b81811015611161576111565f8261112b565b600181019050611144565b5050565b601f8211156111a65761117781611051565b61118084611063565b8101602085101561118f578190505b6111a361119b85611063565b830182611143565b50505b505050565b5f82821c905092915050565b5f6111c65f19846008026111ab565b1980831691505092915050565b5f6111de83836111b7565b9150826002028217905092915050565b6111f782610d1a565b67ffffffffffffffff8111156112105761120f610b8a565b5b61121a8254611021565b611225828285611165565b5f60209050601f831160018114611256575f8415611244578287015190505b61124e85826111d3565b8655506112b5565b601f19841661126486611051565b5f5b8281101561128b57848901518255600182019150602085019450602081019050611266565b868310156112a857848901516112a4601f8916826111b7565b8355505b6001600288020188555050505b50505050505056fea2646970667358221220dcdb920e47c1f5e9549a7d583c7060db9f6badaefeedfc2b72f9822b86a433d264736f6c63430008150033","opcodes":"PUSH1 0xA0 PUSH1 0x40 MSTORE CALLVALUE DUP1 ISZERO PUSH3 0x10 JUMPI PUSH0 DUP1 REVERT JUMPDEST POP PUSH1 0x40 MLOAD PUSH3 0x147B CODESIZE SUB DUP1 PUSH3 0x147B DUP4 CODECOPY DUP2 DUP2 ADD PUSH1 0x40 MSTORE DUP2 ADD SWAP1 PUSH3 0x36 SWAP2 SWAP1 PUSH3 0x123 JUMP JUMPDEST DUP1 PUSH1 0x2 PUSH0 PUSH2 0x100 EXP DUP2 SLOAD DUP2 PUSH20 0xFFFFFFFFFFFFFFFFFFFFFFFFFFFFFFFFFFFFFFFF MUL NOT AND SWAP1 DUP4 PUSH20 0xFFFFFFFFFFFFFFFFFFFFFFFFFFFFFFFFFFFFFFFF AND MUL OR SWAP1 SSTORE POP DUP2 PUSH1 0x80 DUP2 DUP2 MSTORE POP POP POP POP PUSH3 0x168 JUMP JUMPDEST PUSH0 DUP1 REVERT JUMPDEST PUSH0 DUP2 SWAP1 POP SWAP2 SWAP1 POP JUMP JUMPDEST PUSH3 0x9E DUP2 PUSH3 0x8A JUMP JUMPDEST DUP2 EQ PUSH3 0xA9 JUMPI PUSH0 DUP1 REVERT JUMPDEST POP JUMP JUMPDEST PUSH0 DUP2 MLOAD SWAP1 POP PUSH3 0xBC DUP2 PUSH3 0x93 JUMP JUMPDEST SWAP3 SWAP2 POP POP JUMP JUMPDEST PUSH0 PUSH20 0xFFFFFFFFFFFFFFFFFFFFFFFFFFFFFFFFFFFFFFFF DUP3 AND SWAP1 POP SWAP2 SWAP1 POP JUMP JUMPDEST PUSH0 PUSH3 0xED DUP3 PUSH3 0xC2 JUMP JUMPDEST SWAP1 POP SWAP2 SWAP1 POP JUMP JUMPDEST PUSH3 0xFF DUP2 PUSH3 0xE1 JUMP JUMPDEST DUP2 EQ PUSH3 0x10A JUMPI PUSH0 DUP1 REVERT JUMPDEST POP JUMP JUMPDEST PUSH0 DUP2 MLOAD SWAP1 POP PUSH3 0x11D DUP2 PUSH3 0xF4 JUMP JUMPDEST SWAP3 SWAP2 POP POP JUMP JUMPDEST PUSH0 DUP1 PUSH1 0x40 DUP4 DUP6 SUB SLT ISZERO PUSH3 0x13C JUMPI PUSH3 0x13B PUSH3 0x86 JUMP JUMPDEST JUMPDEST PUSH0 PUSH3 0x14B DUP6 DUP3 DUP7 ADD PUSH3 0xAC JUMP JUMPDEST SWAP3 POP POP PUSH1 0x20 PUSH3 0x15E DUP6 DUP3 DUP7 ADD PUSH3 0x10D JUMP JUMPDEST SWAP2 POP POP SWAP3 POP SWAP3 SWAP1 POP JUMP JUMPDEST PUSH1 0x80 MLOAD PUSH2 0x12F3 PUSH3 0x188 PUSH0 CODECOPY PUSH0 DUP2 DUP2 PUSH2 0x783 ADD MSTORE PUSH2 0x9D7 ADD MSTORE PUSH2 0x12F3 PUSH0 RETURN INVALID PUSH1 0x80 PUSH1 0x40 MSTORE PUSH1 0x4 CALLDATASIZE LT PUSH2 0x9B JUMPI PUSH0 CALLDATALOAD PUSH1 0xE0 SHR DUP1 PUSH4 0x8A9CFD55 GT PUSH2 0x63 JUMPI DUP1 PUSH4 0x8A9CFD55 EQ PUSH2 0x193 JUMPI DUP1 PUSH4 0x9FB42B1F EQ PUSH2 0x1BB JUMPI DUP1 PUSH4 0xC58343EF EQ PUSH2 0x1E5 JUMPI DUP1 PUSH4 0xD7BB99BA EQ PUSH2 0x225 JUMPI DUP1 PUSH4 0xD7D1BBDB EQ PUSH2 0x22F JUMPI DUP1 PUSH4 0xF84038B1 EQ PUSH2 0x257 JUMPI PUSH2 0x9B JUMP JUMPDEST DUP1 PUSH4 0x3441006 EQ PUSH2 0x9F JUMPI DUP1 PUSH4 0xA144391 EQ PUSH2 0xC7 JUMPI DUP1 PUSH4 0x481C6A75 EQ PUSH2 0x103 JUMPI DUP1 PUSH4 0x6D218E48 EQ PUSH2 0x12D JUMPI DUP1 PUSH4 0x82FDE093 EQ PUSH2 0x169 JUMPI JUMPDEST PUSH0 DUP1 REVERT JUMPDEST CALLVALUE DUP1 ISZERO PUSH2 0xAA JUMPI PUSH0 DUP1 REVERT JUMPDEST POP PUSH2 0xC5 PUSH1 0x4 DUP1 CALLDATASIZE SUB DUP2 ADD SWAP1 PUSH2 0xC0 SWAP2 SWAP1 PUSH2 0xA3F JUMP JUMPDEST PUSH2 0x281 JUMP JUMPDEST STOP JUMPDEST CALLVALUE DUP1 ISZERO PUSH2 0xD2 JUMPI PUSH0 DUP1 REVERT JUMPDEST POP PUSH2 0xED PUSH1 0x4 DUP1 CALLDATASIZE SUB DUP2 ADD SWAP1 PUSH2 0xE8 SWAP2 SWAP1 PUSH2 0xAC4 JUMP JUMPDEST PUSH2 0x4A9 JUMP JUMPDEST PUSH1 0x40 MLOAD PUSH2 0xFA SWAP2 SWAP1 PUSH2 0xB09 JUMP JUMPDEST PUSH1 0x40 MLOAD DUP1 SWAP2 SUB SWAP1 RETURN JUMPDEST CALLVALUE DUP1 ISZERO PUSH2 0x10E JUMPI PUSH0 DUP1 REVERT JUMPDEST POP PUSH2 0x117 PUSH2 0x4C6 JUMP JUMPDEST PUSH1 0x40 MLOAD PUSH2 0x124 SWAP2 SWAP1 PUSH2 0xB31 JUMP JUMPDEST PUSH1 0x40 MLOAD DUP1 SWAP2 SUB SWAP1 RETURN JUMPDEST CALLVALUE DUP1 ISZERO PUSH2 0x138 JUMPI PUSH0 DUP1 REVERT JUMPDEST POP PUSH2 0x153 PUSH1 0x4 DUP1 CALLDATASIZE SUB DUP2 ADD SWAP1 PUSH2 0x14E SWAP2 SWAP1 PUSH2 0xAC4 JUMP JUMPDEST PUSH2 0x4EB JUMP JUMPDEST PUSH1 0x40 MLOAD PUSH2 0x160 SWAP2 SWAP1 PUSH2 0xB09 JUMP JUMPDEST PUSH1 0x40 MLOAD DUP1 SWAP2 SUB SWAP1 RETURN JUMPDEST CALLVALUE DUP1 ISZERO PUSH2 0x174 JUMPI PUSH0 DUP1 REVERT JUMPDEST POP PUSH2 0x17D PUSH2 0x53D JUMP JUMPDEST PUSH1 0x40 MLOAD PUSH2 0x18A SWAP2 SWAP1 PUSH2 0xB59 JUMP JUMPDEST PUSH1 0x40 MLOAD DUP1 SWAP2 SUB SWAP1 RETURN JUMPDEST CALLVALUE DUP1 ISZERO PUSH2 0x19E JUMPI PUSH0 DUP1 REVERT JUMPDEST POP PUSH2 0x1B9 PUSH1 0x4 DUP1 CALLDATASIZE SUB DUP2 ADD SWAP1 PUSH2 0x1B4 SWAP2 SWAP1 PUSH2 0xCAE JUMP JUMPDEST PUSH2 0x543 JUMP JUMPDEST STOP JUMPDEST CALLVALUE DUP1 ISZERO PUSH2 0x1C6 JUMPI PUSH0 DUP1 REVERT JUMPDEST POP PUSH2 0x1CF PUSH2 0x681 JUMP JUMPDEST PUSH1 0x40 MLOAD PUSH2 0x1DC SWAP2 SWAP1 PUSH2 0xB59 JUMP JUMPDEST PUSH1 0x40 MLOAD DUP1 SWAP2 SUB SWAP1 RETURN JUMPDEST CALLVALUE DUP1 ISZERO PUSH2 0x1F0 JUMPI PUSH0 DUP1 REVERT JUMPDEST POP PUSH2 0x20B PUSH1 0x4 DUP1 CALLDATASIZE SUB DUP2 ADD SWAP1 PUSH2 0x206 SWAP2 SWAP1 PUSH2 0xA3F JUMP JUMPDEST PUSH2 0x686 JUMP JUMPDEST PUSH1 0x40 MLOAD PUSH2 0x21C SWAP6 SWAP5 SWAP4 SWAP3 SWAP2 SWAP1 PUSH2 0xD94 JUMP JUMPDEST PUSH1 0x40 MLOAD DUP1 SWAP2 SUB SWAP1 RETURN JUMPDEST PUSH2 0x22D PUSH2 0x781 JUMP JUMPDEST STOP JUMPDEST CALLVALUE DUP1 ISZERO PUSH2 0x23A JUMPI PUSH0 DUP1 REVERT JUMPDEST POP PUSH2 0x255 PUSH1 0x4 DUP1 CALLDATASIZE SUB DUP2 ADD SWAP1 PUSH2 0x250 SWAP2 SWAP1 PUSH2 0xA3F JUMP JUMPDEST PUSH2 0x849 JUMP JUMPDEST STOP JUMPDEST CALLVALUE DUP1 ISZERO PUSH2 0x262 JUMPI PUSH0 DUP1 REVERT JUMPDEST POP PUSH2 0x26B PUSH2 0x9D4 JUMP JUMPDEST PUSH1 0x40 MLOAD PUSH2 0x278 SWAP2 SWAP1 PUSH2 0xB59 JUMP JUMPDEST PUSH1 0x40 MLOAD DUP1 SWAP2 SUB SWAP1 RETURN JUMPDEST PUSH1 0x2 PUSH0 SWAP1 SLOAD SWAP1 PUSH2 0x100 EXP SWAP1 DIV PUSH20 0xFFFFFFFFFFFFFFFFFFFFFFFFFFFFFFFFFFFFFFFF AND PUSH20 0xFFFFFFFFFFFFFFFFFFFFFFFFFFFFFFFFFFFFFFFF AND CALLER PUSH20 0xFFFFFFFFFFFFFFFFFFFFFFFFFFFFFFFFFFFFFFFF AND EQ PUSH2 0x310 JUMPI PUSH1 0x40 MLOAD PUSH32 0x8C379A000000000000000000000000000000000000000000000000000000000 DUP2 MSTORE PUSH1 0x4 ADD PUSH2 0x307 SWAP1 PUSH2 0xE5C JUMP JUMPDEST PUSH1 0x40 MLOAD DUP1 SWAP2 SUB SWAP1 REVERT JUMPDEST PUSH0 PUSH1 0x1 PUSH0 DUP4 DUP2 MSTORE PUSH1 0x20 ADD SWAP1 DUP2 MSTORE PUSH1 0x20 ADD PUSH0 KECCAK256 SWAP1 POP DUP1 PUSH1 0x2 ADD PUSH1 0x14 SWAP1 SLOAD SWAP1 PUSH2 0x100 EXP SWAP1 DIV PUSH1 0xFF AND ISZERO PUSH2 0x36D JUMPI PUSH1 0x40 MLOAD PUSH32 0xBEF8947700000000000000000000000000000000000000000000000000000000 DUP2 MSTORE PUSH1 0x4 ADD PUSH1 0x40 MLOAD DUP1 SWAP2 SUB SWAP1 REVERT JUMPDEST PUSH1 0x2 PUSH1 0x4 SLOAD PUSH2 0x37C SWAP2 SWAP1 PUSH2 0xED4 JUMP JUMPDEST DUP2 PUSH1 0x3 ADD SLOAD GT PUSH2 0x3B8 JUMPI PUSH1 0x40 MLOAD PUSH32 0xE3DE2EB600000000000000000000000000000000000000000000000000000000 DUP2 MSTORE PUSH1 0x4 ADD PUSH1 0x40 MLOAD DUP1 SWAP2 SUB SWAP1 REVERT JUMPDEST PUSH0 DUP2 PUSH1 0x2 ADD PUSH0 SWAP1 SLOAD SWAP1 PUSH2 0x100 EXP SWAP1 DIV PUSH20 0xFFFFFFFFFFFFFFFFFFFFFFFFFFFFFFFFFFFFFFFF AND PUSH20 0xFFFFFFFFFFFFFFFFFFFFFFFFFFFFFFFFFFFFFFFF AND DUP3 PUSH1 0x1 ADD SLOAD PUSH1 0x40 MLOAD PUSH2 0x404 SWAP1 PUSH2 0xF31 JUMP JUMPDEST PUSH0 PUSH1 0x40 MLOAD DUP1 DUP4 SUB DUP2 DUP6 DUP8 GAS CALL SWAP3 POP POP POP RETURNDATASIZE DUP1 PUSH0 DUP2 EQ PUSH2 0x43E JUMPI PUSH1 0x40 MLOAD SWAP2 POP PUSH1 0x1F NOT PUSH1 0x3F RETURNDATASIZE ADD AND DUP3 ADD PUSH1 0x40 MSTORE RETURNDATASIZE DUP3 MSTORE RETURNDATASIZE PUSH0 PUSH1 0x20 DUP5 ADD RETURNDATACOPY PUSH2 0x443 JUMP JUMPDEST PUSH1 0x60 SWAP2 POP JUMPDEST POP POP SWAP1 POP DUP1 PUSH2 0x487 JUMPI PUSH1 0x40 MLOAD PUSH32 0x8C379A000000000000000000000000000000000000000000000000000000000 DUP2 MSTORE PUSH1 0x4 ADD PUSH2 0x47E SWAP1 PUSH2 0xF8F JUMP JUMPDEST PUSH1 0x40 MLOAD DUP1 SWAP2 SUB SWAP1 REVERT JUMPDEST PUSH1 0x1 DUP3 PUSH1 0x2 ADD PUSH1 0x14 PUSH2 0x100 EXP DUP2 SLOAD DUP2 PUSH1 0xFF MUL NOT AND SWAP1 DUP4 ISZERO ISZERO MUL OR SWAP1 SSTORE POP POP POP POP JUMP JUMPDEST PUSH1 0x3 PUSH1 0x20 MSTORE DUP1 PUSH0 MSTORE PUSH1 0x40 PUSH0 KECCAK256 PUSH0 SWAP2 POP SLOAD SWAP1 PUSH2 0x100 EXP SWAP1 DIV PUSH1 0xFF AND DUP2 JUMP JUMPDEST PUSH1 0x2 PUSH0 SWAP1 SLOAD SWAP1 PUSH2 0x100 EXP SWAP1 DIV PUSH20 0xFFFFFFFFFFFFFFFFFFFFFFFFFFFFFFFFFFFFFFFF AND DUP2 JUMP JUMPDEST PUSH0 PUSH1 0x3 PUSH0 DUP4 PUSH20 0xFFFFFFFFFFFFFFFFFFFFFFFFFFFFFFFFFFFFFFFF AND PUSH20 0xFFFFFFFFFFFFFFFFFFFFFFFFFFFFFFFFFFFFFFFF AND DUP2 MSTORE PUSH1 0x20 ADD SWAP1 DUP2 MSTORE PUSH1 0x20 ADD PUSH0 KECCAK256 PUSH0 SWAP1 SLOAD SWAP1 PUSH2 0x100 EXP SWAP1 DIV PUSH1 0xFF AND SWAP1 POP SWAP2 SWAP1 POP JUMP JUMPDEST PUSH1 0x4 SLOAD DUP2 JUMP JUMPDEST PUSH1 0x2 PUSH0 SWAP1 SLOAD SWAP1 PUSH2 0x100 EXP SWAP1 DIV PUSH20 0xFFFFFFFFFFFFFFFFFFFFFFFFFFFFFFFFFFFFFFFF AND PUSH20 0xFFFFFFFFFFFFFFFFFFFFFFFFFFFFFFFFFFFFFFFF AND CALLER PUSH20 0xFFFFFFFFFFFFFFFFFFFFFFFFFFFFFFFFFFFFFFFF AND EQ PUSH2 0x5D2 JUMPI PUSH1 0x40 MLOAD PUSH32 0x8C379A000000000000000000000000000000000000000000000000000000000 DUP2 MSTORE PUSH1 0x4 ADD PUSH2 0x5C9 SWAP1 PUSH2 0xE5C JUMP JUMPDEST PUSH1 0x40 MLOAD DUP1 SWAP2 SUB SWAP1 REVERT JUMPDEST PUSH0 PUSH1 0x1 PUSH0 DUP1 PUSH0 DUP2 SLOAD DUP1 SWAP3 SWAP2 SWAP1 PUSH2 0x5E7 SWAP1 PUSH2 0xFAD JUMP JUMPDEST SWAP2 SWAP1 POP SSTORE DUP2 MSTORE PUSH1 0x20 ADD SWAP1 DUP2 MSTORE PUSH1 0x20 ADD PUSH0 KECCAK256 SWAP1 POP DUP4 DUP2 PUSH0 ADD SWAP1 DUP2 PUSH2 0x60A SWAP2 SWAP1 PUSH2 0x11EE JUMP JUMPDEST POP DUP3 DUP2 PUSH1 0x1 ADD DUP2 SWAP1 SSTORE POP DUP2 DUP2 PUSH1 0x2 ADD PUSH0 PUSH2 0x100 EXP DUP2 SLOAD DUP2 PUSH20 0xFFFFFFFFFFFFFFFFFFFFFFFFFFFFFFFFFFFFFFFF MUL NOT AND SWAP1 DUP4 PUSH20 0xFFFFFFFFFFFFFFFFFFFFFFFFFFFFFFFFFFFFFFFF AND MUL OR SWAP1 SSTORE POP PUSH0 DUP2 PUSH1 0x2 ADD PUSH1 0x14 PUSH2 0x100 EXP DUP2 SLOAD DUP2 PUSH1 0xFF MUL NOT AND SWAP1 DUP4 ISZERO ISZERO MUL OR SWAP1 SSTORE POP PUSH0 DUP2 PUSH1 0x3 ADD DUP2 SWAP1 SSTORE POP POP POP POP POP JUMP JUMPDEST PUSH0 SLOAD DUP2 JUMP JUMPDEST PUSH1 0x60 PUSH0 DUP1 PUSH0 DUP1 PUSH0 PUSH1 0x1 PUSH0 DUP9 DUP2 MSTORE PUSH1 0x20 ADD SWAP1 DUP2 MSTORE PUSH1 0x20 ADD PUSH0 KECCAK256 SWAP1 POP DUP1 PUSH0 ADD DUP2 PUSH1 0x1 ADD SLOAD DUP3 PUSH1 0x2 ADD PUSH0 SWAP1 SLOAD SWAP1 PUSH2 0x100 EXP SWAP1 DIV PUSH20 0xFFFFFFFFFFFFFFFFFFFFFFFFFFFFFFFFFFFFFFFF AND DUP4 PUSH1 0x2 ADD PUSH1 0x14 SWAP1 SLOAD SWAP1 PUSH2 0x100 EXP SWAP1 DIV PUSH1 0xFF AND DUP5 PUSH1 0x3 ADD SLOAD DUP5 DUP1 SLOAD PUSH2 0x6EF SWAP1 PUSH2 0x1021 JUMP JUMPDEST DUP1 PUSH1 0x1F ADD PUSH1 0x20 DUP1 SWAP2 DIV MUL PUSH1 0x20 ADD PUSH1 0x40 MLOAD SWAP1 DUP2 ADD PUSH1 0x40 MSTORE DUP1 SWAP3 SWAP2 SWAP1 DUP2 DUP2 MSTORE PUSH1 0x20 ADD DUP3 DUP1 SLOAD PUSH2 0x71B SWAP1 PUSH2 0x1021 JUMP JUMPDEST DUP1 ISZERO PUSH2 0x766 JUMPI DUP1 PUSH1 0x1F LT PUSH2 0x73D JUMPI PUSH2 0x100 DUP1 DUP4 SLOAD DIV MUL DUP4 MSTORE SWAP2 PUSH1 0x20 ADD SWAP2 PUSH2 0x766 JUMP JUMPDEST DUP3 ADD SWAP2 SWAP1 PUSH0 MSTORE PUSH1 0x20 PUSH0 KECCAK256 SWAP1 JUMPDEST DUP2 SLOAD DUP2 MSTORE SWAP1 PUSH1 0x1 ADD SWAP1 PUSH1 0x20 ADD DUP1 DUP4 GT PUSH2 0x749 JUMPI DUP3 SWAP1 SUB PUSH1 0x1F AND DUP3 ADD SWAP2 JUMPDEST POP POP POP POP POP SWAP5 POP SWAP6 POP SWAP6 POP SWAP6 POP SWAP6 POP SWAP6 POP POP SWAP2 SWAP4 SWAP6 SWAP1 SWAP3 SWAP5 POP JUMP JUMPDEST PUSH32 0x0 CALLVALUE LT ISZERO PUSH2 0x7DB JUMPI PUSH1 0x40 MLOAD PUSH32 0x6F506F0700000000000000000000000000000000000000000000000000000000 DUP2 MSTORE PUSH1 0x4 ADD PUSH1 0x40 MLOAD DUP1 SWAP2 SUB SWAP1 REVERT JUMPDEST PUSH1 0x1 PUSH1 0x3 PUSH0 CALLER PUSH20 0xFFFFFFFFFFFFFFFFFFFFFFFFFFFFFFFFFFFFFFFF AND PUSH20 0xFFFFFFFFFFFFFFFFFFFFFFFFFFFFFFFFFFFFFFFF AND DUP2 MSTORE PUSH1 0x20 ADD SWAP1 DUP2 MSTORE PUSH1 0x20 ADD PUSH0 KECCAK256 PUSH0 PUSH2 0x100 EXP DUP2 SLOAD DUP2 PUSH1 0xFF MUL NOT AND SWAP1 DUP4 ISZERO ISZERO MUL OR SWAP1 SSTORE POP PUSH1 0x4 PUSH0 DUP2 SLOAD DUP1 SWAP3 SWAP2 SWAP1 PUSH2 0x842 SWAP1 PUSH2 0xFAD JUMP JUMPDEST SWAP2 SWAP1 POP SSTORE POP JUMP JUMPDEST PUSH0 PUSH1 0x1 PUSH0 DUP4 DUP2 MSTORE PUSH1 0x20 ADD SWAP1 DUP2 MSTORE PUSH1 0x20 ADD PUSH0 KECCAK256 SWAP1 POP PUSH1 0x3 PUSH0 CALLER PUSH20 0xFFFFFFFFFFFFFFFFFFFFFFFFFFFFFFFFFFFFFFFF AND PUSH20 0xFFFFFFFFFFFFFFFFFFFFFFFFFFFFFFFFFFFFFFFF AND DUP2 MSTORE PUSH1 0x20 ADD SWAP1 DUP2 MSTORE PUSH1 0x20 ADD PUSH0 KECCAK256 PUSH0 SWAP1 SLOAD SWAP1 PUSH2 0x100 EXP SWAP1 DIV PUSH1 0xFF AND PUSH2 0x8DD JUMPI PUSH1 0x40 MLOAD PUSH32 0x2E4557C200000000000000000000000000000000000000000000000000000000 DUP2 MSTORE PUSH1 0x4 ADD PUSH1 0x40 MLOAD DUP1 SWAP2 SUB SWAP1 REVERT JUMPDEST DUP1 PUSH1 0x4 ADD PUSH0 CALLER PUSH20 0xFFFFFFFFFFFFFFFFFFFFFFFFFFFFFFFFFFFFFFFF AND PUSH20 0xFFFFFFFFFFFFFFFFFFFFFFFFFFFFFFFFFFFFFFFF AND DUP2 MSTORE PUSH1 0x20 ADD SWAP1 DUP2 MSTORE PUSH1 0x20 ADD PUSH0 KECCAK256 PUSH0 SWAP1 SLOAD SWAP1 PUSH2 0x100 EXP SWAP1 DIV PUSH1 0xFF AND ISZERO PUSH2 0x960 JUMPI PUSH1 0x40 MLOAD PUSH32 0x72E3D32300000000000000000000000000000000000000000000000000000000 DUP2 MSTORE PUSH1 0x4 ADD PUSH1 0x40 MLOAD DUP1 SWAP2 SUB SWAP1 REVERT JUMPDEST PUSH1 0x1 DUP2 PUSH1 0x4 ADD PUSH0 CALLER PUSH20 0xFFFFFFFFFFFFFFFFFFFFFFFFFFFFFFFFFFFFFFFF AND PUSH20 0xFFFFFFFFFFFFFFFFFFFFFFFFFFFFFFFFFFFFFFFF AND DUP2 MSTORE PUSH1 0x20 ADD SWAP1 DUP2 MSTORE PUSH1 0x20 ADD PUSH0 KECCAK256 PUSH0 PUSH2 0x100 EXP DUP2 SLOAD DUP2 PUSH1 0xFF MUL NOT AND SWAP1 DUP4 ISZERO ISZERO MUL OR SWAP1 SSTORE POP DUP1 PUSH1 0x3 ADD PUSH0 DUP2 SLOAD DUP1 SWAP3 SWAP2 SWAP1 PUSH2 0x9CB SWAP1 PUSH2 0xFAD JUMP JUMPDEST SWAP2 SWAP1 POP SSTORE POP POP POP JUMP JUMPDEST PUSH0 PUSH32 0x0 SWAP1 POP SWAP1 JUMP JUMPDEST PUSH0 PUSH1 0x40 MLOAD SWAP1 POP SWAP1 JUMP JUMPDEST PUSH0 DUP1 REVERT JUMPDEST PUSH0 DUP1 REVERT JUMPDEST PUSH0 DUP2 SWAP1 POP SWAP2 SWAP1 POP JUMP JUMPDEST PUSH2 0xA1E DUP2 PUSH2 0xA0C JUMP JUMPDEST DUP2 EQ PUSH2 0xA28 JUMPI PUSH0 DUP1 REVERT JUMPDEST POP JUMP JUMPDEST PUSH0 DUP2 CALLDATALOAD SWAP1 POP PUSH2 0xA39 DUP2 PUSH2 0xA15 JUMP JUMPDEST SWAP3 SWAP2 POP POP JUMP JUMPDEST PUSH0 PUSH1 0x20 DUP3 DUP5 SUB SLT ISZERO PUSH2 0xA54 JUMPI PUSH2 0xA53 PUSH2 0xA04 JUMP JUMPDEST JUMPDEST PUSH0 PUSH2 0xA61 DUP5 DUP3 DUP6 ADD PUSH2 0xA2B JUMP JUMPDEST SWAP2 POP POP SWAP3 SWAP2 POP POP JUMP JUMPDEST PUSH0 PUSH20 0xFFFFFFFFFFFFFFFFFFFFFFFFFFFFFFFFFFFFFFFF DUP3 AND SWAP1 POP SWAP2 SWAP1 POP JUMP JUMPDEST PUSH0 PUSH2 0xA93 DUP3 PUSH2 0xA6A JUMP JUMPDEST SWAP1 POP SWAP2 SWAP1 POP JUMP JUMPDEST PUSH2 0xAA3 DUP2 PUSH2 0xA89 JUMP JUMPDEST DUP2 EQ PUSH2 0xAAD JUMPI PUSH0 DUP1 REVERT JUMPDEST POP JUMP JUMPDEST PUSH0 DUP2 CALLDATALOAD SWAP1 POP PUSH2 0xABE DUP2 PUSH2 0xA9A JUMP JUMPDEST SWAP3 SWAP2 POP POP JUMP JUMPDEST PUSH0 PUSH1 0x20 DUP3 DUP5 SUB SLT ISZERO PUSH2 0xAD9 JUMPI PUSH2 0xAD8 PUSH2 0xA04 JUMP JUMPDEST JUMPDEST PUSH0 PUSH2 0xAE6 DUP5 DUP3 DUP6 ADD PUSH2 0xAB0 JUMP JUMPDEST SWAP2 POP POP SWAP3 SWAP2 POP POP JUMP JUMPDEST PUSH0 DUP2 ISZERO ISZERO SWAP1 POP SWAP2 SWAP1 POP JUMP JUMPDEST PUSH2 0xB03 DUP2 PUSH2 0xAEF JUMP JUMPDEST DUP3 MSTORE POP POP JUMP JUMPDEST PUSH0 PUSH1 0x20 DUP3 ADD SWAP1 POP PUSH2 0xB1C PUSH0 DUP4 ADD DUP5 PUSH2 0xAFA JUMP JUMPDEST SWAP3 SWAP2 POP POP JUMP JUMPDEST PUSH2 0xB2B DUP2 PUSH2 0xA89 JUMP JUMPDEST DUP3 MSTORE POP POP JUMP JUMPDEST PUSH0 PUSH1 0x20 DUP3 ADD SWAP1 POP PUSH2 0xB44 PUSH0 DUP4 ADD DUP5 PUSH2 0xB22 JUMP JUMPDEST SWAP3 SWAP2 POP POP JUMP JUMPDEST PUSH2 0xB53 DUP2 PUSH2 0xA0C JUMP JUMPDEST DUP3 MSTORE POP POP JUMP JUMPDEST PUSH0 PUSH1 0x20 DUP3 ADD SWAP1 POP PUSH2 0xB6C PUSH0 DUP4 ADD DUP5 PUSH2 0xB4A JUMP JUMPDEST SWAP3 SWAP2 POP POP JUMP JUMPDEST PUSH0 DUP1 REVERT JUMPDEST PUSH0 DUP1 REVERT JUMPDEST PUSH0 PUSH1 0x1F NOT PUSH1 0x1F DUP4 ADD AND SWAP1 POP SWAP2 SWAP1 POP JUMP JUMPDEST PUSH32 0x4E487B7100000000000000000000000000000000000000000000000000000000 PUSH0 MSTORE PUSH1 0x41 PUSH1 0x4 MSTORE PUSH1 0x24 PUSH0 REVERT JUMPDEST PUSH2 0xBC0 DUP3 PUSH2 0xB7A JUMP JUMPDEST DUP2 ADD DUP2 DUP2 LT PUSH8 0xFFFFFFFFFFFFFFFF DUP3 GT OR ISZERO PUSH2 0xBDF JUMPI PUSH2 0xBDE PUSH2 0xB8A JUMP JUMPDEST JUMPDEST DUP1 PUSH1 0x40 MSTORE POP POP POP JUMP JUMPDEST PUSH0 PUSH2 0xBF1 PUSH2 0x9FB JUMP JUMPDEST SWAP1 POP PUSH2 0xBFD DUP3 DUP3 PUSH2 0xBB7 JUMP JUMPDEST SWAP2 SWAP1 POP JUMP JUMPDEST PUSH0 PUSH8 0xFFFFFFFFFFFFFFFF DUP3 GT ISZERO PUSH2 0xC1C JUMPI PUSH2 0xC1B PUSH2 0xB8A JUMP JUMPDEST JUMPDEST PUSH2 0xC25 DUP3 PUSH2 0xB7A JUMP JUMPDEST SWAP1 POP PUSH1 0x20 DUP2 ADD SWAP1 POP SWAP2 SWAP1 POP JUMP JUMPDEST DUP3 DUP2 DUP4 CALLDATACOPY PUSH0 DUP4 DUP4 ADD MSTORE POP POP POP JUMP JUMPDEST PUSH0 PUSH2 0xC52 PUSH2 0xC4D DUP5 PUSH2 0xC02 JUMP JUMPDEST PUSH2 0xBE8 JUMP JUMPDEST SWAP1 POP DUP3 DUP2 MSTORE PUSH1 0x20 DUP2 ADD DUP5 DUP5 DUP5 ADD GT ISZERO PUSH2 0xC6E JUMPI PUSH2 0xC6D PUSH2 0xB76 JUMP JUMPDEST JUMPDEST PUSH2 0xC79 DUP5 DUP3 DUP6 PUSH2 0xC32 JUMP JUMPDEST POP SWAP4 SWAP3 POP POP POP JUMP JUMPDEST PUSH0 DUP3 PUSH1 0x1F DUP4 ADD SLT PUSH2 0xC95 JUMPI PUSH2 0xC94 PUSH2 0xB72 JUMP JUMPDEST JUMPDEST DUP2 CALLDATALOAD PUSH2 0xCA5 DUP5 DUP3 PUSH1 0x20 DUP7 ADD PUSH2 0xC40 JUMP JUMPDEST SWAP2 POP POP SWAP3 SWAP2 POP POP JUMP JUMPDEST PUSH0 DUP1 PUSH0 PUSH1 0x60 DUP5 DUP7 SUB SLT ISZERO PUSH2 0xCC5 JUMPI PUSH2 0xCC4 PUSH2 0xA04 JUMP JUMPDEST JUMPDEST PUSH0 DUP5 ADD CALLDATALOAD PUSH8 0xFFFFFFFFFFFFFFFF DUP2 GT ISZERO PUSH2 0xCE2 JUMPI PUSH2 0xCE1 PUSH2 0xA08 JUMP JUMPDEST JUMPDEST PUSH2 0xCEE DUP7 DUP3 DUP8 ADD PUSH2 0xC81 JUMP JUMPDEST SWAP4 POP POP PUSH1 0x20 PUSH2 0xCFF DUP7 DUP3 DUP8 ADD PUSH2 0xA2B JUMP JUMPDEST SWAP3 POP POP PUSH1 0x40 PUSH2 0xD10 DUP7 DUP3 DUP8 ADD PUSH2 0xAB0 JUMP JUMPDEST SWAP2 POP POP SWAP3 POP SWAP3 POP SWAP3 JUMP JUMPDEST PUSH0 DUP2 MLOAD SWAP1 POP SWAP2 SWAP1 POP JUMP JUMPDEST PUSH0 DUP3 DUP3 MSTORE PUSH1 0x20 DUP3 ADD SWAP1 POP SWAP3 SWAP2 POP POP JUMP JUMPDEST PUSH0 JUMPDEST DUP4 DUP2 LT ISZERO PUSH2 0xD51 JUMPI DUP1 DUP3 ADD MLOAD DUP2 DUP5 ADD MSTORE PUSH1 0x20 DUP2 ADD SWAP1 POP PUSH2 0xD36 JUMP JUMPDEST PUSH0 DUP5 DUP5 ADD MSTORE POP POP POP POP JUMP JUMPDEST PUSH0 PUSH2 0xD66 DUP3 PUSH2 0xD1A JUMP JUMPDEST PUSH2 0xD70 DUP2 DUP6 PUSH2 0xD24 JUMP JUMPDEST SWAP4 POP PUSH2 0xD80 DUP2 DUP6 PUSH1 0x20 DUP7 ADD PUSH2 0xD34 JUMP JUMPDEST PUSH2 0xD89 DUP2 PUSH2 0xB7A JUMP JUMPDEST DUP5 ADD SWAP2 POP POP SWAP3 SWAP2 POP POP JUMP JUMPDEST PUSH0 PUSH1 0xA0 DUP3 ADD SWAP1 POP DUP2 DUP2 SUB PUSH0 DUP4 ADD MSTORE PUSH2 0xDAC DUP2 DUP9 PUSH2 0xD5C JUMP JUMPDEST SWAP1 POP PUSH2 0xDBB PUSH1 0x20 DUP4 ADD DUP8 PUSH2 0xB4A JUMP JUMPDEST PUSH2 0xDC8 PUSH1 0x40 DUP4 ADD DUP7 PUSH2 0xB22 JUMP JUMPDEST PUSH2 0xDD5 PUSH1 0x60 DUP4 ADD DUP6 PUSH2 0xAFA JUMP JUMPDEST PUSH2 0xDE2 PUSH1 0x80 DUP4 ADD DUP5 PUSH2 0xB4A JUMP JUMPDEST SWAP7 SWAP6 POP POP POP POP POP POP JUMP JUMPDEST PUSH32 0x4F6E6C79206D616E616765722063616E2063616C6C20746869732066756E6374 PUSH0 DUP3 ADD MSTORE PUSH32 0x696F6E2E00000000000000000000000000000000000000000000000000000000 PUSH1 0x20 DUP3 ADD MSTORE POP JUMP JUMPDEST PUSH0 PUSH2 0xE46 PUSH1 0x24 DUP4 PUSH2 0xD24 JUMP JUMPDEST SWAP2 POP PUSH2 0xE51 DUP3 PUSH2 0xDEC JUMP JUMPDEST PUSH1 0x40 DUP3 ADD SWAP1 POP SWAP2 SWAP1 POP JUMP JUMPDEST PUSH0 PUSH1 0x20 DUP3 ADD SWAP1 POP DUP2 DUP2 SUB PUSH0 DUP4 ADD MSTORE PUSH2 0xE73 DUP2 PUSH2 0xE3A JUMP JUMPDEST SWAP1 POP SWAP2 SWAP1 POP JUMP JUMPDEST PUSH32 0x4E487B7100000000000000000000000000000000000000000000000000000000 PUSH0 MSTORE PUSH1 0x12 PUSH1 0x4 MSTORE PUSH1 0x24 PUSH0 REVERT JUMPDEST PUSH32 0x4E487B7100000000000000000000000000000000000000000000000000000000 PUSH0 MSTORE PUSH1 0x11 PUSH1 0x4 MSTORE PUSH1 0x24 PUSH0 REVERT JUMPDEST PUSH0 PUSH2 0xEDE DUP3 PUSH2 0xA0C JUMP JUMPDEST SWAP2 POP PUSH2 0xEE9 DUP4 PUSH2 0xA0C JUMP JUMPDEST SWAP3 POP DUP3 PUSH2 0xEF9 JUMPI PUSH2 0xEF8 PUSH2 0xE7A JUMP JUMPDEST JUMPDEST DUP3 DUP3 DIV SWAP1 POP SWAP3 SWAP2 POP POP JUMP JUMPDEST PUSH0 DUP2 SWAP1 POP SWAP3 SWAP2 POP POP JUMP JUMPDEST POP JUMP JUMPDEST PUSH0 PUSH2 0xF1C PUSH0 DUP4 PUSH2 0xF04 JUMP JUMPDEST SWAP2 POP PUSH2 0xF27 DUP3 PUSH2 0xF0E JUMP JUMPDEST PUSH0 DUP3 ADD SWAP1 POP SWAP2 SWAP1 POP JUMP JUMPDEST PUSH0 PUSH2 0xF3B DUP3 PUSH2 0xF11 JUMP JUMPDEST SWAP2 POP DUP2 SWAP1 POP SWAP2 SWAP1 POP JUMP JUMPDEST PUSH32 0x43616C6C206661696C65642E0000000000000000000000000000000000000000 PUSH0 DUP3 ADD MSTORE POP JUMP JUMPDEST PUSH0 PUSH2 0xF79 PUSH1 0xC DUP4 PUSH2 0xD24 JUMP JUMPDEST SWAP2 POP PUSH2 0xF84 DUP3 PUSH2 0xF45 JUMP JUMPDEST PUSH1 0x20 DUP3 ADD SWAP1 POP SWAP2 SWAP1 POP JUMP JUMPDEST PUSH0 PUSH1 0x20 DUP3 ADD SWAP1 POP DUP2 DUP2 SUB PUSH0 DUP4 ADD MSTORE PUSH2 0xFA6 DUP2 PUSH2 0xF6D JUMP JUMPDEST SWAP1 POP SWAP2 SWAP1 POP JUMP JUMPDEST PUSH0 PUSH2 0xFB7 DUP3 PUSH2 0xA0C JUMP JUMPDEST SWAP2 POP PUSH32 0xFFFFFFFFFFFFFFFFFFFFFFFFFFFFFFFFFFFFFFFFFFFFFFFFFFFFFFFFFFFFFFFF DUP3 SUB PUSH2 0xFE9 JUMPI PUSH2 0xFE8 PUSH2 0xEA7 JUMP JUMPDEST JUMPDEST PUSH1 0x1 DUP3 ADD SWAP1 POP SWAP2 SWAP1 POP JUMP JUMPDEST PUSH32 0x4E487B7100000000000000000000000000000000000000000000000000000000 PUSH0 MSTORE PUSH1 0x22 PUSH1 0x4 MSTORE PUSH1 0x24 PUSH0 REVERT JUMPDEST PUSH0 PUSH1 0x2 DUP3 DIV SWAP1 POP PUSH1 0x1 DUP3 AND DUP1 PUSH2 0x1038 JUMPI PUSH1 0x7F DUP3 AND SWAP2 POP JUMPDEST PUSH1 0x20 DUP3 LT DUP2 SUB PUSH2 0x104B JUMPI PUSH2 0x104A PUSH2 0xFF4 JUMP JUMPDEST JUMPDEST POP SWAP2 SWAP1 POP JUMP JUMPDEST PUSH0 DUP2 SWAP1 POP DUP2 PUSH0 MSTORE PUSH1 0x20 PUSH0 KECCAK256 SWAP1 POP SWAP2 SWAP1 POP JUMP JUMPDEST PUSH0 PUSH1 0x20 PUSH1 0x1F DUP4 ADD DIV SWAP1 POP SWAP2 SWAP1 POP JUMP JUMPDEST PUSH0 DUP3 DUP3 SHL SWAP1 POP SWAP3 SWAP2 POP POP JUMP JUMPDEST PUSH0 PUSH1 0x8 DUP4 MUL PUSH2 0x10AD PUSH32 0xFFFFFFFFFFFFFFFFFFFFFFFFFFFFFFFFFFFFFFFFFFFFFFFFFFFFFFFFFFFFFFFF DUP3 PUSH2 0x1072 JUMP JUMPDEST PUSH2 0x10B7 DUP7 DUP4 PUSH2 0x1072 JUMP JUMPDEST SWAP6 POP DUP1 NOT DUP5 AND SWAP4 POP DUP1 DUP7 AND DUP5 OR SWAP3 POP POP POP SWAP4 SWAP3 POP POP POP JUMP JUMPDEST PUSH0 DUP2 SWAP1 POP SWAP2 SWAP1 POP JUMP JUMPDEST PUSH0 PUSH2 0x10F2 PUSH2 0x10ED PUSH2 0x10E8 DUP5 PUSH2 0xA0C JUMP JUMPDEST PUSH2 0x10CF JUMP JUMPDEST PUSH2 0xA0C JUMP JUMPDEST SWAP1 POP SWAP2 SWAP1 POP JUMP JUMPDEST PUSH0 DUP2 SWAP1 POP SWAP2 SWAP1 POP JUMP JUMPDEST PUSH2 0x110B DUP4 PUSH2 0x10D8 JUMP JUMPDEST PUSH2 0x111F PUSH2 0x1117 DUP3 PUSH2 0x10F9 JUMP JUMPDEST DUP5 DUP5 SLOAD PUSH2 0x107E JUMP JUMPDEST DUP3 SSTORE POP POP POP POP JUMP JUMPDEST PUSH0 SWAP1 JUMP JUMPDEST PUSH2 0x1133 PUSH2 0x1127 JUMP JUMPDEST PUSH2 0x113E DUP2 DUP5 DUP5 PUSH2 0x1102 JUMP JUMPDEST POP POP POP JUMP JUMPDEST JUMPDEST DUP2 DUP2 LT ISZERO PUSH2 0x1161 JUMPI PUSH2 0x1156 PUSH0 DUP3 PUSH2 0x112B JUMP JUMPDEST PUSH1 0x1 DUP2 ADD SWAP1 POP PUSH2 0x1144 JUMP JUMPDEST POP POP JUMP JUMPDEST PUSH1 0x1F DUP3 GT ISZERO PUSH2 0x11A6 JUMPI PUSH2 0x1177 DUP2 PUSH2 0x1051 JUMP JUMPDEST PUSH2 0x1180 DUP5 PUSH2 0x1063 JUMP JUMPDEST DUP2 ADD PUSH1 0x20 DUP6 LT ISZERO PUSH2 0x118F JUMPI DUP2 SWAP1 POP JUMPDEST PUSH2 0x11A3 PUSH2 0x119B DUP6 PUSH2 0x1063 JUMP JUMPDEST DUP4 ADD DUP3 PUSH2 0x1143 JUMP JUMPDEST POP POP JUMPDEST POP POP POP JUMP JUMPDEST PUSH0 DUP3 DUP3 SHR SWAP1 POP SWAP3 SWAP2 POP POP JUMP JUMPDEST PUSH0 PUSH2 0x11C6 PUSH0 NOT DUP5 PUSH1 0x8 MUL PUSH2 0x11AB JUMP JUMPDEST NOT DUP1 DUP4 AND SWAP2 POP POP SWAP3 SWAP2 POP POP JUMP JUMPDEST PUSH0 PUSH2 0x11DE DUP4 DUP4 PUSH2 0x11B7 JUMP JUMPDEST SWAP2 POP DUP3 PUSH1 0x2 MUL DUP3 OR SWAP1 POP SWAP3 SWAP2 POP POP JUMP JUMPDEST PUSH2 0x11F7 DUP3 PUSH2 0xD1A JUMP JUMPDEST PUSH8 0xFFFFFFFFFFFFFFFF DUP2 GT ISZERO PUSH2 0x1210 JUMPI PUSH2 0x120F PUSH2 0xB8A JUMP JUMPDEST JUMPDEST PUSH2 0x121A DUP3 SLOAD PUSH2 0x1021 JUMP JUMPDEST PUSH2 0x1225 DUP3 DUP3 DUP6 PUSH2 0x1165 JUMP JUMPDEST PUSH0 PUSH1 0x20 SWAP1 POP PUSH1 0x1F DUP4 GT PUSH1 0x1 DUP2 EQ PUSH2 0x1256 JUMPI PUSH0 DUP5 ISZERO PUSH2 0x1244 JUMPI DUP3 DUP8 ADD MLOAD SWAP1 POP JUMPDEST PUSH2 0x124E DUP6 DUP3 PUSH2 0x11D3 JUMP JUMPDEST DUP7 SSTORE POP PUSH2 0x12B5 JUMP JUMPDEST PUSH1 0x1F NOT DUP5 AND PUSH2 0x1264 DUP7 PUSH2 0x1051 JUMP JUMPDEST PUSH0 JUMPDEST DUP3 DUP2 LT ISZERO PUSH2 0x128B JUMPI DUP5 DUP10 ADD MLOAD DUP3 SSTORE PUSH1 0x1 DUP3 ADD SWAP2 POP PUSH1 0x20 DUP6 ADD SWAP5 POP PUSH1 0x20 DUP2 ADD SWAP1 POP PUSH2 0x1266 JUMP JUMPDEST DUP7 DUP4 LT ISZERO PUSH2 0x12A8 JUMPI DUP5 DUP10 ADD MLOAD PUSH2 0x12A4 PUSH1 0x1F DUP10 AND DUP3 PUSH2 0x11B7 JUMP JUMPDEST DUP4 SSTORE POP JUMPDEST PUSH1 0x1 PUSH1 0x2 DUP9 MUL ADD DUP9 SSTORE POP POP POP JUMPDEST POP POP POP POP POP POP JUMP INVALID LOG2 PUSH5 0x6970667358 0x22 SLT KECCAK256 0xDC 0xDB SWAP3 0xE SELFBALANCE 0xC1 CREATE2 0xE9 SLOAD SWAP11 PUSH30 0x583C7060DB9F6BADAEFEEDFC2B72F9822B86A433D264736F6C6343000815 STOP CALLER "},"gasEstimates":{"creation":{"codeDepositCost":"970200","executionCost":"infinite","totalCost":"infinite"},"external":{"approveRequest(uint256)":"infinite","approvers(address)":"2856","approversCount()":"2514","contribute()":"infinite","createRequest(string,uint256,address)":"infinite","finalizeRequest(uint256)":"infinite","getMinimumContribution()":"infinite","getRequest(uint256)":"infinite","isApprover(address)":"2937","manager()":"2553","numRequests()":"2446"}},"methodIdentifiers":{"approveRequest(uint256)":"d7d1bbdb","approvers(address)":"0a144391","approversCount()":"82fde093","contribute()":"d7bb99ba","createRequest(string,uint256,address)":"8a9cfd55","finalizeRequest(uint256)":"03441006","getMinimumContribution()":"f84038b1","getRequest(uint256)":"c58343ef","isApprover(address)":"6d218e48","manager()":"481c6a75","numRequests()":"9fb42b1f"}},"storageLayout":{"storage":[{"astId":69,"contract":"Campaign.sol:Campaign","label":"numRequests","offset":0,"slot":"0","type":"t_uint256"},{"astId":74,"contract":"Campaign.sol:Campaign","label":"requests","offset":0,"slot":"1","type":"t_mapping(t_uint256,t_struct(Request)67_storage)"},{"astId":76,"contract":"Campaign.sol:Campaign","label":"manager","offset":0,"slot":"2","type":"t_address"},{"astId":82,"contract":"Campaign.sol:Campaign","label":"approvers","offset":0,"slot":"3","type":"t_mapping(t_address,t_bool)"},{"astId":84,"contract":"Campaign.sol:Campaign","label":"approversCount","offset":0,"slot":"4","type":"t_uint256"}],"types":{"t_address":{"encoding":"inplace","label":"address","numberOfBytes":"20"},"t_bool":{"encoding":"inplace","label":"bool","numberOfBytes":"1"},"t_mapping(t_address,t_bool)":{"encoding":"mapping","key":"t_address","label":"mapping(address => bool)","numberOfBytes":"32","value":"t_bool"},"t_mapping(t_uint256,t_struct(Request)67_storage)":{"encoding":"mapping","key":"t_uint256","label":"mapping(uint256 => struct Campaign.Request)","numberOfBytes":"32","value":"t_struct(Request)67_storage"},"t_string_storage":{"encoding":"bytes","label":"string","numberOfBytes":"32"},"t_struct(Request)67_storage":{"encoding":"inplace","label":"struct Campaign.Request","members":[{"astId":54,"contract":"Campaign.sol:Campaign","label":"requestDescription","offset":0,"slot":"0","type":"t_string_storage"},{"astId":56,"contract":"Campaign.sol:Campaign","label":"requestValue","offset":0,"slot":"1","type":"t_uint256"},{"astId":58,"contract":"Campaign.sol:Campaign","label":"requestRecipient","offset":0,"slot":"2","type":"t_address"},{"astId":60,"contract":"Campaign.sol:Campaign","label":"complete","offset":20,"slot":"2","type":"t_bool"},{"astId":62,"contract":"Campaign.sol:Campaign","label":"approvalCount","offset":0,"slot":"3","type":"t_uint256"},{"astId":66,"contract":"Campaign.sol:Campaign","label":"approvals","offset":0,"slot":"4","type":"t_mapping(t_address,t_bool)"}],"numberOfBytes":"160"},"t_uint256":{"encoding":"inplace","label":"uint256","numberOfBytes":"32"}}},"userdoc":{"errors":{"Campaign__NotEnoughEthSent()":[{"notice":"Errors"}]},"kind":"user","methods":{"constructor":{"notice":"Functions"},"getMinimumContribution()":{"notice":"Getter functions"}},"version":1}}